{
  "contractName": "ETHUSD",
  "abi": [
    {
      "constant": true,
      "inputs": [],
      "name": "owner",
      "outputs": [
        {
          "name": "",
          "type": "address"
        }
      ],
      "payable": false,
      "stateMutability": "view",
      "type": "function"
    },
    {
      "constant": false,
      "inputs": [
        {
          "name": "newOwner",
          "type": "address"
        }
      ],
      "name": "transferOwnership",
      "outputs": [],
      "payable": false,
      "stateMutability": "nonpayable",
      "type": "function"
    },
    {
      "constant": true,
      "inputs": [],
      "name": "ethInCents",
      "outputs": [
        {
          "name": "",
          "type": "uint256"
        }
      ],
      "payable": false,
      "stateMutability": "view",
      "type": "function"
    },
    {
      "inputs": [
        {
          "name": "_ethInCents",
          "type": "uint256"
        }
      ],
      "payable": true,
      "stateMutability": "payable",
      "type": "constructor"
    },
    {
      "payable": true,
      "stateMutability": "payable",
      "type": "fallback"
    },
    {
      "anonymous": false,
      "inputs": [
        {
          "indexed": false,
          "name": "description",
          "type": "string"
        }
      ],
      "name": "LogInfo",
      "type": "event"
    },
    {
      "anonymous": false,
      "inputs": [
        {
          "indexed": false,
          "name": "price",
          "type": "uint256"
        }
      ],
      "name": "LogPriceUpdate",
      "type": "event"
    },
    {
      "anonymous": false,
      "inputs": [
        {
          "indexed": true,
          "name": "_owner",
          "type": "address"
        },
        {
          "indexed": true,
          "name": "_balance",
          "type": "uint256"
        }
      ],
      "name": "LogUpdate",
      "type": "event"
    },
    {
      "anonymous": false,
      "inputs": [
        {
          "indexed": true,
          "name": "previousOwner",
          "type": "address"
        },
        {
          "indexed": true,
          "name": "newOwner",
          "type": "address"
        }
      ],
      "name": "OwnershipTransferred",
      "type": "event"
    },
    {
      "constant": false,
      "inputs": [
        {
          "name": "myid",
          "type": "bytes32"
        },
        {
          "name": "result",
          "type": "string"
        }
      ],
      "name": "__callback",
      "outputs": [],
      "payable": false,
      "stateMutability": "nonpayable",
      "type": "function"
    },
    {
      "constant": false,
      "inputs": [
        {
          "name": "myid",
          "type": "bytes32"
        },
        {
          "name": "result",
          "type": "string"
        },
        {
          "name": "proof",
          "type": "bytes"
        }
      ],
      "name": "__callback",
      "outputs": [],
      "payable": false,
      "stateMutability": "nonpayable",
      "type": "function"
    },
    {
      "constant": true,
      "inputs": [],
      "name": "getBalance",
      "outputs": [
        {
          "name": "_balance",
          "type": "uint256"
        }
      ],
      "payable": false,
      "stateMutability": "view",
      "type": "function"
    },
    {
      "constant": false,
      "inputs": [],
      "name": "update",
      "outputs": [],
      "payable": true,
      "stateMutability": "payable",
      "type": "function"
    },
    {
      "constant": false,
      "inputs": [],
      "name": "instantUpdate",
      "outputs": [],
      "payable": true,
      "stateMutability": "payable",
      "type": "function"
    },
    {
      "constant": false,
      "inputs": [
        {
          "name": "_addr",
          "type": "address"
        }
      ],
      "name": "withdrawFunds",
      "outputs": [],
      "payable": false,
      "stateMutability": "nonpayable",
      "type": "function"
    }
  ],
  "bytecode": "0x608060405260405160208062003f1a8339810180604052810190808051906020019092919050505033600560006101000a81548173ffffffffffffffffffffffffffffffffffffffff021916908373ffffffffffffffffffffffffffffffffffffffff160217905550806006819055503073ffffffffffffffffffffffffffffffffffffffff1631600560009054906101000a900473ffffffffffffffffffffffffffffffffffffffff1673ffffffffffffffffffffffffffffffffffffffff167fd176e7c6abd789c341ab22cef27aa1fbc7461f5f9d6a6e55faa0b9df32a7051460405160405180910390a3736f485c8bf6fc43ea212e93bbf8ce046c7f1cb4756000806101000a81548173ffffffffffffffffffffffffffffffffffffffff021916908373ffffffffffffffffffffffffffffffffffffffff160217905550620001a260017f01000000000000000000000000000000000000000000000000000000000000000260107f01000000000000000000000000000000000000000000000000000000000000000217620001c2640100000000026401000000009004565b620001bb62000576640100000000026401000000009004565b5062001833565b60008060009054906101000a900473ffffffffffffffffffffffffffffffffffffffff1673ffffffffffffffffffffffffffffffffffffffff1614806200024357506000620002416000809054906101000a900473ffffffffffffffffffffffffffffffffffffffff1662000804640100000000026401000000009004565b145b1562000266576200026460006200080f640100000000026401000000009004565b505b6000809054906101000a900473ffffffffffffffffffffffffffffffffffffffff1673ffffffffffffffffffffffffffffffffffffffff166338cc48316040518163ffffffff167c0100000000000000000000000000000000000000000000000000000000028152600401602060405180830381600087803b158015620002ec57600080fd5b505af115801562000301573d6000803e3d6000fd5b505050506040513d60208110156200031857600080fd5b810190808051906020019092919050505073ffffffffffffffffffffffffffffffffffffffff16600160009054906101000a900473ffffffffffffffffffffffffffffffffffffffff1673ffffffffffffffffffffffffffffffffffffffff1614151562000484576000809054906101000a900473ffffffffffffffffffffffffffffffffffffffff1673ffffffffffffffffffffffffffffffffffffffff166338cc48316040518163ffffffff167c0100000000000000000000000000000000000000000000000000000000028152600401602060405180830381600087803b1580156200040657600080fd5b505af11580156200041b573d6000803e3d6000fd5b505050506040513d60208110156200043257600080fd5b8101908080519060200190929190505050600160006101000a81548173ffffffffffffffffffffffffffffffffffffffff021916908373ffffffffffffffffffffffffffffffffffffffff1602179055505b600160009054906101000a900473ffffffffffffffffffffffffffffffffffffffff1673ffffffffffffffffffffffffffffffffffffffff1663688dcfd7826040518263ffffffff167c010000000000000000000000000000000000000000000000000000000002815260040180827effffffffffffffffffffffffffffffffffffffffffffffffffffffffffffff19167effffffffffffffffffffffffffffffffffffffffffffffffffffffffffffff19168152602001915050600060405180830381600087803b1580156200055a57600080fd5b505af11580156200056f573d6000803e3d6000fd5b5050505050565b3073ffffffffffffffffffffffffffffffffffffffff1631620005dd6040805190810160405280600381526020017f55524c000000000000000000000000000000000000000000000000000000000081525062000831640100000000026401000000009004565b11156200069e577ffee95ecae0c8f7f0743ec0ad254c78ab75e5ecca9f1ddcd9f11f9a98124b96bc60405180806020018281038252604b8152602001807f4f7261636c697a6520717565727920776173204e4f542073656e742c20706c6581526020017f6173652061646420736f6d652045544820746f20636f76657220666f7220746881526020017f652071756572792066656500000000000000000000000000000000000000000081525060600191505060405180910390a162000802565b7ffee95ecae0c8f7f0743ec0ad254c78ab75e5ecca9f1ddcd9f11f9a98124b96bc6040518080602001828103825260358152602001807f4f7261636c697a65207175657279207761732073656e742c207374616e64696e81526020017f6720627920666f722074686520616e737765722e2e000000000000000000000081525060400191505060405180910390a162000800603c6040805190810160405280600381526020017f55524c0000000000000000000000000000000000000000000000000000000000815250608060405190810160405280604181526020017f6a736f6e2868747470733a2f2f6170692e636f696e626173652e636f6d2f763281526020017f2f7072696365732f4554482d5553442f73706f74292e646174612e616d6f756e81526020017f740000000000000000000000000000000000000000000000000000000000000081525062000c32640100000000026401000000009004565b505b565b6000813b9050919050565b60006200082a62001210640100000000026401000000009004565b9050919050565b6000806000809054906101000a900473ffffffffffffffffffffffffffffffffffffffff1673ffffffffffffffffffffffffffffffffffffffff161480620008b357506000620008b16000809054906101000a900473ffffffffffffffffffffffffffffffffffffffff1662000804640100000000026401000000009004565b145b15620008d657620008d460006200080f640100000000026401000000009004565b505b6000809054906101000a900473ffffffffffffffffffffffffffffffffffffffff1673ffffffffffffffffffffffffffffffffffffffff166338cc48316040518163ffffffff167c0100000000000000000000000000000000000000000000000000000000028152600401602060405180830381600087803b1580156200095c57600080fd5b505af115801562000971573d6000803e3d6000fd5b505050506040513d60208110156200098857600080fd5b810190808051906020019092919050505073ffffffffffffffffffffffffffffffffffffffff16600160009054906101000a900473ffffffffffffffffffffffffffffffffffffffff1673ffffffffffffffffffffffffffffffffffffffff1614151562000af4576000809054906101000a900473ffffffffffffffffffffffffffffffffffffffff1673ffffffffffffffffffffffffffffffffffffffff166338cc48316040518163ffffffff167c0100000000000000000000000000000000000000000000000000000000028152600401602060405180830381600087803b15801562000a7657600080fd5b505af115801562000a8b573d6000803e3d6000fd5b505050506040513d602081101562000aa257600080fd5b8101908080519060200190929190505050600160006101000a81548173ffffffffffffffffffffffffffffffffffffffff021916908373ffffffffffffffffffffffffffffffffffffffff1602179055505b600160009054906101000a900473ffffffffffffffffffffffffffffffffffffffff1673ffffffffffffffffffffffffffffffffffffffff1663524f3889836040518263ffffffff167c01000000000000000000000000000000000000000000000000000000000281526004018080602001828103825283818151815260200191508051906020019080838360005b8381101562000ba057808201518184015260208101905062000b83565b50505050905090810190601f16801562000bce5780820380516001836020036101000a031916815260200191505b5092505050602060405180830381600087803b15801562000bee57600080fd5b505af115801562000c03573d6000803e3d6000fd5b505050506040513d602081101562000c1a57600080fd5b81019080805190602001909291905050509050919050565b60008060008060009054906101000a900473ffffffffffffffffffffffffffffffffffffffff1673ffffffffffffffffffffffffffffffffffffffff16148062000cb65750600062000cb46000809054906101000a900473ffffffffffffffffffffffffffffffffffffffff1662000804640100000000026401000000009004565b145b1562000cd95762000cd760006200080f640100000000026401000000009004565b505b6000809054906101000a900473ffffffffffffffffffffffffffffffffffffffff1673ffffffffffffffffffffffffffffffffffffffff166338cc48316040518163ffffffff167c0100000000000000000000000000000000000000000000000000000000028152600401602060405180830381600087803b15801562000d5f57600080fd5b505af115801562000d74573d6000803e3d6000fd5b505050506040513d602081101562000d8b57600080fd5b810190808051906020019092919050505073ffffffffffffffffffffffffffffffffffffffff16600160009054906101000a900473ffffffffffffffffffffffffffffffffffffffff1673ffffffffffffffffffffffffffffffffffffffff1614151562000ef7576000809054906101000a900473ffffffffffffffffffffffffffffffffffffffff1673ffffffffffffffffffffffffffffffffffffffff166338cc48316040518163ffffffff167c0100000000000000000000000000000000000000000000000000000000028152600401602060405180830381600087803b15801562000e7957600080fd5b505af115801562000e8e573d6000803e3d6000fd5b505050506040513d602081101562000ea557600080fd5b8101908080519060200190929190505050600160006101000a81548173ffffffffffffffffffffffffffffffffffffffff021916908373ffffffffffffffffffffffffffffffffffffffff1602179055505b600160009054906101000a900473ffffffffffffffffffffffffffffffffffffffff1673ffffffffffffffffffffffffffffffffffffffff1663524f3889856040518263ffffffff167c01000000000000000000000000000000000000000000000000000000000281526004018080602001828103825283818151815260200191508051906020019080838360005b8381101562000fa357808201518184015260208101905062000f86565b50505050905090810190601f16801562000fd15780820380516001836020036101000a031916815260200191505b5092505050602060405180830381600087803b15801562000ff157600080fd5b505af115801562001006573d6000803e3d6000fd5b505050506040513d60208110156200101d57600080fd5b8101908080519060200190929190505050905062030d403a02670de0b6b3a76400000181111562001055576000600102915062001208565b600160009054906101000a900473ffffffffffffffffffffffffffffffffffffffff1673ffffffffffffffffffffffffffffffffffffffff1663adf59f99828787876040518563ffffffff167c0100000000000000000000000000000000000000000000000000000000028152600401808481526020018060200180602001838103835285818151815260200191508051906020019080838360005b838110156200110e578082015181840152602081019050620010f1565b50505050905090810190601f1680156200113c5780820380516001836020036101000a031916815260200191505b50838103825284818151815260200191508051906020019080838360005b83811015620011775780820151818401526020810190506200115a565b50505050905090810190601f168015620011a55780820380516001836020036101000a031916815260200191505b50955050505050506020604051808303818588803b158015620011c757600080fd5b505af1158015620011dc573d6000803e3d6000fd5b50505050506040513d6020811015620011f457600080fd5b810190808051906020019092919050505091505b509392505050565b60008062001241731d3b2638a7cc9f2cb3d298a3da7a90b67e5506ed62000804640100000000026401000000009004565b1115620012f557731d3b2638a7cc9f2cb3d298a3da7a90b67e5506ed6000806101000a81548173ffffffffffffffffffffffffffffffffffffffff021916908373ffffffffffffffffffffffffffffffffffffffff160217905550620012eb6040805190810160405280600b81526020017f6574685f6d61696e6e657400000000000000000000000000000000000000000081525062001768640100000000026401000000009004565b6001905062001765565b60006200132573c03a2615d5efaf5f49f60b7bb6583eaec212fdf162000804640100000000026401000000009004565b1115620013d95773c03a2615d5efaf5f49f60b7bb6583eaec212fdf16000806101000a81548173ffffffffffffffffffffffffffffffffffffffff021916908373ffffffffffffffffffffffffffffffffffffffff160217905550620013cf6040805190810160405280600c81526020017f6574685f726f707374656e33000000000000000000000000000000000000000081525062001768640100000000026401000000009004565b6001905062001765565b60006200140973b7a07bcf2ba2f2703b24c0691b5278999c59ac7e62000804640100000000026401000000009004565b1115620014bd5773b7a07bcf2ba2f2703b24c0691b5278999c59ac7e6000806101000a81548173ffffffffffffffffffffffffffffffffffffffff021916908373ffffffffffffffffffffffffffffffffffffffff160217905550620014b36040805190810160405280600981526020017f6574685f6b6f76616e000000000000000000000000000000000000000000000081525062001768640100000000026401000000009004565b6001905062001765565b6000620014ed73146500cfd35b22e4a392fe0adc06de1a1368ed4862000804640100000000026401000000009004565b1115620015a15773146500cfd35b22e4a392fe0adc06de1a1368ed486000806101000a81548173ffffffffffffffffffffffffffffffffffffffff021916908373ffffffffffffffffffffffffffffffffffffffff160217905550620015976040805190810160405280600b81526020017f6574685f72696e6b65627900000000000000000000000000000000000000000081525062001768640100000000026401000000009004565b6001905062001765565b6000620015d1736f485c8bf6fc43ea212e93bbf8ce046c7f1cb47562000804640100000000026401000000009004565b11156200163657736f485c8bf6fc43ea212e93bbf8ce046c7f1cb4756000806101000a81548173ffffffffffffffffffffffffffffffffffffffff021916908373ffffffffffffffffffffffffffffffffffffffff1602179055506001905062001765565b6000620016667320e12a1f859b3feae5fb2a0a32c18f5a65555bbf62000804640100000000026401000000009004565b1115620016cb577320e12a1f859b3feae5fb2a0a32c18f5a65555bbf6000806101000a81548173ffffffffffffffffffffffffffffffffffffffff021916908373ffffffffffffffffffffffffffffffffffffffff1602179055506001905062001765565b6000620016fb7351efaf4c8b3c9afbd5ab9f4bbc82784ab6ef8faa62000804640100000000026401000000009004565b111562001760577351efaf4c8b3c9afbd5ab9f4bbc82784ab6ef8faa6000806101000a81548173ffffffffffffffffffffffffffffffffffffffff021916908373ffffffffffffffffffffffffffffffffffffffff1602179055506001905062001765565b600090505b90565b80600290805190602001906200178092919062001784565b5050565b828054600181600116156101000203166002900490600052602060002090601f016020900481019282601f10620017c757805160ff1916838001178555620017f8565b82800160010185558215620017f8579182015b82811115620017f7578251825591602001919060010190620017da565b5b5090506200180791906200180b565b5090565b6200183091905b808211156200182c57600081600090555060010162001812565b5090565b90565b6126d780620018436000396000f300608060405260043610610099576000357c0100000000000000000000000000000000000000000000000000000000900463ffffffff16806312065fe01461009b57806327dc297e146100c657806338bbfa501461013d57806368742da6146101fa57806381592aab1461023d5780638da5cb5b14610247578063a2e620451461029e578063f2fde38b146102a8578063fe31482a146102eb575b005b3480156100a757600080fd5b506100b0610316565b6040518082815260200191505060405180910390f35b3480156100d257600080fd5b5061013b6004803603810190808035600019169060200190929190803590602001908201803590602001908080601f0160208091040260200160405190810160405280939291908181526020018383808284378201915050505050509192919290505050610335565b005b34801561014957600080fd5b506101f86004803603810190808035600019169060200190929190803590602001908201803590602001908080601f0160208091040260200160405190810160405280939291908181526020018383808284378201915050505050509192919290803590602001908201803590602001908080601f0160208091040260200160405190810160405280939291908181526020018383808284378201915050505050509192919290505050610378565b005b34801561020657600080fd5b5061023b600480360381019080803573ffffffffffffffffffffffffffffffffffffffff169060200190929190505050610410565b005b610245610529565b005b34801561025357600080fd5b5061025c6107ed565b604051808273ffffffffffffffffffffffffffffffffffffffff1673ffffffffffffffffffffffffffffffffffffffff16815260200191505060405180910390f35b6102a6610813565b005b3480156102b457600080fd5b506102e9600480360381019080803573ffffffffffffffffffffffffffffffffffffffff169060200190929190505050610a7d565b005b3480156102f757600080fd5b50610300610bd5565b6040518082815260200191505060405180910390f35b60003073ffffffffffffffffffffffffffffffffffffffff1631905090565b610374828260006040519080825280601f01601f19166020018201604052801561036e5781602001602082028038833980820191505090505b50610378565b5050565b610380610bdb565b73ffffffffffffffffffffffffffffffffffffffff163373ffffffffffffffffffffffffffffffffffffffff161415156103b957600080fd5b6103c4826002610f39565b6006819055507f347ecf8e277d32d09f7d545d147316524769a54a721bbf706d24fcdccc10f81a6006546040518082815260200191505060405180910390a161040b610813565b505050565b600560009054906101000a900473ffffffffffffffffffffffffffffffffffffffff1673ffffffffffffffffffffffffffffffffffffffff163373ffffffffffffffffffffffffffffffffffffffff1614151561046c57600080fd5b600560009054906101000a900473ffffffffffffffffffffffffffffffffffffffff1673ffffffffffffffffffffffffffffffffffffffff163373ffffffffffffffffffffffffffffffffffffffff161415156104c857600080fd5b8073ffffffffffffffffffffffffffffffffffffffff166108fc3073ffffffffffffffffffffffffffffffffffffffff16319081150290604051600060405180830381858888f19350505050158015610525573d6000803e3d6000fd5b5050565b600560009054906101000a900473ffffffffffffffffffffffffffffffffffffffff1673ffffffffffffffffffffffffffffffffffffffff163373ffffffffffffffffffffffffffffffffffffffff1614151561058557600080fd5b3073ffffffffffffffffffffffffffffffffffffffff16316105db6040805190810160405280600381526020017f55524c000000000000000000000000000000000000000000000000000000000081525061122d565b111561069a577ffee95ecae0c8f7f0743ec0ad254c78ab75e5ecca9f1ddcd9f11f9a98124b96bc60405180806020018281038252604b8152602001807f4f7261636c697a6520717565727920776173204e4f542073656e742c20706c6581526020017f6173652061646420736f6d652045544820746f20636f76657220666f7220746881526020017f652071756572792066656500000000000000000000000000000000000000000081525060600191505060405180910390a16107eb565b7ffee95ecae0c8f7f0743ec0ad254c78ab75e5ecca9f1ddcd9f11f9a98124b96bc6040518080602001828103825260358152602001807f4f7261636c697a65207175657279207761732073656e742c207374616e64696e81526020017f6720627920666f722074686520616e737765722e2e000000000000000000000081525060400191505060405180910390a16107e96040805190810160405280600381526020017f55524c0000000000000000000000000000000000000000000000000000000000815250608060405190810160405280604181526020017f6a736f6e2868747470733a2f2f6170692e636f696e626173652e636f6d2f763281526020017f2f7072696365732f4554482d5553442f73706f74292e646174612e616d6f756e81526020017f74000000000000000000000000000000000000000000000000000000000000008152506115fd565b505b565b600560009054906101000a900473ffffffffffffffffffffffffffffffffffffffff1681565b3073ffffffffffffffffffffffffffffffffffffffff16316108696040805190810160405280600381526020017f55524c000000000000000000000000000000000000000000000000000000000081525061122d565b1115610928577ffee95ecae0c8f7f0743ec0ad254c78ab75e5ecca9f1ddcd9f11f9a98124b96bc60405180806020018281038252604b8152602001807f4f7261636c697a6520717565727920776173204e4f542073656e742c20706c6581526020017f6173652061646420736f6d652045544820746f20636f76657220666f7220746881526020017f652071756572792066656500000000000000000000000000000000000000000081525060600191505060405180910390a1610a7b565b7ffee95ecae0c8f7f0743ec0ad254c78ab75e5ecca9f1ddcd9f11f9a98124b96bc6040518080602001828103825260358152602001807f4f7261636c697a65207175657279207761732073656e742c207374616e64696e81526020017f6720627920666f722074686520616e737765722e2e000000000000000000000081525060400191505060405180910390a1610a79603c6040805190810160405280600381526020017f55524c0000000000000000000000000000000000000000000000000000000000815250608060405190810160405280604181526020017f6a736f6e2868747470733a2f2f6170692e636f696e626173652e636f6d2f763281526020017f2f7072696365732f4554482d5553442f73706f74292e646174612e616d6f756e81526020017f7400000000000000000000000000000000000000000000000000000000000000815250611b9f565b505b565b600560009054906101000a900473ffffffffffffffffffffffffffffffffffffffff1673ffffffffffffffffffffffffffffffffffffffff163373ffffffffffffffffffffffffffffffffffffffff16141515610ad957600080fd5b600073ffffffffffffffffffffffffffffffffffffffff168173ffffffffffffffffffffffffffffffffffffffff1614151515610b1557600080fd5b8073ffffffffffffffffffffffffffffffffffffffff16600560009054906101000a900473ffffffffffffffffffffffffffffffffffffffff1673ffffffffffffffffffffffffffffffffffffffff167f8be0079c531659141344cd1fd0a4f28419497f9722a3daafe3b4186f6b6457e060405160405180910390a380600560006101000a81548173ffffffffffffffffffffffffffffffffffffffff021916908373ffffffffffffffffffffffffffffffffffffffff16021790555050565b60065481565b6000806000809054906101000a900473ffffffffffffffffffffffffffffffffffffffff1673ffffffffffffffffffffffffffffffffffffffff161480610c4b57506000610c496000809054906101000a900473ffffffffffffffffffffffffffffffffffffffff16612141565b145b15610c5c57610c5a600061214c565b505b6000809054906101000a900473ffffffffffffffffffffffffffffffffffffffff1673ffffffffffffffffffffffffffffffffffffffff166338cc48316040518163ffffffff167c0100000000000000000000000000000000000000000000000000000000028152600401602060405180830381600087803b158015610ce157600080fd5b505af1158015610cf5573d6000803e3d6000fd5b505050506040513d6020811015610d0b57600080fd5b810190808051906020019092919050505073ffffffffffffffffffffffffffffffffffffffff16600160009054906101000a900473ffffffffffffffffffffffffffffffffffffffff1673ffffffffffffffffffffffffffffffffffffffff16141515610e73576000809054906101000a900473ffffffffffffffffffffffffffffffffffffffff1673ffffffffffffffffffffffffffffffffffffffff166338cc48316040518163ffffffff167c0100000000000000000000000000000000000000000000000000000000028152600401602060405180830381600087803b158015610df757600080fd5b505af1158015610e0b573d6000803e3d6000fd5b505050506040513d6020811015610e2157600080fd5b8101908080519060200190929190505050600160006101000a81548173ffffffffffffffffffffffffffffffffffffffff021916908373ffffffffffffffffffffffffffffffffffffffff1602179055505b600160009054906101000a900473ffffffffffffffffffffffffffffffffffffffff1673ffffffffffffffffffffffffffffffffffffffff1663c281d19e6040518163ffffffff167c0100000000000000000000000000000000000000000000000000000000028152600401602060405180830381600087803b158015610ef957600080fd5b505af1158015610f0d573d6000803e3d6000fd5b505050506040513d6020811015610f2357600080fd5b8101908080519060200190929190505050905090565b6000606060008060008693506000925060009150600090505b835181101561120e5760307f0100000000000000000000000000000000000000000000000000000000000000028482815181101515610f8d57fe5b9060200101517f010000000000000000000000000000000000000000000000000000000000000090047f0100000000000000000000000000000000000000000000000000000000000000027effffffffffffffffffffffffffffffffffffffffffffffffffffffffffffff1916101580156110a5575060397f010000000000000000000000000000000000000000000000000000000000000002848281518110151561103557fe5b9060200101517f010000000000000000000000000000000000000000000000000000000000000090047f0100000000000000000000000000000000000000000000000000000000000000027effffffffffffffffffffffffffffffffffffffffffffffffffffffffffffff191611155b156111565781156110c85760008614156110be5761120e565b8580600190039650505b600a83029250603084828151811015156110de57fe5b9060200101517f010000000000000000000000000000000000000000000000000000000000000090047f0100000000000000000000000000000000000000000000000000000000000000027f010000000000000000000000000000000000000000000000000000000000000090040383019250611201565b602e7f010000000000000000000000000000000000000000000000000000000000000002848281518110151561118857fe5b9060200101517f010000000000000000000000000000000000000000000000000000000000000090047f0100000000000000000000000000000000000000000000000000000000000000027effffffffffffffffffffffffffffffffffffffffffffffffffffffffffffff1916141561120057600191505b5b8080600101915050610f52565b60008611156112205785600a0a830292505b8294505050505092915050565b6000806000809054906101000a900473ffffffffffffffffffffffffffffffffffffffff1673ffffffffffffffffffffffffffffffffffffffff16148061129d5750600061129b6000809054906101000a900473ffffffffffffffffffffffffffffffffffffffff16612141565b145b156112ae576112ac600061214c565b505b6000809054906101000a900473ffffffffffffffffffffffffffffffffffffffff1673ffffffffffffffffffffffffffffffffffffffff166338cc48316040518163ffffffff167c0100000000000000000000000000000000000000000000000000000000028152600401602060405180830381600087803b15801561133357600080fd5b505af1158015611347573d6000803e3d6000fd5b505050506040513d602081101561135d57600080fd5b810190808051906020019092919050505073ffffffffffffffffffffffffffffffffffffffff16600160009054906101000a900473ffffffffffffffffffffffffffffffffffffffff1673ffffffffffffffffffffffffffffffffffffffff161415156114c5576000809054906101000a900473ffffffffffffffffffffffffffffffffffffffff1673ffffffffffffffffffffffffffffffffffffffff166338cc48316040518163ffffffff167c0100000000000000000000000000000000000000000000000000000000028152600401602060405180830381600087803b15801561144957600080fd5b505af115801561145d573d6000803e3d6000fd5b505050506040513d602081101561147357600080fd5b8101908080519060200190929190505050600160006101000a81548173ffffffffffffffffffffffffffffffffffffffff021916908373ffffffffffffffffffffffffffffffffffffffff1602179055505b600160009054906101000a900473ffffffffffffffffffffffffffffffffffffffff1673ffffffffffffffffffffffffffffffffffffffff1663524f3889836040518263ffffffff167c01000000000000000000000000000000000000000000000000000000000281526004018080602001828103825283818151815260200191508051906020019080838360005b8381101561156f578082015181840152602081019050611554565b50505050905090810190601f16801561159c5780820380516001836020036101000a031916815260200191505b5092505050602060405180830381600087803b1580156115bb57600080fd5b505af11580156115cf573d6000803e3d6000fd5b505050506040513d60208110156115e557600080fd5b81019080805190602001909291905050509050919050565b60008060008060009054906101000a900473ffffffffffffffffffffffffffffffffffffffff1673ffffffffffffffffffffffffffffffffffffffff16148061166f5750600061166d6000809054906101000a900473ffffffffffffffffffffffffffffffffffffffff16612141565b145b156116805761167e600061214c565b505b6000809054906101000a900473ffffffffffffffffffffffffffffffffffffffff1673ffffffffffffffffffffffffffffffffffffffff166338cc48316040518163ffffffff167c0100000000000000000000000000000000000000000000000000000000028152600401602060405180830381600087803b15801561170557600080fd5b505af1158015611719573d6000803e3d6000fd5b505050506040513d602081101561172f57600080fd5b810190808051906020019092919050505073ffffffffffffffffffffffffffffffffffffffff16600160009054906101000a900473ffffffffffffffffffffffffffffffffffffffff1673ffffffffffffffffffffffffffffffffffffffff16141515611897576000809054906101000a900473ffffffffffffffffffffffffffffffffffffffff1673ffffffffffffffffffffffffffffffffffffffff166338cc48316040518163ffffffff167c0100000000000000000000000000000000000000000000000000000000028152600401602060405180830381600087803b15801561181b57600080fd5b505af115801561182f573d6000803e3d6000fd5b505050506040513d602081101561184557600080fd5b8101908080519060200190929190505050600160006101000a81548173ffffffffffffffffffffffffffffffffffffffff021916908373ffffffffffffffffffffffffffffffffffffffff1602179055505b600160009054906101000a900473ffffffffffffffffffffffffffffffffffffffff1673ffffffffffffffffffffffffffffffffffffffff1663524f3889856040518263ffffffff167c01000000000000000000000000000000000000000000000000000000000281526004018080602001828103825283818151815260200191508051906020019080838360005b83811015611941578082015181840152602081019050611926565b50505050905090810190601f16801561196e5780820380516001836020036101000a031916815260200191505b5092505050602060405180830381600087803b15801561198d57600080fd5b505af11580156119a1573d6000803e3d6000fd5b505050506040513d60208110156119b757600080fd5b8101908080519060200190929190505050905062030d403a02670de0b6b3a7640000018111156119ed5760006001029150611b98565b600160009054906101000a900473ffffffffffffffffffffffffffffffffffffffff1673ffffffffffffffffffffffffffffffffffffffff1663adf59f9982600087876040518563ffffffff167c0100000000000000000000000000000000000000000000000000000000028152600401808481526020018060200180602001838103835285818151815260200191508051906020019080838360005b83811015611aa5578082015181840152602081019050611a8a565b50505050905090810190601f168015611ad25780820380516001836020036101000a031916815260200191505b50838103825284818151815260200191508051906020019080838360005b83811015611b0b578082015181840152602081019050611af0565b50505050905090810190601f168015611b385780820380516001836020036101000a031916815260200191505b50955050505050506020604051808303818588803b158015611b5957600080fd5b505af1158015611b6d573d6000803e3d6000fd5b50505050506040513d6020811015611b8457600080fd5b810190808051906020019092919050505091505b5092915050565b60008060008060009054906101000a900473ffffffffffffffffffffffffffffffffffffffff1673ffffffffffffffffffffffffffffffffffffffff161480611c1157506000611c0f6000809054906101000a900473ffffffffffffffffffffffffffffffffffffffff16612141565b145b15611c2257611c20600061214c565b505b6000809054906101000a900473ffffffffffffffffffffffffffffffffffffffff1673ffffffffffffffffffffffffffffffffffffffff166338cc48316040518163ffffffff167c0100000000000000000000000000000000000000000000000000000000028152600401602060405180830381600087803b158015611ca757600080fd5b505af1158015611cbb573d6000803e3d6000fd5b505050506040513d6020811015611cd157600080fd5b810190808051906020019092919050505073ffffffffffffffffffffffffffffffffffffffff16600160009054906101000a900473ffffffffffffffffffffffffffffffffffffffff1673ffffffffffffffffffffffffffffffffffffffff16141515611e39576000809054906101000a900473ffffffffffffffffffffffffffffffffffffffff1673ffffffffffffffffffffffffffffffffffffffff166338cc48316040518163ffffffff167c0100000000000000000000000000000000000000000000000000000000028152600401602060405180830381600087803b158015611dbd57600080fd5b505af1158015611dd1573d6000803e3d6000fd5b505050506040513d6020811015611de757600080fd5b8101908080519060200190929190505050600160006101000a81548173ffffffffffffffffffffffffffffffffffffffff021916908373ffffffffffffffffffffffffffffffffffffffff1602179055505b600160009054906101000a900473ffffffffffffffffffffffffffffffffffffffff1673ffffffffffffffffffffffffffffffffffffffff1663524f3889856040518263ffffffff167c01000000000000000000000000000000000000000000000000000000000281526004018080602001828103825283818151815260200191508051906020019080838360005b83811015611ee3578082015181840152602081019050611ec8565b50505050905090810190601f168015611f105780820380516001836020036101000a031916815260200191505b5092505050602060405180830381600087803b158015611f2f57600080fd5b505af1158015611f43573d6000803e3d6000fd5b505050506040513d6020811015611f5957600080fd5b8101908080519060200190929190505050905062030d403a02670de0b6b3a764000001811115611f8f5760006001029150612139565b600160009054906101000a900473ffffffffffffffffffffffffffffffffffffffff1673ffffffffffffffffffffffffffffffffffffffff1663adf59f99828787876040518563ffffffff167c0100000000000000000000000000000000000000000000000000000000028152600401808481526020018060200180602001838103835285818151815260200191508051906020019080838360005b8381101561204657808201518184015260208101905061202b565b50505050905090810190601f1680156120735780820380516001836020036101000a031916815260200191505b50838103825284818151815260200191508051906020019080838360005b838110156120ac578082015181840152602081019050612091565b50505050905090810190601f1680156120d95780820380516001836020036101000a031916815260200191505b50955050505050506020604051808303818588803b1580156120fa57600080fd5b505af115801561210e573d6000803e3d6000fd5b50505050506040513d602081101561212557600080fd5b810190808051906020019092919050505091505b509392505050565b6000813b9050919050565b600061215661215d565b9050919050565b60008061217d731d3b2638a7cc9f2cb3d298a3da7a90b67e5506ed612141565b111561221e57731d3b2638a7cc9f2cb3d298a3da7a90b67e5506ed6000806101000a81548173ffffffffffffffffffffffffffffffffffffffff021916908373ffffffffffffffffffffffffffffffffffffffff1602179055506122156040805190810160405280600b81526020017f6574685f6d61696e6e65740000000000000000000000000000000000000000008152506125ec565b600190506125e9565b600061223d73c03a2615d5efaf5f49f60b7bb6583eaec212fdf1612141565b11156122de5773c03a2615d5efaf5f49f60b7bb6583eaec212fdf16000806101000a81548173ffffffffffffffffffffffffffffffffffffffff021916908373ffffffffffffffffffffffffffffffffffffffff1602179055506122d56040805190810160405280600c81526020017f6574685f726f707374656e3300000000000000000000000000000000000000008152506125ec565b600190506125e9565b60006122fd73b7a07bcf2ba2f2703b24c0691b5278999c59ac7e612141565b111561239e5773b7a07bcf2ba2f2703b24c0691b5278999c59ac7e6000806101000a81548173ffffffffffffffffffffffffffffffffffffffff021916908373ffffffffffffffffffffffffffffffffffffffff1602179055506123956040805190810160405280600981526020017f6574685f6b6f76616e00000000000000000000000000000000000000000000008152506125ec565b600190506125e9565b60006123bd73146500cfd35b22e4a392fe0adc06de1a1368ed48612141565b111561245e5773146500cfd35b22e4a392fe0adc06de1a1368ed486000806101000a81548173ffffffffffffffffffffffffffffffffffffffff021916908373ffffffffffffffffffffffffffffffffffffffff1602179055506124556040805190810160405280600b81526020017f6574685f72696e6b6562790000000000000000000000000000000000000000008152506125ec565b600190506125e9565b600061247d736f485c8bf6fc43ea212e93bbf8ce046c7f1cb475612141565b11156124e057736f485c8bf6fc43ea212e93bbf8ce046c7f1cb4756000806101000a81548173ffffffffffffffffffffffffffffffffffffffff021916908373ffffffffffffffffffffffffffffffffffffffff160217905550600190506125e9565b60006124ff7320e12a1f859b3feae5fb2a0a32c18f5a65555bbf612141565b1115612562577320e12a1f859b3feae5fb2a0a32c18f5a65555bbf6000806101000a81548173ffffffffffffffffffffffffffffffffffffffff021916908373ffffffffffffffffffffffffffffffffffffffff160217905550600190506125e9565b60006125817351efaf4c8b3c9afbd5ab9f4bbc82784ab6ef8faa612141565b11156125e4577351efaf4c8b3c9afbd5ab9f4bbc82784ab6ef8faa6000806101000a81548173ffffffffffffffffffffffffffffffffffffffff021916908373ffffffffffffffffffffffffffffffffffffffff160217905550600190506125e9565b600090505b90565b8060029080519060200190612602929190612606565b5050565b828054600181600116156101000203166002900490600052602060002090601f016020900481019282601f1061264757805160ff1916838001178555612675565b82800160010185558215612675579182015b82811115612674578251825591602001919060010190612659565b5b5090506126829190612686565b5090565b6126a891905b808211156126a457600081600090555060010161268c565b5090565b905600a165627a7a72305820afd1aa7f79a17077659c247eedcd98d80db2962ca7572ccc2074df50efb049cd0029",
  "source": "pragma solidity 0.4.24;\r\n\r\nimport \"./usingOraclize.sol\";\r\nimport \"./Ownable.sol\";\r\n\r\n\r\n/**\r\n * Contract which exposes `ethInCents` which is the Ether price in USD cents.\r\n * E.g. if 1 Ether is sold at 840.32 USD on the markets, the `ethInCents` will\r\n * be `84032`.\r\n *\r\n * This price is supplied by Oraclize callback, which sets the value. Currently\r\n * there is no proof provided for the callback, other then the value and the\r\n * corresponding ID which was generated when this contract called Oraclize.\r\n *\r\n * If this contract runs out of Ether, the callback cycle will interrupt until\r\n * the `update` function is called with a transaction which also replenishes the\r\n * balance of the contract.\r\n */\r\ncontract ETHUSD is usingOraclize, Ownable {\r\n   \r\n    uint256 public ethInCents;\r\n\r\n    event LogInfo(string description);\r\n    event LogPriceUpdate(uint256 price);\r\n    event LogUpdate(address indexed _owner, uint indexed _balance);\r\n\r\n    // Constructor\r\n    constructor (uint _ethInCents)\r\n    public payable {\r\n               \r\n        ethInCents = _ethInCents;\r\n\r\n        emit LogUpdate(owner, address(this).balance);\r\n\r\n        // Replace the next line with your version:\r\n        //oraclize_setNetwork(4);\r\n        OAR = OraclizeAddrResolverI(0x6f485C8BF6fc43eA212E93BBF8ce046C7f1cb475);\r\n\r\n        oraclize_setProof(proofType_TLSNotary | proofStorage_IPFS);\r\n        update();\r\n    }\r\n\r\n    // Fallback function\r\n    function() public payable {\r\n        \r\n    }\r\n\r\n    function __callback(bytes32 myid, string result, bytes proof) public {\r\n        require(msg.sender == oraclize_cbAddress());\r\n\r\n        ethInCents = parseInt(result, 2);\r\n        emit LogPriceUpdate(ethInCents);\r\n        update();\r\n    }\r\n\r\n    function getBalance() public view returns (uint _balance) {\r\n        return address(this).balance;\r\n    }\r\n\r\n    function update()\r\n    public payable\r\n    {\r\n        // Check if we have enough remaining funds\r\n        if (oraclize_getPrice(\"URL\") > address(this).balance) {\r\n            emit LogInfo(\"Oraclize query was NOT sent, please add some ETH to cover for the query fee\");\r\n        } else {\r\n            emit LogInfo(\"Oraclize query was sent, standing by for the answer..\");\r\n\r\n            // Using XPath to to fetch the right element in the JSON response\r\n            oraclize_query(60, \"URL\", \"json(https://api.coinbase.com/v2/prices/ETH-USD/spot).data.amount\");\r\n        }\r\n    }\r\n\r\n    function instantUpdate()\r\n    public payable\r\n    onlyOwner {\r\n        // Check if we have enough remaining funds\r\n        if (oraclize_getPrice(\"URL\") > address(this).balance) {\r\n            emit LogInfo(\"Oraclize query was NOT sent, please add some ETH to cover for the query fee\");\r\n        } else {\r\n            emit LogInfo(\"Oraclize query was sent, standing by for the answer..\");\r\n\r\n            // Using XPath to to fetch the right element in the JSON response\r\n            oraclize_query(\"URL\", \"json(https://api.coinbase.com/v2/prices/ETH-USD/spot).data.amount\");\r\n        }\r\n    }\r\n\r\n    function withdrawFunds(address _addr) \r\n    public\r\n    onlyOwner\r\n    {\r\n        if (msg.sender != owner) revert();\r\n        _addr.transfer(address(this).balance);\r\n    } \r\n\r\n}",
  "sourcePath": "D:\\Utix Workspace\\UtixTokenSmartContract\\contracts\\ETHUSD.sol",
  "compiler": {
    "name": "solc",
    "version": "0.4.24+commit.e67f0147.Emscripten.clang"
  },
  "schemaVersion": "2.0.1",
  "updatedAt": "2018-09-18T13:44:36.711Z"
}