{
  "contractName": "FlatPricingExt",
  "abi": [
    {
      "constant": true,
      "inputs": [],
      "name": "isPricingStrategy",
      "outputs": [
        {
          "name": "",
          "type": "bool"
        }
      ],
      "payable": false,
      "stateMutability": "pure",
      "type": "function"
    },
    {
      "constant": true,
      "inputs": [],
      "name": "tier",
      "outputs": [
        {
          "name": "",
          "type": "address"
        }
      ],
      "payable": false,
      "stateMutability": "view",
      "type": "function"
    },
    {
      "constant": true,
      "inputs": [],
      "name": "isPresalePurchase",
      "outputs": [
        {
          "name": "",
          "type": "bool"
        }
      ],
      "payable": false,
      "stateMutability": "pure",
      "type": "function"
    },
    {
      "constant": true,
      "inputs": [],
      "name": "oneTokenInCents",
      "outputs": [
        {
          "name": "",
          "type": "uint256"
        }
      ],
      "payable": false,
      "stateMutability": "view",
      "type": "function"
    },
    {
      "constant": true,
      "inputs": [],
      "name": "isSane",
      "outputs": [
        {
          "name": "",
          "type": "bool"
        }
      ],
      "payable": false,
      "stateMutability": "pure",
      "type": "function"
    },
    {
      "constant": true,
      "inputs": [],
      "name": "owner",
      "outputs": [
        {
          "name": "",
          "type": "address"
        }
      ],
      "payable": false,
      "stateMutability": "view",
      "type": "function"
    },
    {
      "constant": true,
      "inputs": [],
      "name": "ethUsdObj",
      "outputs": [
        {
          "name": "",
          "type": "address"
        }
      ],
      "payable": false,
      "stateMutability": "view",
      "type": "function"
    },
    {
      "constant": false,
      "inputs": [
        {
          "name": "newOwner",
          "type": "address"
        }
      ],
      "name": "transferOwnership",
      "outputs": [],
      "payable": false,
      "stateMutability": "nonpayable",
      "type": "function"
    },
    {
      "inputs": [
        {
          "name": "_oneTokenInCents",
          "type": "uint256"
        },
        {
          "name": "_ethUSDAddress",
          "type": "address"
        }
      ],
      "payable": false,
      "stateMutability": "nonpayable",
      "type": "constructor"
    },
    {
      "anonymous": false,
      "inputs": [
        {
          "indexed": false,
          "name": "oneTokenInCents",
          "type": "uint256"
        }
      ],
      "name": "RateChanged",
      "type": "event"
    },
    {
      "anonymous": false,
      "inputs": [
        {
          "indexed": true,
          "name": "previousOwner",
          "type": "address"
        },
        {
          "indexed": true,
          "name": "newOwner",
          "type": "address"
        }
      ],
      "name": "OwnershipTransferred",
      "type": "event"
    },
    {
      "constant": false,
      "inputs": [
        {
          "name": "_tier",
          "type": "address"
        }
      ],
      "name": "setTier",
      "outputs": [],
      "payable": false,
      "stateMutability": "nonpayable",
      "type": "function"
    },
    {
      "constant": false,
      "inputs": [
        {
          "name": "_ethUSDAddress",
          "type": "address"
        }
      ],
      "name": "setEthUSD",
      "outputs": [],
      "payable": false,
      "stateMutability": "nonpayable",
      "type": "function"
    },
    {
      "constant": false,
      "inputs": [
        {
          "name": "_oneTokenInCents",
          "type": "uint256"
        }
      ],
      "name": "updateRate",
      "outputs": [],
      "payable": false,
      "stateMutability": "nonpayable",
      "type": "function"
    },
    {
      "constant": true,
      "inputs": [
        {
          "name": "value",
          "type": "uint256"
        },
        {
          "name": "tokensSold",
          "type": "uint256"
        },
        {
          "name": "decimals",
          "type": "uint256"
        }
      ],
      "name": "calculatePrice",
      "outputs": [
        {
          "name": "",
          "type": "uint256"
        }
      ],
      "payable": false,
      "stateMutability": "view",
      "type": "function"
    },
    {
      "constant": true,
      "inputs": [
        {
          "name": "tokensSold",
          "type": "uint256"
        },
        {
          "name": "decimals",
          "type": "uint256"
        }
      ],
      "name": "oneTokenInWei",
      "outputs": [
        {
          "name": "",
          "type": "uint256"
        }
      ],
      "payable": false,
      "stateMutability": "view",
      "type": "function"
    },
    {
      "constant": true,
      "inputs": [],
      "name": "getEthInCents",
      "outputs": [
        {
          "name": "",
          "type": "uint256"
        }
      ],
      "payable": false,
      "stateMutability": "view",
      "type": "function"
    }
  ],
  "bytecode": "0x608060405234801561001057600080fd5b506040516040806112aa833981018060405281019080805190602001909291908051906020019092919050505033600160006101000a81548173ffffffffffffffffffffffffffffffffffffffff021916908373ffffffffffffffffffffffffffffffffffffffff16021790555060008211151561008d57600080fd5b8160028190555080600360006101000a81548173ffffffffffffffffffffffffffffffffffffffff021916908373ffffffffffffffffffffffffffffffffffffffff16021790555050506111c4806100e66000396000f3006080604052600436106100d0576000357c0100000000000000000000000000000000000000000000000000000000900463ffffffff16806304bbc255146100d557806316f4d022146101045780631f1836fa1461015b57806355c081d41461018a57806369ea1771146101cd5780637e945935146101fa5780637f7985cf1461022557806382771c8e146102685780638da5cb5b146102975780638e68f000146102ee5780639096e41814610339578063d36f69eb14610390578063e015c62a146103bb578063f2fde38b14610410575b600080fd5b3480156100e157600080fd5b506100ea610453565b604051808215151515815260200191505060405180910390f35b34801561011057600080fd5b5061011961045c565b604051808273ffffffffffffffffffffffffffffffffffffffff1673ffffffffffffffffffffffffffffffffffffffff16815260200191505060405180910390f35b34801561016757600080fd5b50610170610481565b604051808215151515815260200191505060405180910390f35b34801561019657600080fd5b506101cb600480360381019080803573ffffffffffffffffffffffffffffffffffffffff169060200190929190505050610489565b005b3480156101d957600080fd5b506101f8600480360381019080803590602001909291905050506105ba565b005b34801561020657600080fd5b5061020f610667565b6040518082815260200191505060405180910390f35b34801561023157600080fd5b50610266600480360381019080803573ffffffffffffffffffffffffffffffffffffffff16906020019092919050505061066d565b005b34801561027457600080fd5b5061027d610746565b604051808215151515815260200191505060405180910390f35b3480156102a357600080fd5b506102ac61074f565b604051808273ffffffffffffffffffffffffffffffffffffffff1673ffffffffffffffffffffffffffffffffffffffff16815260200191505060405180910390f35b3480156102fa57600080fd5b506103236004803603810190808035906020019092919080359060200190929190505050610775565b6040518082815260200191505060405180910390f35b34801561034557600080fd5b5061034e610f33565b604051808273ffffffffffffffffffffffffffffffffffffffff1673ffffffffffffffffffffffffffffffffffffffff16815260200191505060405180910390f35b34801561039c57600080fd5b506103a5610f59565b6040518082815260200191505060405180910390f35b3480156103c757600080fd5b506103fa600480360381019080803590602001909291908035906020019092919080359060200190929190505050610f63565b6040518082815260200191505060405180910390f35b34801561041c57600080fd5b50610451600480360381019080803573ffffffffffffffffffffffffffffffffffffffff169060200190929190505050611040565b005b60006001905090565b6000809054906101000a900473ffffffffffffffffffffffffffffffffffffffff1681565b600080905090565b600160009054906101000a900473ffffffffffffffffffffffffffffffffffffffff1673ffffffffffffffffffffffffffffffffffffffff163373ffffffffffffffffffffffffffffffffffffffff161415156104e557600080fd5b600073ffffffffffffffffffffffffffffffffffffffff168173ffffffffffffffffffffffffffffffffffffffff161415151561051e57fe5b600073ffffffffffffffffffffffffffffffffffffffff166000809054906101000a900473ffffffffffffffffffffffffffffffffffffffff1673ffffffffffffffffffffffffffffffffffffffff1614151561057757fe5b806000806101000a81548173ffffffffffffffffffffffffffffffffffffffff021916908373ffffffffffffffffffffffffffffffffffffffff16021790555050565b6000809054906101000a900473ffffffffffffffffffffffffffffffffffffffff1673ffffffffffffffffffffffffffffffffffffffff163373ffffffffffffffffffffffffffffffffffffffff1614151561061557600080fd5b60008111151561062457600080fd5b806002819055507f595a30f13a69b616c4d568e2a2b7875fdfe86e4300a049953c76ee278f8f3f106002546040518082815260200191505060405180910390a150565b60025481565b600160009054906101000a900473ffffffffffffffffffffffffffffffffffffffff1673ffffffffffffffffffffffffffffffffffffffff163373ffffffffffffffffffffffffffffffffffffffff161415156106c957600080fd5b600073ffffffffffffffffffffffffffffffffffffffff168173ffffffffffffffffffffffffffffffffffffffff161415151561070257fe5b80600360006101000a81548173ffffffffffffffffffffffffffffffffffffffff021916908373ffffffffffffffffffffffffffffffffffffffff16021790555050565b60006001905090565b600160009054906101000a900473ffffffffffffffffffffffffffffffffffffffff1681565b60008060008060008060008088600a0a965061078f610f59565b955060025473__SafeMathLibExt________________________631d3b9edf9091896040518363ffffffff167c0100000000000000000000000000000000000000000000000000000000028152600401808381526020018281526020019250505060206040518083038186803b15801561080857600080fd5b505af415801561081c573d6000803e3d6000fd5b505050506040513d602081101561083257600080fd5b810190808051906020019092919050505073__SafeMathLibExt________________________63a12f69e09091886040518363ffffffff167c0100000000000000000000000000000000000000000000000000000000028152600401808381526020018281526020019250505060206040518083038186803b1580156108b757600080fd5b505af41580156108cb573d6000803e3d6000fd5b505050506040513d60208110156108e157600080fd5b810190808051906020019092919050505094508473__SafeMathLibExt________________________631d3b9edf9091603c6040518363ffffffff167c0100000000000000000000000000000000000000000000000000000000028152600401808381526020018281526020019250505060206040518083038186803b15801561096a57600080fd5b505af415801561097e573d6000803e3d6000fd5b505050506040513d602081101561099457600080fd5b810190808051906020019092919050505073__SafeMathLibExt________________________63a12f69e0909160646040518363ffffffff167c0100000000000000000000000000000000000000000000000000000000028152600401808381526020018281526020019250505060206040518083038186803b158015610a1a57600080fd5b505af4158015610a2e573d6000803e3d6000fd5b505050506040513d6020811015610a4457600080fd5b810190808051906020019092919050505093508473__SafeMathLibExt________________________631d3b9edf909160506040518363ffffffff167c0100000000000000000000000000000000000000000000000000000000028152600401808381526020018281526020019250505060206040518083038186803b158015610acd57600080fd5b505af4158015610ae1573d6000803e3d6000fd5b505050506040513d6020811015610af757600080fd5b810190808051906020019092919050505073__SafeMathLibExt________________________63a12f69e0909160646040518363ffffffff167c0100000000000000000000000000000000000000000000000000000000028152600401808381526020018281526020019250505060206040518083038186803b158015610b7d57600080fd5b505af4158015610b91573d6000803e3d6000fd5b505050506040513d6020811015610ba757600080fd5b810190808051906020019092919050505092508473__SafeMathLibExt________________________631d3b9edf9091605a6040518363ffffffff167c0100000000000000000000000000000000000000000000000000000000028152600401808381526020018281526020019250505060206040518083038186803b158015610c3057600080fd5b505af4158015610c44573d6000803e3d6000fd5b505050506040513d6020811015610c5a57600080fd5b810190808051906020019092919050505073__SafeMathLibExt________________________63a12f69e0909160646040518363ffffffff167c0100000000000000000000000000000000000000000000000000000000028152600401808381526020018281526020019250505060206040518083038186803b158015610ce057600080fd5b505af4158015610cf4573d6000803e3d6000fd5b505050506040513d6020811015610d0a57600080fd5b810190808051906020019092919050505091508473__SafeMathLibExt________________________631d3b9edf9091605f6040518363ffffffff167c0100000000000000000000000000000000000000000000000000000000028152600401808381526020018281526020019250505060206040518083038186803b158015610d9357600080fd5b505af4158015610da7573d6000803e3d6000fd5b505050506040513d6020811015610dbd57600080fd5b810190808051906020019092919050505073__SafeMathLibExt________________________63a12f69e0909160646040518363ffffffff167c0100000000000000000000000000000000000000000000000000000000028152600401808381526020018281526020019250505060206040518083038186803b158015610e4357600080fd5b505af4158015610e57573d6000803e3d6000fd5b505050506040513d6020811015610e6d57600080fd5b810190808051906020019092919050505090508663017d7840028a111515610e9757839750610f26565b8663017d7840028a118015610eb25750866304c4b400028a11155b15610ebf57829750610f26565b866304c4b400028a118015610eda5750866307270e00028a11155b15610ee757819750610f26565b866307270e00028a118015610f025750866308583b00028a11155b15610f0f57809750610f26565b866308583b00028a1115610f2557849750610f26565b5b5050505050505092915050565b600360009054906101000a900473ffffffffffffffffffffffffffffffffffffffff1681565b600061546b905090565b600080600083600a0a9150610f788585610775565b9050808673__SafeMathLibExt________________________631d3b9edf9091856040518363ffffffff167c0100000000000000000000000000000000000000000000000000000000028152600401808381526020018281526020019250505060206040518083038186803b158015610ff057600080fd5b505af4158015611004573d6000803e3d6000fd5b505050506040513d602081101561101a57600080fd5b810190808051906020019092919050505081151561103457fe5b04925050509392505050565b600160009054906101000a900473ffffffffffffffffffffffffffffffffffffffff1673ffffffffffffffffffffffffffffffffffffffff163373ffffffffffffffffffffffffffffffffffffffff1614151561109c57600080fd5b600073ffffffffffffffffffffffffffffffffffffffff168173ffffffffffffffffffffffffffffffffffffffff16141515156110d857600080fd5b8073ffffffffffffffffffffffffffffffffffffffff16600160009054906101000a900473ffffffffffffffffffffffffffffffffffffffff1673ffffffffffffffffffffffffffffffffffffffff167f8be0079c531659141344cd1fd0a4f28419497f9722a3daafe3b4186f6b6457e060405160405180910390a380600160006101000a81548173ffffffffffffffffffffffffffffffffffffffff021916908373ffffffffffffffffffffffffffffffffffffffff160217905550505600a165627a7a72305820269bc31a3e6803eba4716ee9c87c7d3566aea82056384605650b458df3e0b9f80029",
  "source": "/**\r\n * This smart contract code is Copyright 2017 TokenMarket Ltd. For more information see https://tokenmarket.net\r\n *\r\n * Licensed under the Apache License, version 2.0: https://github.com/TokenMarketNet/ico/blob/master/LICENSE.txt\r\n */\r\n\r\npragma solidity 0.4.24;\r\n\r\n\r\nimport \"./PricingStrategy.sol\";\r\nimport \"./SafeMathLibExt.sol\";\r\nimport \"./ETHUSD.sol\";\r\nimport \"./Ownable.sol\";\r\n\r\n\r\n/**\r\n * Fixed crowdsale pricing - everybody gets the same price.\r\n */\r\ncontract FlatPricingExt is PricingStrategy, Ownable {\r\n    using SafeMathLibExt for uint;\r\n\r\n    /* How many weis one token costs */\r\n    //uint public oneTokenInWei5; \r\n    uint public oneTokenInCents;\r\n    //uint public ethInCents;\r\n\r\n    ETHUSD public ethUsdObj;\r\n    // Crowdsale rate has been changed\r\n    event RateChanged(uint oneTokenInCents);\r\n\r\n    constructor(uint _oneTokenInCents, address _ethUSDAddress) public {\r\n      \r\n        require(_oneTokenInCents > 0);   \r\n\r\n        oneTokenInCents = _oneTokenInCents;\r\n        ethUsdObj = ETHUSD(_ethUSDAddress); \r\n    }\r\n\r\n    modifier onlyTier() {\r\n        if (msg.sender != address(tier)) \r\n            revert();\r\n        _;\r\n    }\r\n\r\n    function setTier(address _tier) public onlyOwner {\r\n        assert(_tier != address(0));\r\n        assert(tier == address(0));\r\n        tier = _tier;\r\n    }\r\n\r\n    function setEthUSD(address _ethUSDAddress) public onlyOwner {\r\n        assert(_ethUSDAddress != address(0));\r\n        ethUsdObj = ETHUSD(_ethUSDAddress);\r\n    }\r\n\r\n    function updateRate(uint _oneTokenInCents) public onlyTier {\r\n      \r\n        require(_oneTokenInCents > 0);  \r\n\r\n        oneTokenInCents = _oneTokenInCents;   \r\n\r\n        emit RateChanged(oneTokenInCents);\r\n    }\r\n\r\n    /**\r\n    * Calculate the current price for buy in amount.\r\n    *\r\n    */\r\n    function calculatePrice(uint value, uint tokensSold, uint decimals) public view returns (uint) {\r\n        uint multiplier = 10 ** decimals;    \r\n        uint oneTokenPriceInWei = oneTokenInWei(tokensSold, decimals);\r\n        return value.times(multiplier) / oneTokenPriceInWei;\r\n    }\r\n\r\n    function oneTokenInWei(uint tokensSold, uint decimals) public view returns (uint) {\r\n        uint multiplier = 10 ** decimals;\r\n        uint ethInCents = getEthInCents();\r\n        uint oneTokenInWei5 = oneTokenInCents.times(multiplier).divides(ethInCents);\r\n        \r\n        uint oneTokenInWei1 = oneTokenInWei5.times(60).divides(100);\r\n        uint oneTokenInWei2 = oneTokenInWei5.times(80).divides(100);\r\n        uint oneTokenInWei3 = oneTokenInWei5.times(90).divides(100);\r\n        uint oneTokenInWei4 = oneTokenInWei5.times(95).divides(100);\r\n\r\n        if (tokensSold <= 25000000 * multiplier)\r\n            return oneTokenInWei1;\r\n        if (tokensSold > 25000000 * multiplier && tokensSold <= 80000000 * multiplier)\r\n            return oneTokenInWei2;\r\n        if (tokensSold > 80000000 * multiplier && tokensSold <= 120000000 * multiplier)\r\n            return oneTokenInWei3;\r\n        if (tokensSold > 120000000 * multiplier && tokensSold <= 140000000 * multiplier)\r\n            return oneTokenInWei4;\r\n        if (tokensSold > 140000000 * multiplier)\r\n            return oneTokenInWei5;\r\n    }\r\n\r\n    function getEthInCents() public view returns (uint) {\r\n        return 21611;\r\n    }\r\n\r\n}\r\n",
  "sourcePath": "D:\\Utix Workspace\\UtixTokenSmartContract\\contracts\\FlatPricingExt.sol",
  "compiler": {
    "name": "solc",
    "version": "0.4.24+commit.e67f0147.Emscripten.clang"
  },
  "schemaVersion": "2.0.1",
  "updatedAt": "2018-09-18T13:44:49.001Z"
}