{
  "contractName": "MintedTokenCappedCrowdsaleExtv1",
  "abi": [
    {
      "constant": true,
      "inputs": [],
      "name": "ownerTestValue",
      "outputs": [
        {
          "name": "",
          "type": "uint256"
        }
      ],
      "payable": false,
      "stateMutability": "view",
      "type": "function"
    },
    {
      "constant": false,
      "inputs": [
        {
          "name": "addr",
          "type": "address"
        }
      ],
      "name": "invest",
      "outputs": [],
      "payable": true,
      "stateMutability": "payable",
      "type": "function"
    },
    {
      "constant": true,
      "inputs": [
        {
          "name": "addr",
          "type": "address"
        },
        {
          "name": "weiAmount",
          "type": "uint256"
        }
      ],
      "name": "isBreakingInvestorCap",
      "outputs": [
        {
          "name": "limitBroken",
          "type": "bool"
        }
      ],
      "payable": false,
      "stateMutability": "view",
      "type": "function"
    },
    {
      "constant": false,
      "inputs": [
        {
          "name": "addrs",
          "type": "address[]"
        }
      ],
      "name": "updateJoinedCrowdsalesMultiple",
      "outputs": [],
      "payable": false,
      "stateMutability": "nonpayable",
      "type": "function"
    },
    {
      "constant": true,
      "inputs": [],
      "name": "isPricingSane",
      "outputs": [
        {
          "name": "sane",
          "type": "bool"
        }
      ],
      "payable": false,
      "stateMutability": "view",
      "type": "function"
    },
    {
      "constant": true,
      "inputs": [],
      "name": "name",
      "outputs": [
        {
          "name": "",
          "type": "string"
        }
      ],
      "payable": false,
      "stateMutability": "view",
      "type": "function"
    },
    {
      "constant": true,
      "inputs": [],
      "name": "endsAt",
      "outputs": [
        {
          "name": "",
          "type": "uint256"
        }
      ],
      "payable": false,
      "stateMutability": "view",
      "type": "function"
    },
    {
      "constant": true,
      "inputs": [],
      "name": "tokenVesting",
      "outputs": [
        {
          "name": "",
          "type": "address"
        }
      ],
      "payable": false,
      "stateMutability": "view",
      "type": "function"
    },
    {
      "constant": true,
      "inputs": [],
      "name": "isUpdatable",
      "outputs": [
        {
          "name": "",
          "type": "bool"
        }
      ],
      "payable": false,
      "stateMutability": "view",
      "type": "function"
    },
    {
      "constant": true,
      "inputs": [
        {
          "name": "addr",
          "type": "address"
        }
      ],
      "name": "isAddressWhitelisted",
      "outputs": [
        {
          "name": "",
          "type": "bool"
        }
      ],
      "payable": false,
      "stateMutability": "view",
      "type": "function"
    },
    {
      "constant": true,
      "inputs": [],
      "name": "minimumFundingGoal",
      "outputs": [
        {
          "name": "",
          "type": "uint256"
        }
      ],
      "payable": false,
      "stateMutability": "view",
      "type": "function"
    },
    {
      "constant": true,
      "inputs": [],
      "name": "getState",
      "outputs": [
        {
          "name": "",
          "type": "uint8"
        }
      ],
      "payable": false,
      "stateMutability": "view",
      "type": "function"
    },
    {
      "constant": false,
      "inputs": [
        {
          "name": "addr",
          "type": "address"
        }
      ],
      "name": "setFinalizeAgent",
      "outputs": [],
      "payable": false,
      "stateMutability": "nonpayable",
      "type": "function"
    },
    {
      "constant": true,
      "inputs": [],
      "name": "whitelistedParticipantsLength",
      "outputs": [
        {
          "name": "",
          "type": "uint256"
        }
      ],
      "payable": false,
      "stateMutability": "view",
      "type": "function"
    },
    {
      "constant": true,
      "inputs": [
        {
          "name": "",
          "type": "address"
        }
      ],
      "name": "investedAmountOf",
      "outputs": [
        {
          "name": "",
          "type": "uint256"
        }
      ],
      "payable": false,
      "stateMutability": "view",
      "type": "function"
    },
    {
      "constant": true,
      "inputs": [],
      "name": "finalizeAgent",
      "outputs": [
        {
          "name": "",
          "type": "address"
        }
      ],
      "payable": false,
      "stateMutability": "view",
      "type": "function"
    },
    {
      "constant": true,
      "inputs": [
        {
          "name": "addr",
          "type": "address"
        }
      ],
      "name": "isTierJoined",
      "outputs": [
        {
          "name": "",
          "type": "bool"
        }
      ],
      "payable": false,
      "stateMutability": "view",
      "type": "function"
    },
    {
      "constant": true,
      "inputs": [],
      "name": "areReservedTokensDistributed",
      "outputs": [
        {
          "name": "",
          "type": "bool"
        }
      ],
      "payable": false,
      "stateMutability": "view",
      "type": "function"
    },
    {
      "constant": false,
      "inputs": [
        {
          "name": "addr",
          "type": "address"
        },
        {
          "name": "state",
          "type": "bool"
        }
      ],
      "name": "setAllocateAgent",
      "outputs": [],
      "payable": false,
      "stateMutability": "nonpayable",
      "type": "function"
    },
    {
      "constant": true,
      "inputs": [
        {
          "name": "",
          "type": "address"
        }
      ],
      "name": "allocateAgents",
      "outputs": [
        {
          "name": "",
          "type": "bool"
        }
      ],
      "payable": false,
      "stateMutability": "view",
      "type": "function"
    },
    {
      "constant": false,
      "inputs": [
        {
          "name": "tokens",
          "type": "uint256"
        }
      ],
      "name": "setMaximumSellableTokens",
      "outputs": [],
      "payable": false,
      "stateMutability": "nonpayable",
      "type": "function"
    },
    {
      "constant": true,
      "inputs": [],
      "name": "maximumSellableTokens",
      "outputs": [
        {
          "name": "",
          "type": "uint256"
        }
      ],
      "payable": false,
      "stateMutability": "view",
      "type": "function"
    },
    {
      "constant": true,
      "inputs": [],
      "name": "mintedTokenCappedCrowdsaleExt",
      "outputs": [
        {
          "name": "",
          "type": "address"
        }
      ],
      "payable": false,
      "stateMutability": "view",
      "type": "function"
    },
    {
      "constant": true,
      "inputs": [],
      "name": "weiRaised",
      "outputs": [
        {
          "name": "",
          "type": "uint256"
        }
      ],
      "payable": false,
      "stateMutability": "view",
      "type": "function"
    },
    {
      "constant": true,
      "inputs": [],
      "name": "isCrowdsale",
      "outputs": [
        {
          "name": "",
          "type": "bool"
        }
      ],
      "payable": false,
      "stateMutability": "pure",
      "type": "function"
    },
    {
      "constant": false,
      "inputs": [],
      "name": "finalize",
      "outputs": [],
      "payable": false,
      "stateMutability": "nonpayable",
      "type": "function"
    },
    {
      "constant": false,
      "inputs": [
        {
          "name": "_pricingStrategy",
          "type": "address"
        }
      ],
      "name": "setPricingStrategy",
      "outputs": [],
      "payable": false,
      "stateMutability": "nonpayable",
      "type": "function"
    },
    {
      "constant": true,
      "inputs": [],
      "name": "tokensSold",
      "outputs": [
        {
          "name": "",
          "type": "uint256"
        }
      ],
      "payable": false,
      "stateMutability": "view",
      "type": "function"
    },
    {
      "constant": false,
      "inputs": [],
      "name": "halt",
      "outputs": [],
      "payable": false,
      "stateMutability": "nonpayable",
      "type": "function"
    },
    {
      "constant": true,
      "inputs": [],
      "name": "MAX_INVESTMENTS_BEFORE_MULTISIG_CHANGE",
      "outputs": [
        {
          "name": "",
          "type": "uint256"
        }
      ],
      "payable": false,
      "stateMutability": "view",
      "type": "function"
    },
    {
      "constant": false,
      "inputs": [
        {
          "name": "oneTokenInCents",
          "type": "uint256"
        }
      ],
      "name": "updateRate",
      "outputs": [],
      "payable": false,
      "stateMutability": "nonpayable",
      "type": "function"
    },
    {
      "constant": false,
      "inputs": [
        {
          "name": "time",
          "type": "uint256"
        }
      ],
      "name": "setEndsAt",
      "outputs": [],
      "payable": false,
      "stateMutability": "nonpayable",
      "type": "function"
    },
    {
      "constant": true,
      "inputs": [],
      "name": "pricingStrategy",
      "outputs": [
        {
          "name": "",
          "type": "address"
        }
      ],
      "payable": false,
      "stateMutability": "view",
      "type": "function"
    },
    {
      "constant": true,
      "inputs": [],
      "name": "isMinimumGoalReached",
      "outputs": [
        {
          "name": "reached",
          "type": "bool"
        }
      ],
      "payable": false,
      "stateMutability": "view",
      "type": "function"
    },
    {
      "constant": true,
      "inputs": [],
      "name": "joinedCrowdsalesLenMax",
      "outputs": [
        {
          "name": "",
          "type": "uint8"
        }
      ],
      "payable": false,
      "stateMutability": "view",
      "type": "function"
    },
    {
      "constant": false,
      "inputs": [
        {
          "name": "addr",
          "type": "address"
        },
        {
          "name": "status",
          "type": "bool"
        },
        {
          "name": "minCap",
          "type": "uint256"
        },
        {
          "name": "maxCap",
          "type": "uint256"
        }
      ],
      "name": "setEarlyParticipantWhitelist",
      "outputs": [],
      "payable": false,
      "stateMutability": "nonpayable",
      "type": "function"
    },
    {
      "constant": true,
      "inputs": [],
      "name": "owner",
      "outputs": [
        {
          "name": "",
          "type": "address"
        }
      ],
      "payable": false,
      "stateMutability": "view",
      "type": "function"
    },
    {
      "constant": true,
      "inputs": [],
      "name": "multisigWallet",
      "outputs": [
        {
          "name": "",
          "type": "address"
        }
      ],
      "payable": false,
      "stateMutability": "view",
      "type": "function"
    },
    {
      "constant": true,
      "inputs": [
        {
          "name": "",
          "type": "address"
        }
      ],
      "name": "tokenAmountOf",
      "outputs": [
        {
          "name": "",
          "type": "uint256"
        }
      ],
      "payable": false,
      "stateMutability": "view",
      "type": "function"
    },
    {
      "constant": true,
      "inputs": [
        {
          "name": "",
          "type": "uint256"
        }
      ],
      "name": "investedAmountOfAddresses",
      "outputs": [
        {
          "name": "",
          "type": "address"
        }
      ],
      "payable": false,
      "stateMutability": "view",
      "type": "function"
    },
    {
      "constant": false,
      "inputs": [],
      "name": "buy",
      "outputs": [],
      "payable": true,
      "stateMutability": "payable",
      "type": "function"
    },
    {
      "constant": true,
      "inputs": [],
      "name": "isFinalizerSane",
      "outputs": [
        {
          "name": "sane",
          "type": "bool"
        }
      ],
      "payable": false,
      "stateMutability": "view",
      "type": "function"
    },
    {
      "constant": true,
      "inputs": [],
      "name": "startsAt",
      "outputs": [
        {
          "name": "",
          "type": "uint256"
        }
      ],
      "payable": false,
      "stateMutability": "view",
      "type": "function"
    },
    {
      "constant": true,
      "inputs": [
        {
          "name": "addr",
          "type": "address"
        }
      ],
      "name": "getTierPosition",
      "outputs": [
        {
          "name": "",
          "type": "uint8"
        }
      ],
      "payable": false,
      "stateMutability": "view",
      "type": "function"
    },
    {
      "constant": false,
      "inputs": [
        {
          "name": "addrs",
          "type": "address[]"
        },
        {
          "name": "statuses",
          "type": "bool[]"
        },
        {
          "name": "minCaps",
          "type": "uint256[]"
        },
        {
          "name": "maxCaps",
          "type": "uint256[]"
        }
      ],
      "name": "setEarlyParticipantWhitelistMultiple",
      "outputs": [],
      "payable": false,
      "stateMutability": "nonpayable",
      "type": "function"
    },
    {
      "constant": true,
      "inputs": [],
      "name": "finalized",
      "outputs": [
        {
          "name": "",
          "type": "bool"
        }
      ],
      "payable": false,
      "stateMutability": "view",
      "type": "function"
    },
    {
      "constant": true,
      "inputs": [],
      "name": "halted",
      "outputs": [
        {
          "name": "",
          "type": "bool"
        }
      ],
      "payable": false,
      "stateMutability": "view",
      "type": "function"
    },
    {
      "constant": true,
      "inputs": [],
      "name": "tokenVestingAddress",
      "outputs": [
        {
          "name": "",
          "type": "address"
        }
      ],
      "payable": false,
      "stateMutability": "view",
      "type": "function"
    },
    {
      "constant": true,
      "inputs": [],
      "name": "canDistributeReservedTokens",
      "outputs": [
        {
          "name": "",
          "type": "bool"
        }
      ],
      "payable": false,
      "stateMutability": "view",
      "type": "function"
    },
    {
      "constant": true,
      "inputs": [
        {
          "name": "",
          "type": "uint256"
        }
      ],
      "name": "joinedCrowdsales",
      "outputs": [
        {
          "name": "",
          "type": "address"
        }
      ],
      "payable": false,
      "stateMutability": "view",
      "type": "function"
    },
    {
      "constant": false,
      "inputs": [
        {
          "name": "time",
          "type": "uint256"
        }
      ],
      "name": "setStartsAt",
      "outputs": [],
      "payable": false,
      "stateMutability": "nonpayable",
      "type": "function"
    },
    {
      "constant": false,
      "inputs": [
        {
          "name": "addr",
          "type": "address"
        },
        {
          "name": "weiAmount",
          "type": "uint256"
        }
      ],
      "name": "updateEarlyParticipantWhitelist",
      "outputs": [],
      "payable": false,
      "stateMutability": "nonpayable",
      "type": "function"
    },
    {
      "constant": true,
      "inputs": [],
      "name": "getLastTier",
      "outputs": [
        {
          "name": "",
          "type": "address"
        }
      ],
      "payable": false,
      "stateMutability": "view",
      "type": "function"
    },
    {
      "constant": true,
      "inputs": [
        {
          "name": "",
          "type": "address"
        }
      ],
      "name": "joinedCrowdsaleState",
      "outputs": [
        {
          "name": "isJoined",
          "type": "bool"
        },
        {
          "name": "position",
          "type": "uint8"
        }
      ],
      "payable": false,
      "stateMutability": "view",
      "type": "function"
    },
    {
      "constant": true,
      "inputs": [
        {
          "name": "",
          "type": "address"
        }
      ],
      "name": "earlyParticipantWhitelist",
      "outputs": [
        {
          "name": "status",
          "type": "bool"
        },
        {
          "name": "minCap",
          "type": "uint256"
        },
        {
          "name": "maxCap",
          "type": "uint256"
        }
      ],
      "payable": false,
      "stateMutability": "view",
      "type": "function"
    },
    {
      "constant": false,
      "inputs": [],
      "name": "unhalt",
      "outputs": [],
      "payable": false,
      "stateMutability": "nonpayable",
      "type": "function"
    },
    {
      "constant": false,
      "inputs": [
        {
          "name": "reservedTokensDistributionBatch",
          "type": "uint256"
        }
      ],
      "name": "distributeReservedTokens",
      "outputs": [],
      "payable": false,
      "stateMutability": "nonpayable",
      "type": "function"
    },
    {
      "constant": true,
      "inputs": [],
      "name": "isCrowdsaleFull",
      "outputs": [
        {
          "name": "",
          "type": "bool"
        }
      ],
      "payable": false,
      "stateMutability": "view",
      "type": "function"
    },
    {
      "constant": true,
      "inputs": [],
      "name": "investorCount",
      "outputs": [
        {
          "name": "",
          "type": "uint256"
        }
      ],
      "payable": false,
      "stateMutability": "view",
      "type": "function"
    },
    {
      "constant": true,
      "inputs": [
        {
          "name": "tokensSoldTotal",
          "type": "uint256"
        }
      ],
      "name": "isBreakingCap",
      "outputs": [
        {
          "name": "limitBroken",
          "type": "bool"
        }
      ],
      "payable": false,
      "stateMutability": "view",
      "type": "function"
    },
    {
      "constant": true,
      "inputs": [
        {
          "name": "",
          "type": "uint256"
        }
      ],
      "name": "whitelistedParticipants",
      "outputs": [
        {
          "name": "",
          "type": "address"
        }
      ],
      "payable": false,
      "stateMutability": "view",
      "type": "function"
    },
    {
      "constant": false,
      "inputs": [
        {
          "name": "receiver",
          "type": "address"
        },
        {
          "name": "tokenAmount",
          "type": "uint256"
        },
        {
          "name": "customerId",
          "type": "uint128"
        },
        {
          "name": "lockedTokenAmount",
          "type": "uint256"
        }
      ],
      "name": "allocate",
      "outputs": [],
      "payable": false,
      "stateMutability": "nonpayable",
      "type": "function"
    },
    {
      "constant": true,
      "inputs": [],
      "name": "joinedCrowdsalesLen",
      "outputs": [
        {
          "name": "",
          "type": "uint8"
        }
      ],
      "payable": false,
      "stateMutability": "view",
      "type": "function"
    },
    {
      "constant": true,
      "inputs": [],
      "name": "isWhiteListed",
      "outputs": [
        {
          "name": "",
          "type": "bool"
        }
      ],
      "payable": false,
      "stateMutability": "view",
      "type": "function"
    },
    {
      "constant": false,
      "inputs": [
        {
          "name": "_token",
          "type": "address"
        }
      ],
      "name": "setCrowdsaleTokenExtv1",
      "outputs": [],
      "payable": false,
      "stateMutability": "nonpayable",
      "type": "function"
    },
    {
      "constant": false,
      "inputs": [
        {
          "name": "newOwner",
          "type": "address"
        }
      ],
      "name": "transferOwnership",
      "outputs": [],
      "payable": false,
      "stateMutability": "nonpayable",
      "type": "function"
    },
    {
      "constant": false,
      "inputs": [
        {
          "name": "addr",
          "type": "address"
        }
      ],
      "name": "setMultisig",
      "outputs": [],
      "payable": false,
      "stateMutability": "nonpayable",
      "type": "function"
    },
    {
      "constant": true,
      "inputs": [],
      "name": "token",
      "outputs": [
        {
          "name": "",
          "type": "address"
        }
      ],
      "payable": false,
      "stateMutability": "view",
      "type": "function"
    },
    {
      "inputs": [
        {
          "name": "_name",
          "type": "string"
        },
        {
          "name": "_token",
          "type": "address"
        },
        {
          "name": "_pricingStrategy",
          "type": "address"
        },
        {
          "name": "_multisigWallet",
          "type": "address"
        },
        {
          "name": "_start",
          "type": "uint256"
        },
        {
          "name": "_end",
          "type": "uint256"
        },
        {
          "name": "_minimumFundingGoal",
          "type": "uint256"
        },
        {
          "name": "_maximumSellableTokens",
          "type": "uint256"
        },
        {
          "name": "_isUpdatable",
          "type": "bool"
        },
        {
          "name": "_isWhiteListed",
          "type": "bool"
        },
        {
          "name": "_tokenVestingAddress",
          "type": "address"
        },
        {
          "name": "_oldMintedTokenCappedCrowdsaleExtAddress",
          "type": "address"
        }
      ],
      "payable": false,
      "stateMutability": "nonpayable",
      "type": "constructor"
    },
    {
      "payable": true,
      "stateMutability": "payable",
      "type": "fallback"
    },
    {
      "anonymous": false,
      "inputs": [
        {
          "indexed": false,
          "name": "newMaximumSellableTokens",
          "type": "uint256"
        }
      ],
      "name": "MaximumSellableTokensChanged",
      "type": "event"
    },
    {
      "anonymous": false,
      "inputs": [
        {
          "indexed": false,
          "name": "investor",
          "type": "address"
        },
        {
          "indexed": false,
          "name": "weiAmount",
          "type": "uint256"
        },
        {
          "indexed": false,
          "name": "tokenAmount",
          "type": "uint256"
        },
        {
          "indexed": false,
          "name": "customerId",
          "type": "uint128"
        }
      ],
      "name": "Invested",
      "type": "event"
    },
    {
      "anonymous": false,
      "inputs": [
        {
          "indexed": false,
          "name": "addr",
          "type": "address"
        },
        {
          "indexed": false,
          "name": "status",
          "type": "bool"
        },
        {
          "indexed": false,
          "name": "minCap",
          "type": "uint256"
        },
        {
          "indexed": false,
          "name": "maxCap",
          "type": "uint256"
        }
      ],
      "name": "Whitelisted",
      "type": "event"
    },
    {
      "anonymous": false,
      "inputs": [
        {
          "indexed": false,
          "name": "addr",
          "type": "address"
        },
        {
          "indexed": false,
          "name": "status",
          "type": "bool"
        },
        {
          "indexed": false,
          "name": "minCap",
          "type": "uint256"
        },
        {
          "indexed": false,
          "name": "maxCap",
          "type": "uint256"
        }
      ],
      "name": "WhitelistItemChanged",
      "type": "event"
    },
    {
      "anonymous": false,
      "inputs": [
        {
          "indexed": false,
          "name": "newStartsAt",
          "type": "uint256"
        }
      ],
      "name": "StartsAtChanged",
      "type": "event"
    },
    {
      "anonymous": false,
      "inputs": [
        {
          "indexed": false,
          "name": "newEndsAt",
          "type": "uint256"
        }
      ],
      "name": "EndsAtChanged",
      "type": "event"
    },
    {
      "anonymous": false,
      "inputs": [
        {
          "indexed": false,
          "name": "addr",
          "type": "address"
        },
        {
          "indexed": false,
          "name": "state",
          "type": "bool"
        }
      ],
      "name": "AllocateAgentChanged",
      "type": "event"
    },
    {
      "anonymous": false,
      "inputs": [
        {
          "indexed": true,
          "name": "previousOwner",
          "type": "address"
        },
        {
          "indexed": true,
          "name": "newOwner",
          "type": "address"
        }
      ],
      "name": "OwnershipTransferred",
      "type": "event"
    }
  ],
  "bytecode": "0x608060405260056003556000600d556000600e556000600f556000601260006101000a81548160ff021916908360ff1602179055506032601260016101000a81548160ff021916908360ff1602179055503480156200005d57600080fd5b5060405162006e5838038062006e588339810180604052810190808051820192919060200180519060200190929190805190602001909291908051906020019092919080519060200190929190805190602001909291908051906020019092919080519060200190929190805190602001909291908051906020019092919080519060200190929190805190602001909291905050506000806000808f8f8f8f8f8f8f8f8f8f8f8a8a8a8a8a8a8a898989336000806101000a81548173ffffffffffffffffffffffffffffffffffffffff021916908373ffffffffffffffffffffffffffffffffffffffff160217905550336000806101000a81548173ffffffffffffffffffffffffffffffffffffffff021916908373ffffffffffffffffffffffffffffffffffffffff1602179055508960089080519060200190620001a6929190620010a3565b5080601060026101000a81548173ffffffffffffffffffffffffffffffffffffffff021916908373ffffffffffffffffffffffffffffffffffffffff16021790555088600460006101000a81548173ffffffffffffffffffffffffffffffffffffffff021916908373ffffffffffffffffffffffffffffffffffffffff160217905550620002438862000af5640100000000026401000000009004565b86600960006101000a81548173ffffffffffffffffffffffffffffffffffffffff021916908373ffffffffffffffffffffffffffffffffffffffff1602179055506000600960009054906101000a900473ffffffffffffffffffffffffffffffffffffffff1673ffffffffffffffffffffffffffffffffffffffff161415620002cb57600080fd5b6000861415620002da57600080fd5b85600b819055506000851415620002f057600080fd5b84600c81905550600c54600b541015156200030a57600080fd5b83600a8190555082601660006101000a81548160ff02191690831515021790555081601060016101000a81548160ff0219169083151502179055505050505050505050505083601a81905550505050505050505050505084601c60006101000a81548173ffffffffffffffffffffffffffffffffffffffff021916908373ffffffffffffffffffffffffffffffffffffffff160217905550601c60009054906101000a900473ffffffffffffffffffffffffffffffffffffffff1673ffffffffffffffffffffffffffffffffffffffff1663518ab2a86040518163ffffffff167c0100000000000000000000000000000000000000000000000000000000028152600401602060405180830381600087803b1580156200042957600080fd5b505af11580156200043e573d6000803e3d6000fd5b505050506040513d60208110156200045557600080fd5b8101908080519060200190929190505050600d81905550601c60009054906101000a900473ffffffffffffffffffffffffffffffffffffffff1673ffffffffffffffffffffffffffffffffffffffff16634042b66f6040518163ffffffff167c0100000000000000000000000000000000000000000000000000000000028152600401602060405180830381600087803b158015620004f357600080fd5b505af115801562000508573d6000803e3d6000fd5b505050506040513d60208110156200051f57600080fd5b8101908080519060200190929190505050600e81905550601c60009054906101000a900473ffffffffffffffffffffffffffffffffffffffff1673ffffffffffffffffffffffffffffffffffffffff1663d7e64c006040518163ffffffff167c0100000000000000000000000000000000000000000000000000000000028152600401602060405180830381600087803b158015620005bd57600080fd5b505af1158015620005d2573d6000803e3d6000fd5b505050506040513d6020811015620005e957600080fd5b8101908080519060200190929190505050600f81905550600093505b601c60009054906101000a900473ffffffffffffffffffffffffffffffffffffffff1673ffffffffffffffffffffffffffffffffffffffff16631a98d0de6040518163ffffffff167c0100000000000000000000000000000000000000000000000000000000028152600401602060405180830381600087803b1580156200068c57600080fd5b505af1158015620006a1573d6000803e3d6000fd5b505050506040513d6020811015620006b857600080fd5b810190808051906020019092919050505084101562000adf57601c60009054906101000a900473ffffffffffffffffffffffffffffffffffffffff1673ffffffffffffffffffffffffffffffffffffffff1663e6d04d5e856040518263ffffffff167c010000000000000000000000000000000000000000000000000000000002815260040180828152602001915050602060405180830381600087803b1580156200076357600080fd5b505af115801562000778573d6000803e3d6000fd5b505050506040513d60208110156200078f57600080fd5b8101908080519060200190929190505050925060188390806001815401808255809150509060018203906000526020600020016000909192909190916101000a81548173ffffffffffffffffffffffffffffffffffffffff021916908373ffffffffffffffffffffffffffffffffffffffff16021790555050601c60009054906101000a900473ffffffffffffffffffffffffffffffffffffffff1673ffffffffffffffffffffffffffffffffffffffff166397b150ca846040518263ffffffff167c0100000000000000000000000000000000000000000000000000000000028152600401808273ffffffffffffffffffffffffffffffffffffffff1673ffffffffffffffffffffffffffffffffffffffff168152602001915050602060405180830381600087803b158015620008c657600080fd5b505af1158015620008db573d6000803e3d6000fd5b505050506040513d6020811015620008f257600080fd5b81019080805190602001909291905050509150600082141515620009555781601560008573ffffffffffffffffffffffffffffffffffffffff1673ffffffffffffffffffffffffffffffffffffffff168152602001908152602001600020819055505b601c60009054906101000a900473ffffffffffffffffffffffffffffffffffffffff1673ffffffffffffffffffffffffffffffffffffffff16631aae3460846040518263ffffffff167c0100000000000000000000000000000000000000000000000000000000028152600401808273ffffffffffffffffffffffffffffffffffffffff1673ffffffffffffffffffffffffffffffffffffffff168152602001915050602060405180830381600087803b15801562000a1357600080fd5b505af115801562000a28573d6000803e3d6000fd5b505050506040513d602081101562000a3f57600080fd5b8101908080519060200190929190505050905060008114151562000aa25780601460008573ffffffffffffffffffffffffffffffffffffffff1673ffffffffffffffffffffffffffffffffffffffff168152602001908152602001600020819055505b62000ad1836001670de0b6b3a7640000683635c9adc5dea0000062000cfa640100000000026401000000009004565b838060010194505062000605565b5050505050505050505050505050505062001152565b6000809054906101000a900473ffffffffffffffffffffffffffffffffffffffff1673ffffffffffffffffffffffffffffffffffffffff163373ffffffffffffffffffffffffffffffffffffffff1614151562000b5157600080fd5b600073ffffffffffffffffffffffffffffffffffffffff168173ffffffffffffffffffffffffffffffffffffffff161415151562000b8b57fe5b600073ffffffffffffffffffffffffffffffffffffffff16600560009054906101000a900473ffffffffffffffffffffffffffffffffffffffff1673ffffffffffffffffffffffffffffffffffffffff1614151562000be657fe5b80600560006101000a81548173ffffffffffffffffffffffffffffffffffffffff021916908373ffffffffffffffffffffffffffffffffffffffff160217905550600560009054906101000a900473ffffffffffffffffffffffffffffffffffffffff1673ffffffffffffffffffffffffffffffffffffffff166304bbc2556040518163ffffffff167c0100000000000000000000000000000000000000000000000000000000028152600401602060405180830381600087803b15801562000cae57600080fd5b505af115801562000cc3573d6000803e3d6000fd5b505050506040513d602081101562000cda57600080fd5b8101908080519060200190929190505050151562000cf757600080fd5b50565b6000809054906101000a900473ffffffffffffffffffffffffffffffffffffffff1673ffffffffffffffffffffffffffffffffffffffff163373ffffffffffffffffffffffffffffffffffffffff1614151562000d5657600080fd5b601060019054906101000a900460ff16151562000d7257600080fd5b600073ffffffffffffffffffffffffffffffffffffffff168473ffffffffffffffffffffffffffffffffffffffff161415151562000dac57fe5b60008111151562000db957fe5b80821115151562000dc657fe5b600c54421115151562000dd557fe5b62000def8462000ffb640100000000026401000000009004565b151562000ee15760188490806001815401808255809150509060018203906000526020600020016000909192909190916101000a81548173ffffffffffffffffffffffffffffffffffffffff021916908373ffffffffffffffffffffffffffffffffffffffff160217905550507fc03e2cbfed65ba7e1df8d32da4afaccb75208d8a6b188f67800ceb19cb9d526484848484604051808573ffffffffffffffffffffffffffffffffffffffff1673ffffffffffffffffffffffffffffffffffffffff1681526020018415151515815260200183815260200182815260200194505050505060405180910390a162000f61565b7f618943c36e69f6b3bae8b5bc48231e8911852a0c844743af41be110450a2a58f84848484604051808573ffffffffffffffffffffffffffffffffffffffff1673ffffffffffffffffffffffffffffffffffffffff1681526020018415151515815260200183815260200182815260200194505050505060405180910390a15b606060405190810160405280841515815260200183815260200182815250601760008673ffffffffffffffffffffffffffffffffffffffff1673ffffffffffffffffffffffffffffffffffffffff16815260200190815260200160002060008201518160000160006101000a81548160ff021916908315150217905550602082015181600101556040820151816002015590505050505050565b600080600090505b60188054905081101562001098578273ffffffffffffffffffffffffffffffffffffffff166018828154811015156200103857fe5b9060005260206000200160009054906101000a900473ffffffffffffffffffffffffffffffffffffffff1673ffffffffffffffffffffffffffffffffffffffff1614156200108a57600191506200109d565b808060010191505062001003565b600091505b50919050565b828054600181600116156101000203166002900490600052602060002090601f016020900481019282601f10620010e657805160ff191683800117855562001117565b8280016001018555821562001117579182015b8281111562001116578251825591602001919060010190620010f9565b5b5090506200112691906200112a565b5090565b6200114f91905b808211156200114b57600081600090555060010162001131565b5090565b90565b615cf680620011626000396000f300608060405260043610610322576000357c0100000000000000000000000000000000000000000000000000000000900463ffffffff1680630226401d1461032c57806303f9c79314610357578063045b1a0c1461038d57806304fc7c6d146103f2578063062b01ce1461045857806306fdde03146104875780630a09284a146105175780630a1a8d3c146105425780630e1d2ec81461059957806313f44d10146105c857806313f4e977146106235780631865c57d1461064e57806319b667da146106875780631a98d0de146106ca5780631aae3460146106f557806321d5c0f61461074c578063253ebd92146107a357806325e0671f146107fe57806326493a6f1461082d578063278544521461087c5780632c2de40a146108d75780633ad075ea146109045780633bf7db5e1461092f5780634042b66f146109865780634551dd59146109b15780634bb278f3146109e057806350c67734146109f7578063518ab2a814610a3a5780635ed7ca5b14610a655780636203f09f14610a7c57806369ea177114610aa75780636e50eb3f14610ad457806378b99c2414610b015780637c2e08a314610b585780638507bee814610b87578063895594f614610bb85780638da5cb5b14610c1b5780639075becf14610c7257806397b150ca14610cc95780639f9f7e8d14610d20578063a6f2ae3a14610d8d578063a7ba44c314610d97578063af46868214610dc6578063af58574a14610df1578063b1cb574b14610e4e578063b3f05b9714610f7d578063b9b8af0b14610fac578063bc364d7b14610fdb578063bd71933614611032578063bede2cac14611061578063bf5fc2ee146110ce578063c12eb191146110fb578063c24becf314611148578063ca1c503b1461119f578063cb16e6d014611207578063cb3e64fd14611270578063cddaf24114611287578063d5d09021146112b4578063d7e64c00146112e3578063df2d33d51461130e578063e6d04d5e14611353578063e78bfee0146113c0578063ebdfa45514611433578063ef674e6614611464578063f282f55114611493578063f2fde38b146114d6578063f3283fba14611519578063fc0c546a1461155c575b61032a6115b3565b005b34801561033857600080fd5b506103416115be565b6040518082815260200191505060405180910390f35b61038b600480360381019080803573ffffffffffffffffffffffffffffffffffffffff1690602001909291905050506115c4565b005b34801561039957600080fd5b506103d8600480360381019080803573ffffffffffffffffffffffffffffffffffffffff169060200190929190803590602001909291905050506115d2565b604051808215151515815260200191505060405180910390f35b3480156103fe57600080fd5b506104566004803603810190808035906020019082018035906020019080806020026020016040519081016040528093929190818152602001838360200280828437820191505050505050919291929050505061172c565b005b34801561046457600080fd5b5061046d611818565b604051808215151515815260200191505060405180910390f35b34801561049357600080fd5b5061049c6118e0565b6040518080602001828103825283818151815260200191508051906020019080838360005b838110156104dc5780820151818401526020810190506104c1565b50505050905090810190601f1680156105095780820380516001836020036101000a031916815260200191505b509250505060405180910390f35b34801561052357600080fd5b5061052c61197e565b6040518082815260200191505060405180910390f35b34801561054e57600080fd5b50610557611984565b604051808273ffffffffffffffffffffffffffffffffffffffff1673ffffffffffffffffffffffffffffffffffffffff16815260200191505060405180910390f35b3480156105a557600080fd5b506105ae6119aa565b604051808215151515815260200191505060405180910390f35b3480156105d457600080fd5b50610609600480360381019080803573ffffffffffffffffffffffffffffffffffffffff1690602001909291905050506119bd565b604051808215151515815260200191505060405180910390f35b34801561062f57600080fd5b50610638611a60565b6040518082815260200191505060405180910390f35b34801561065a57600080fd5b50610663611a66565b6040518082600681111561067357fe5b60ff16815260200191505060405180910390f35b34801561069357600080fd5b506106c8600480360381019080803573ffffffffffffffffffffffffffffffffffffffff169060200190929190505050611cc6565b005b3480156106d657600080fd5b506106df611ec4565b6040518082815260200191505060405180910390f35b34801561070157600080fd5b50610736600480360381019080803573ffffffffffffffffffffffffffffffffffffffff169060200190929190505050611ed1565b6040518082815260200191505060405180910390f35b34801561075857600080fd5b50610761611ee9565b604051808273ffffffffffffffffffffffffffffffffffffffff1673ffffffffffffffffffffffffffffffffffffffff16815260200191505060405180910390f35b3480156107af57600080fd5b506107e4600480360381019080803573ffffffffffffffffffffffffffffffffffffffff169060200190929190505050611f0f565b604051808215151515815260200191505060405180910390f35b34801561080a57600080fd5b50610813611f68565b604051808215151515815260200191505060405180910390f35b34801561083957600080fd5b5061087a600480360381019080803573ffffffffffffffffffffffffffffffffffffffff169060200190929190803515159060200190929190505050612030565b005b34801561088857600080fd5b506108bd600480360381019080803573ffffffffffffffffffffffffffffffffffffffff169060200190929190505050612155565b604051808215151515815260200191505060405180910390f35b3480156108e357600080fd5b5061090260048036038101908080359060200190929190505050612175565b005b34801561091057600080fd5b50610919612307565b6040518082815260200191505060405180910390f35b34801561093b57600080fd5b5061094461230d565b604051808273ffffffffffffffffffffffffffffffffffffffff1673ffffffffffffffffffffffffffffffffffffffff16815260200191505060405180910390f35b34801561099257600080fd5b5061099b612333565b6040518082815260200191505060405180910390f35b3480156109bd57600080fd5b506109c6612339565b604051808215151515815260200191505060405180910390f35b3480156109ec57600080fd5b506109f5612342565b005b348015610a0357600080fd5b50610a38600480360381019080803573ffffffffffffffffffffffffffffffffffffffff169060200190929190505050612513565b005b348015610a4657600080fd5b50610a4f612711565b6040518082815260200191505060405180910390f35b348015610a7157600080fd5b50610a7a612717565b005b348015610a8857600080fd5b50610a9161278f565b6040518082815260200191505060405180910390f35b348015610ab357600080fd5b50610ad260048036038101908080359060200190929190505050612795565b005b348015610ae057600080fd5b50610aff60048036038101908080359060200190929190505050612990565b005b348015610b0d57600080fd5b50610b16612c69565b604051808273ffffffffffffffffffffffffffffffffffffffff1673ffffffffffffffffffffffffffffffffffffffff16815260200191505060405180910390f35b348015610b6457600080fd5b50610b6d612c8f565b604051808215151515815260200191505060405180910390f35b348015610b9357600080fd5b50610b9c612c9e565b604051808260ff1660ff16815260200191505060405180910390f35b348015610bc457600080fd5b50610c19600480360381019080803573ffffffffffffffffffffffffffffffffffffffff1690602001909291908035151590602001909291908035906020019092919080359060200190929190505050612cb1565b005b348015610c2757600080fd5b50610c30612f99565b604051808273ffffffffffffffffffffffffffffffffffffffff1673ffffffffffffffffffffffffffffffffffffffff16815260200191505060405180910390f35b348015610c7e57600080fd5b50610c87612fbe565b604051808273ffffffffffffffffffffffffffffffffffffffff1673ffffffffffffffffffffffffffffffffffffffff16815260200191505060405180910390f35b348015610cd557600080fd5b50610d0a600480360381019080803573ffffffffffffffffffffffffffffffffffffffff169060200190929190505050612fe4565b6040518082815260200191505060405180910390f35b348015610d2c57600080fd5b50610d4b60048036038101908080359060200190929190505050612ffc565b604051808273ffffffffffffffffffffffffffffffffffffffff1673ffffffffffffffffffffffffffffffffffffffff16815260200191505060405180910390f35b610d956115b3565b005b348015610da357600080fd5b50610dac61303a565b604051808215151515815260200191505060405180910390f35b348015610dd257600080fd5b50610ddb613102565b6040518082815260200191505060405180910390f35b348015610dfd57600080fd5b50610e32600480360381019080803573ffffffffffffffffffffffffffffffffffffffff169060200190929190505050613108565b604051808260ff1660ff16815260200191505060405180910390f35b348015610e5a57600080fd5b50610f7b60048036038101908080359060200190820180359060200190808060200260200160405190810160405280939291908181526020018383602002808284378201915050505050509192919290803590602001908201803590602001908080602002602001604051908101604052809392919081815260200183836020028082843782019150505050505091929192908035906020019082018035906020019080806020026020016040519081016040528093929190818152602001838360200280828437820191505050505050919291929080359060200190820180359060200190808060200260200160405190810160405280939291908181526020018383602002808284378201915050505050509192919290505050613161565b005b348015610f8957600080fd5b50610f92613298565b604051808215151515815260200191505060405180910390f35b348015610fb857600080fd5b50610fc16132ab565b604051808215151515815260200191505060405180910390f35b348015610fe757600080fd5b50610ff06132be565b604051808273ffffffffffffffffffffffffffffffffffffffff1673ffffffffffffffffffffffffffffffffffffffff16815260200191505060405180910390f35b34801561103e57600080fd5b506110476132e4565b604051808215151515815260200191505060405180910390f35b34801561106d57600080fd5b5061108c600480360381019080803590602001909291905050506135b8565b604051808273ffffffffffffffffffffffffffffffffffffffff1673ffffffffffffffffffffffffffffffffffffffff16815260200191505060405180910390f35b3480156110da57600080fd5b506110f9600480360381019080803590602001909291905050506135f6565b005b34801561110757600080fd5b50611146600480360381019080803573ffffffffffffffffffffffffffffffffffffffff169060200190929190803590602001909291905050506138be565b005b34801561115457600080fd5b5061115d613bad565b604051808273ffffffffffffffffffffffffffffffffffffffff1673ffffffffffffffffffffffffffffffffffffffff16815260200191505060405180910390f35b3480156111ab57600080fd5b506111e0600480360381019080803573ffffffffffffffffffffffffffffffffffffffff169060200190929190505050613c27565b60405180831515151581526020018260ff1660ff1681526020019250505060405180910390f35b34801561121357600080fd5b50611248600480360381019080803573ffffffffffffffffffffffffffffffffffffffff169060200190929190505050613c65565b6040518084151515158152602001838152602001828152602001935050505060405180910390f35b34801561127c57600080fd5b50611285613c9c565b005b34801561129357600080fd5b506112b260048036038101908080359060200190929190505050613d2f565b005b3480156112c057600080fd5b506112c9613ef1565b604051808215151515815260200191505060405180910390f35b3480156112ef57600080fd5b506112f8613f00565b6040518082815260200191505060405180910390f35b34801561131a57600080fd5b5061133960048036038101908080359060200190929190505050613f06565b604051808215151515815260200191505060405180910390f35b34801561135f57600080fd5b5061137e60048036038101908080359060200190929190505050613f14565b604051808273ffffffffffffffffffffffffffffffffffffffff1673ffffffffffffffffffffffffffffffffffffffff16815260200191505060405180910390f35b3480156113cc57600080fd5b50611431600480360381019080803573ffffffffffffffffffffffffffffffffffffffff1690602001909291908035906020019092919080356fffffffffffffffffffffffffffffffff16906020019092919080359060200190929190505050613f52565b005b34801561143f57600080fd5b50611448614934565b604051808260ff1660ff16815260200191505060405180910390f35b34801561147057600080fd5b50611479614947565b604051808215151515815260200191505060405180910390f35b34801561149f57600080fd5b506114d4600480360381019080803573ffffffffffffffffffffffffffffffffffffffff16906020019092919050505061495a565b005b3480156114e257600080fd5b50611517600480360381019080803573ffffffffffffffffffffffffffffffffffffffff169060200190929190505050614b60565b005b34801561152557600080fd5b5061155a600480360381019080803573ffffffffffffffffffffffffffffffffffffffff169060200190929190505050614cb5565b005b34801561156857600080fd5b50611571614d65565b604051808273ffffffffffffffffffffffffffffffffffffffff1673ffffffffffffffffffffffffffffffffffffffff16815260200191505060405180910390f35b6115bc336115c4565b565b60195481565b6115cf816000614d8b565b50565b600080601060019054906101000a900460ff1615156115ed57fe5b601760008573ffffffffffffffffffffffffffffffffffffffff1673ffffffffffffffffffffffffffffffffffffffff16815260200190815260200160002060020154905080601460008673ffffffffffffffffffffffffffffffffffffffff1673ffffffffffffffffffffffffffffffffffffffff1681526020019081526020016000205473__SafeMathLibExt________________________6366098d4f9091866040518363ffffffff167c0100000000000000000000000000000000000000000000000000000000028152600401808381526020018281526020019250505060206040518083038186803b1580156116e757600080fd5b505af41580156116fb573d6000803e3d6000fd5b505050506040513d602081101561171157600080fd5b81019080805190602001909291905050501191505092915050565b60008060009054906101000a900473ffffffffffffffffffffffffffffffffffffffff1673ffffffffffffffffffffffffffffffffffffffff163373ffffffffffffffffffffffffffffffffffffffff1614151561178957600080fd5b6000825111151561179657fe5b6000601260009054906101000a900460ff1660ff161415156117b457fe5b601260019054906101000a900460ff1660ff168251111515156117d357fe5b600090505b81518160ff16101561181457611807828260ff168151811015156117f857fe5b906020019060200201516157ce565b80806001019150506117d8565b5050565b6000600560009054906101000a900473ffffffffffffffffffffffffffffffffffffffff1673ffffffffffffffffffffffffffffffffffffffff166382771c8e6040518163ffffffff167c0100000000000000000000000000000000000000000000000000000000028152600401602060405180830381600087803b1580156118a057600080fd5b505af11580156118b4573d6000803e3d6000fd5b505050506040513d60208110156118ca57600080fd5b8101908080519060200190929190505050905090565b60088054600181600116156101000203166002900480601f0160208091040260200160405190810160405280929190818152602001828054600181600116156101000203166002900480156119765780601f1061194b57610100808354040283529160200191611976565b820191906000526020600020905b81548152906001019060200180831161195957829003601f168201915b505050505081565b600c5481565b600760009054906101000a900473ffffffffffffffffffffffffffffffffffffffff1681565b601660009054906101000a900460ff1681565b600080600090505b601880549050811015611a55578273ffffffffffffffffffffffffffffffffffffffff166018828154811015156119f857fe5b9060005260206000200160009054906101000a900473ffffffffffffffffffffffffffffffffffffffff1673ffffffffffffffffffffffffffffffffffffffff161415611a485760019150611a5a565b80806001019150506119c5565b600091505b50919050565b600a5481565b6000601060009054906101000a900460ff1615611a865760069050611cc3565b6000600660009054906101000a900473ffffffffffffffffffffffffffffffffffffffff1673ffffffffffffffffffffffffffffffffffffffff161415611ad05760019050611cc3565b600660009054906101000a900473ffffffffffffffffffffffffffffffffffffffff1673ffffffffffffffffffffffffffffffffffffffff166382771c8e6040518163ffffffff167c0100000000000000000000000000000000000000000000000000000000028152600401602060405180830381600087803b158015611b5657600080fd5b505af1158015611b6a573d6000803e3d6000fd5b505050506040513d6020811015611b8057600080fd5b81019080805190602001909291905050501515611ba05760019050611cc3565b600560009054906101000a900473ffffffffffffffffffffffffffffffffffffffff1673ffffffffffffffffffffffffffffffffffffffff166382771c8e6040518163ffffffff167c0100000000000000000000000000000000000000000000000000000000028152600401602060405180830381600087803b158015611c2657600080fd5b505af1158015611c3a573d6000803e3d6000fd5b505050506040513d6020811015611c5057600080fd5b81019080805190602001909291905050501515611c705760019050611cc3565b600b54421015611c835760029050611cc3565b600c544211158015611c9a5750611c98613ef1565b155b15611ca85760039050611cc3565b611cb0612c8f565b15611cbe5760049050611cc3565b600590505b90565b6000809054906101000a900473ffffffffffffffffffffffffffffffffffffffff1673ffffffffffffffffffffffffffffffffffffffff163373ffffffffffffffffffffffffffffffffffffffff16141515611d2157600080fd5b600073ffffffffffffffffffffffffffffffffffffffff168173ffffffffffffffffffffffffffffffffffffffff1614151515611d5a57fe5b600073ffffffffffffffffffffffffffffffffffffffff16600660009054906101000a900473ffffffffffffffffffffffffffffffffffffffff1673ffffffffffffffffffffffffffffffffffffffff16141515611db457fe5b80600660006101000a81548173ffffffffffffffffffffffffffffffffffffffff021916908373ffffffffffffffffffffffffffffffffffffffff160217905550600660009054906101000a900473ffffffffffffffffffffffffffffffffffffffff1673ffffffffffffffffffffffffffffffffffffffff1663614cb9046040518163ffffffff167c0100000000000000000000000000000000000000000000000000000000028152600401602060405180830381600087803b158015611e7b57600080fd5b505af1158015611e8f573d6000803e3d6000fd5b505050506040513d6020811015611ea557600080fd5b81019080805190602001909291905050501515611ec157600080fd5b50565b6000601880549050905090565b60146020528060005260406000206000915090505481565b600660009054906101000a900473ffffffffffffffffffffffffffffffffffffffff1681565b6000601360008373ffffffffffffffffffffffffffffffffffffffff1673ffffffffffffffffffffffffffffffffffffffff16815260200190815260200160002060000160009054906101000a900460ff169050919050565b6000600660009054906101000a900473ffffffffffffffffffffffffffffffffffffffff1673ffffffffffffffffffffffffffffffffffffffff1663f9cb6d7a6040518163ffffffff167c0100000000000000000000000000000000000000000000000000000000028152600401602060405180830381600087803b158015611ff057600080fd5b505af1158015612004573d6000803e3d6000fd5b505050506040513d602081101561201a57600080fd5b8101908080519060200190929190505050905090565b6000809054906101000a900473ffffffffffffffffffffffffffffffffffffffff1673ffffffffffffffffffffffffffffffffffffffff163373ffffffffffffffffffffffffffffffffffffffff1614151561208b57600080fd5b80600160008473ffffffffffffffffffffffffffffffffffffffff1673ffffffffffffffffffffffffffffffffffffffff16815260200190815260200160002060006101000a81548160ff0219169083151502179055507fd31c153c670f6edcc54d96847d19c2beb8433d1fdf456144ecc246eb6bf533438282604051808373ffffffffffffffffffffffffffffffffffffffff1673ffffffffffffffffffffffffffffffffffffffff168152602001821515151581526020019250505060405180910390a15050565b60016020528060005260406000206000915054906101000a900460ff1681565b60008060009054906101000a900473ffffffffffffffffffffffffffffffffffffffff1673ffffffffffffffffffffffffffffffffffffffff163373ffffffffffffffffffffffffffffffffffffffff161415156121d257600080fd5b601060009054906101000a900460ff161515156121eb57fe5b601660009054906101000a900460ff16151561220357fe5b600b54421115151561221157fe5b612219613bad565b90508073ffffffffffffffffffffffffffffffffffffffff1663b3f05b976040518163ffffffff167c0100000000000000000000000000000000000000000000000000000000028152600401602060405180830381600087803b15801561227f57600080fd5b505af1158015612293573d6000803e3d6000fd5b505050506040513d60208110156122a957600080fd5b81019080805190602001909291905050501515156122c357fe5b81601a819055507f7df545c7a1df0d2a1ba979e94124b026facab86a15ed46b6b4a732d995f9e182601a546040518082815260200191505060405180910390a15050565b601a5481565b601c60009054906101000a900473ffffffffffffffffffffffffffffffffffffffff1681565b600e5481565b60006001905090565b600480600681111561235057fe5b612358611a66565b600681111561236357fe5b14151561236f57600080fd5b6000809054906101000a900473ffffffffffffffffffffffffffffffffffffffff1673ffffffffffffffffffffffffffffffffffffffff163373ffffffffffffffffffffffffffffffffffffffff161415156123ca57600080fd5b600260009054906101000a900460ff16156123e457600080fd5b601060009054906101000a900460ff16156123fe57600080fd5b600073ffffffffffffffffffffffffffffffffffffffff16600660009054906101000a900473ffffffffffffffffffffffffffffffffffffffff1673ffffffffffffffffffffffffffffffffffffffff161415156124f557600660009054906101000a900473ffffffffffffffffffffffffffffffffffffffff1673ffffffffffffffffffffffffffffffffffffffff16630bf318a36040518163ffffffff167c0100000000000000000000000000000000000000000000000000000000028152600401600060405180830381600087803b1580156124dc57600080fd5b505af11580156124f0573d6000803e3d6000fd5b505050505b6001601060006101000a81548160ff02191690831515021790555050565b6000809054906101000a900473ffffffffffffffffffffffffffffffffffffffff1673ffffffffffffffffffffffffffffffffffffffff163373ffffffffffffffffffffffffffffffffffffffff1614151561256e57600080fd5b600073ffffffffffffffffffffffffffffffffffffffff168173ffffffffffffffffffffffffffffffffffffffff16141515156125a757fe5b600073ffffffffffffffffffffffffffffffffffffffff16600560009054906101000a900473ffffffffffffffffffffffffffffffffffffffff1673ffffffffffffffffffffffffffffffffffffffff1614151561260157fe5b80600560006101000a81548173ffffffffffffffffffffffffffffffffffffffff021916908373ffffffffffffffffffffffffffffffffffffffff160217905550600560009054906101000a900473ffffffffffffffffffffffffffffffffffffffff1673ffffffffffffffffffffffffffffffffffffffff166304bbc2556040518163ffffffff167c0100000000000000000000000000000000000000000000000000000000028152600401602060405180830381600087803b1580156126c857600080fd5b505af11580156126dc573d6000803e3d6000fd5b505050506040513d60208110156126f257600080fd5b8101908080519060200190929190505050151561270e57600080fd5b50565b600d5481565b6000809054906101000a900473ffffffffffffffffffffffffffffffffffffffff1673ffffffffffffffffffffffffffffffffffffffff163373ffffffffffffffffffffffffffffffffffffffff1614151561277257600080fd5b6001600260006101000a81548160ff021916908315150217905550565b60035481565b60008060009054906101000a900473ffffffffffffffffffffffffffffffffffffffff1673ffffffffffffffffffffffffffffffffffffffff163373ffffffffffffffffffffffffffffffffffffffff161415156127f257600080fd5b601060009054906101000a900460ff1615151561280b57fe5b601660009054906101000a900460ff16151561282357fe5b600b54421115151561283157fe5b612839613bad565b90508073ffffffffffffffffffffffffffffffffffffffff1663b3f05b976040518163ffffffff167c0100000000000000000000000000000000000000000000000000000000028152600401602060405180830381600087803b15801561289f57600080fd5b505af11580156128b3573d6000803e3d6000fd5b505050506040513d60208110156128c957600080fd5b81019080805190602001909291905050501515156128e357fe5b600560009054906101000a900473ffffffffffffffffffffffffffffffffffffffff1673ffffffffffffffffffffffffffffffffffffffff166369ea1771836040518263ffffffff167c010000000000000000000000000000000000000000000000000000000002815260040180828152602001915050600060405180830381600087803b15801561297457600080fd5b505af1158015612988573d6000803e3d6000fd5b505050505050565b6000806000806000809054906101000a900473ffffffffffffffffffffffffffffffffffffffff1673ffffffffffffffffffffffffffffffffffffffff163373ffffffffffffffffffffffffffffffffffffffff161415156129f157600080fd5b601060009054906101000a900460ff16151515612a0a57fe5b601660009054906101000a900460ff161515612a2257fe5b844211151515612a2e57fe5b84600b5411151515612a3c57fe5b600c544211151515612a4a57fe5b612a52613bad565b93508373ffffffffffffffffffffffffffffffffffffffff1663b3f05b976040518163ffffffff167c0100000000000000000000000000000000000000000000000000000000028152600401602060405180830381600087803b158015612ab857600080fd5b505af1158015612acc573d6000803e3d6000fd5b505050506040513d6020811015612ae257600080fd5b810190808051906020019092919050505015612afd57600080fd5b612b0630613108565b92506001830191505b601260009054906101000a900460ff1660ff168260ff161015612c225760118260ff16815481101515612b3e57fe5b9060005260206000200160009054906101000a900473ffffffffffffffffffffffffffffffffffffffff1690508073ffffffffffffffffffffffffffffffffffffffff1663af4686826040518163ffffffff167c0100000000000000000000000000000000000000000000000000000000028152600401602060405180830381600087803b158015612bcf57600080fd5b505af1158015612be3573d6000803e3d6000fd5b505050506040513d6020811015612bf957600080fd5b81019080805190602001909291905050508511151515612c1557fe5b8180600101925050612b0f565b84600c819055507fd34bb772c4ae9baa99db852f622773b31c7827e8ee818449fef20d30980bd310600c546040518082815260200191505060405180910390a15050505050565b600560009054906101000a900473ffffffffffffffffffffffffffffffffffffffff1681565b6000600a54600e541015905090565b601260019054906101000a900460ff1681565b6000809054906101000a900473ffffffffffffffffffffffffffffffffffffffff1673ffffffffffffffffffffffffffffffffffffffff163373ffffffffffffffffffffffffffffffffffffffff16141515612d0c57600080fd5b601060019054906101000a900460ff161515612d2757600080fd5b600073ffffffffffffffffffffffffffffffffffffffff168473ffffffffffffffffffffffffffffffffffffffff1614151515612d6057fe5b600081111515612d6c57fe5b808211151515612d7857fe5b600c544211151515612d8657fe5b612d8f846119bd565b1515612e7f5760188490806001815401808255809150509060018203906000526020600020016000909192909190916101000a81548173ffffffffffffffffffffffffffffffffffffffff021916908373ffffffffffffffffffffffffffffffffffffffff160217905550507fc03e2cbfed65ba7e1df8d32da4afaccb75208d8a6b188f67800ceb19cb9d526484848484604051808573ffffffffffffffffffffffffffffffffffffffff1673ffffffffffffffffffffffffffffffffffffffff1681526020018415151515815260200183815260200182815260200194505050505060405180910390a1612eff565b7f618943c36e69f6b3bae8b5bc48231e8911852a0c844743af41be110450a2a58f84848484604051808573ffffffffffffffffffffffffffffffffffffffff1673ffffffffffffffffffffffffffffffffffffffff1681526020018415151515815260200183815260200182815260200194505050505060405180910390a15b606060405190810160405280841515815260200183815260200182815250601760008673ffffffffffffffffffffffffffffffffffffffff1673ffffffffffffffffffffffffffffffffffffffff16815260200190815260200160002060008201518160000160006101000a81548160ff021916908315150217905550602082015181600101556040820151816002015590505050505050565b6000809054906101000a900473ffffffffffffffffffffffffffffffffffffffff1681565b600960009054906101000a900473ffffffffffffffffffffffffffffffffffffffff1681565b60156020528060005260406000206000915090505481565b601b8181548110151561300b57fe5b906000526020600020016000915054906101000a900473ffffffffffffffffffffffffffffffffffffffff1681565b6000600660009054906101000a900473ffffffffffffffffffffffffffffffffffffffff1673ffffffffffffffffffffffffffffffffffffffff166382771c8e6040518163ffffffff167c0100000000000000000000000000000000000000000000000000000000028152600401602060405180830381600087803b1580156130c257600080fd5b505af11580156130d6573d6000803e3d6000fd5b505050506040513d60208110156130ec57600080fd5b8101908080519060200190929190505050905090565b600b5481565b6000601360008373ffffffffffffffffffffffffffffffffffffffff1673ffffffffffffffffffffffffffffffffffffffff16815260200190815260200160002060000160019054906101000a900460ff169050919050565b60008060009054906101000a900473ffffffffffffffffffffffffffffffffffffffff1673ffffffffffffffffffffffffffffffffffffffff163373ffffffffffffffffffffffffffffffffffffffff161415156131be57600080fd5b601060019054906101000a900460ff1615156131d957600080fd5b600c5442111515156131e757fe5b835185511415156131f457fe5b8251845114151561320157fe5b8151835114151561320e57fe5b600090505b845181101561329157613284858281518110151561322d57fe5b90602001906020020151858381518110151561324557fe5b90602001906020020151858481518110151561325d57fe5b90602001906020020151858581518110151561327557fe5b90602001906020020151612cb1565b8080600101915050613213565b5050505050565b601060009054906101000a900460ff1681565b600260009054906101000a900460ff1681565b601060029054906101000a900473ffffffffffffffffffffffffffffffffffffffff1681565b6000806132ef613bad565b9050600460068111156132fe57fe5b8173ffffffffffffffffffffffffffffffffffffffff16631865c57d6040518163ffffffff167c0100000000000000000000000000000000000000000000000000000000028152600401602060405180830381600087803b15801561336257600080fd5b505af1158015613376573d6000803e3d6000fd5b505050506040513d602081101561338c57600080fd5b810190808051906020019092919050505060068111156133a857fe5b14801561345157508073ffffffffffffffffffffffffffffffffffffffff1663b9b8af0b6040518163ffffffff167c0100000000000000000000000000000000000000000000000000000000028152600401602060405180830381600087803b15801561341457600080fd5b505af1158015613428573d6000803e3d6000fd5b505050506040513d602081101561343e57600080fd5b8101908080519060200190929190505050155b80156134f957508073ffffffffffffffffffffffffffffffffffffffff1663b3f05b976040518163ffffffff167c0100000000000000000000000000000000000000000000000000000000028152600401602060405180830381600087803b1580156134bc57600080fd5b505af11580156134d0573d6000803e3d6000fd5b505050506040513d60208110156134e657600080fd5b8101908080519060200190929190505050155b80156135a157508073ffffffffffffffffffffffffffffffffffffffff166325e0671f6040518163ffffffff167c0100000000000000000000000000000000000000000000000000000000028152600401602060405180830381600087803b15801561356457600080fd5b505af1158015613578573d6000803e3d6000fd5b505050506040513d602081101561358e57600080fd5b8101908080519060200190929190505050155b156135af57600191506135b4565b600091505b5090565b6011818154811015156135c757fe5b906000526020600020016000915054906101000a900473ffffffffffffffffffffffffffffffffffffffff1681565b6000806000806000809054906101000a900473ffffffffffffffffffffffffffffffffffffffff1673ffffffffffffffffffffffffffffffffffffffff163373ffffffffffffffffffffffffffffffffffffffff1614151561365757600080fd5b601060009054906101000a900460ff1615151561367057fe5b601660009054906101000a900460ff16151561368857fe5b84421115151561369457fe5b600c5485111515156136a257fe5b600b5442111515156136b057fe5b6136b8613bad565b93508373ffffffffffffffffffffffffffffffffffffffff1663b3f05b976040518163ffffffff167c0100000000000000000000000000000000000000000000000000000000028152600401602060405180830381600087803b15801561371e57600080fd5b505af1158015613732573d6000803e3d6000fd5b505050506040513d602081101561374857600080fd5b81019080805190602001909291905050501561376357600080fd5b61376c30613108565b9250600091505b8260ff168260ff1610156138775760118260ff1681548110151561379357fe5b9060005260206000200160009054906101000a900473ffffffffffffffffffffffffffffffffffffffff1690508073ffffffffffffffffffffffffffffffffffffffff16630a09284a6040518163ffffffff167c0100000000000000000000000000000000000000000000000000000000028152600401602060405180830381600087803b15801561382457600080fd5b505af1158015613838573d6000803e3d6000fd5b505050506040513d602081101561384e57600080fd5b8101908080519060200190929190505050851015151561386a57fe5b8180600101925050613773565b84600b819055507fa3f2a813a039e5195c620dabcd490267a9aa5a50e4e1383bc474e9b800f7defe600b546040518082815260200191505060405180910390a15050505050565b6000601060019054906101000a900460ff1615156138db57600080fd5b600073ffffffffffffffffffffffffffffffffffffffff168373ffffffffffffffffffffffffffffffffffffffff161415151561391457fe5b600c54421115151561392257fe5b61392b33611f0f565b151561393357fe5b601760008473ffffffffffffffffffffffffffffffffffffffff1673ffffffffffffffffffffffffffffffffffffffff16815260200190815260200160002060010154821080156139c357506000601560008573ffffffffffffffffffffffffffffffffffffffff1673ffffffffffffffffffffffffffffffffffffffff16815260200190815260200160002054145b156139cd57600080fd5b601760008473ffffffffffffffffffffffffffffffffffffffff1673ffffffffffffffffffffffffffffffffffffffff1681526020019081526020016000206002015490508073__SafeMathLibExt________________________63f4f3bdc19091846040518363ffffffff167c0100000000000000000000000000000000000000000000000000000000028152600401808381526020018281526020019250505060206040518083038186803b158015613a8757600080fd5b505af4158015613a9b573d6000803e3d6000fd5b505050506040513d6020811015613ab157600080fd5b81019080805190602001909291905050509050606060405190810160405280601760008673ffffffffffffffffffffffffffffffffffffffff1673ffffffffffffffffffffffffffffffffffffffff16815260200190815260200160002060000160009054906101000a900460ff16151581526020016000815260200182815250601760008573ffffffffffffffffffffffffffffffffffffffff1673ffffffffffffffffffffffffffffffffffffffff16815260200190815260200160002060008201518160000160006101000a81548160ff0219169083151502179055506020820151816001015560408201518160020155905050505050565b600080601260009054906101000a900460ff1660ff161115613c1f5760116001601260009054906101000a900460ff160360ff16815481101515613bed57fe5b9060005260206000200160009054906101000a900473ffffffffffffffffffffffffffffffffffffffff169050613c24565b600090505b90565b60136020528060005260406000206000915090508060000160009054906101000a900460ff16908060000160019054906101000a900460ff16905082565b60176020528060005260406000206000915090508060000160009054906101000a900460ff16908060010154908060020154905083565b6000809054906101000a900473ffffffffffffffffffffffffffffffffffffffff1673ffffffffffffffffffffffffffffffffffffffff163373ffffffffffffffffffffffffffffffffffffffff16141515613cf757600080fd5b600260009054906101000a900460ff161515613d1257600080fd5b6000600260006101000a81548160ff021916908315150217905550565b6004806006811115613d3d57fe5b613d45611a66565b6006811115613d5057fe5b141515613d5c57600080fd5b6000809054906101000a900473ffffffffffffffffffffffffffffffffffffffff1673ffffffffffffffffffffffffffffffffffffffff163373ffffffffffffffffffffffffffffffffffffffff16141515613db757600080fd5b600260009054906101000a900460ff1615613dd157600080fd5b601060009054906101000a900460ff1615613deb57600080fd5b600073ffffffffffffffffffffffffffffffffffffffff16600660009054906101000a900473ffffffffffffffffffffffffffffffffffffffff1673ffffffffffffffffffffffffffffffffffffffff16141515613eed57600660009054906101000a900473ffffffffffffffffffffffffffffffffffffffff1673ffffffffffffffffffffffffffffffffffffffff1663cddaf241836040518263ffffffff167c010000000000000000000000000000000000000000000000000000000002815260040180828152602001915050600060405180830381600087803b158015613ed457600080fd5b505af1158015613ee8573d6000803e3d6000fd5b505050505b5050565b6000601a54600d541015905090565b600f5481565b6000601a5482119050919050565b601881815481101515613f2357fe5b906000526020600020016000915054906101000a900473ffffffffffffffffffffffffffffffffffffffff1681565b600080600160003373ffffffffffffffffffffffffffffffffffffffff1673ffffffffffffffffffffffffffffffffffffffff16815260200190815260200160002060009054906101000a900460ff161515613fad57600080fd5b848311151515613fbc57600080fd5b600560009054906101000a900473ffffffffffffffffffffffffffffffffffffffff1673ffffffffffffffffffffffffffffffffffffffff16638e68f000600d54600460009054906101000a900473ffffffffffffffffffffffffffffffffffffffff1673ffffffffffffffffffffffffffffffffffffffff1663313ce5676040518163ffffffff167c0100000000000000000000000000000000000000000000000000000000028152600401602060405180830381600087803b15801561408357600080fd5b505af1158015614097573d6000803e3d6000fd5b505050506040513d60208110156140ad57600080fd5b81019080805190602001909291905050506040518363ffffffff167c01000000000000000000000000000000000000000000000000000000000281526004018083815260200182815260200192505050602060405180830381600087803b15801561411757600080fd5b505af115801561412b573d6000803e3d6000fd5b505050506040513d602081101561414157600080fd5b81019080805190602001909291905050509150600460009054906101000a900473ffffffffffffffffffffffffffffffffffffffff1673ffffffffffffffffffffffffffffffffffffffff1663313ce5676040518163ffffffff167c0100000000000000000000000000000000000000000000000000000000028152600401602060405180830381600087803b1580156141da57600080fd5b505af11580156141ee573d6000803e3d6000fd5b505050506040513d602081101561420457600080fd5b8101908080519060200190929190505050600a0a85830281151561422457fe5b049050600e5473__SafeMathLibExt________________________6366098d4f9091836040518363ffffffff167c0100000000000000000000000000000000000000000000000000000000028152600401808381526020018281526020019250505060206040518083038186803b15801561429e57600080fd5b505af41580156142b2573d6000803e3d6000fd5b505050506040513d60208110156142c857600080fd5b8101908080519060200190929190505050600e81905550600d5473__SafeMathLibExt________________________6366098d4f9091876040518363ffffffff167c0100000000000000000000000000000000000000000000000000000000028152600401808381526020018281526020019250505060206040518083038186803b15801561435657600080fd5b505af415801561436a573d6000803e3d6000fd5b505050506040513d602081101561438057600080fd5b8101908080519060200190929190505050600d81905550601460008773ffffffffffffffffffffffffffffffffffffffff1673ffffffffffffffffffffffffffffffffffffffff1681526020019081526020016000205473__SafeMathLibExt________________________6366098d4f9091836040518363ffffffff167c0100000000000000000000000000000000000000000000000000000000028152600401808381526020018281526020019250505060206040518083038186803b15801561444b57600080fd5b505af415801561445f573d6000803e3d6000fd5b505050506040513d602081101561447557600080fd5b8101908080519060200190929190505050601460008873ffffffffffffffffffffffffffffffffffffffff1673ffffffffffffffffffffffffffffffffffffffff16815260200190815260200160002081905550601560008773ffffffffffffffffffffffffffffffffffffffff1673ffffffffffffffffffffffffffffffffffffffff1681526020019081526020016000205473__SafeMathLibExt________________________6366098d4f9091876040518363ffffffff167c0100000000000000000000000000000000000000000000000000000000028152600401808381526020018281526020019250505060206040518083038186803b15801561457d57600080fd5b505af4158015614591573d6000803e3d6000fd5b505050506040513d60208110156145a757600080fd5b8101908080519060200190929190505050601560008873ffffffffffffffffffffffffffffffffffffffff1673ffffffffffffffffffffffffffffffffffffffff16815260200190815260200160002081905550600083111561487557601060029054906101000a900473ffffffffffffffffffffffffffffffffffffffff16600760006101000a81548173ffffffffffffffffffffffffffffffffffffffff021916908373ffffffffffffffffffffffffffffffffffffffff160217905550600760009054906101000a900473ffffffffffffffffffffffffffffffffffffffff1673ffffffffffffffffffffffffffffffffffffffff1663cf462616876040518263ffffffff167c0100000000000000000000000000000000000000000000000000000000028152600401808273ffffffffffffffffffffffffffffffffffffffff1673ffffffffffffffffffffffffffffffffffffffff168152602001915050602060405180830381600087803b15801561472457600080fd5b505af1158015614738573d6000803e3d6000fd5b505050506040513d602081101561474e57600080fd5b810190808051906020019092919050505015151561476b57600080fd5b614797601060029054906101000a900473ffffffffffffffffffffffffffffffffffffffff16846159ec565b600760009054906101000a900473ffffffffffffffffffffffffffffffffffffffff1673ffffffffffffffffffffffffffffffffffffffff16636cd8015d87856040518363ffffffff167c0100000000000000000000000000000000000000000000000000000000028152600401808373ffffffffffffffffffffffffffffffffffffffff1673ffffffffffffffffffffffffffffffffffffffff16815260200182815260200192505050600060405180830381600087803b15801561485c57600080fd5b505af1158015614870573d6000803e3d6000fd5b505050505b6000838603111561488d5761488c868487036159ec565b5b7f0396f60aaad038749091d273dc13aaabc63db6e2271c7bad442d5cf25cc4335086828787604051808573ffffffffffffffffffffffffffffffffffffffff1673ffffffffffffffffffffffffffffffffffffffff168152602001848152602001838152602001826fffffffffffffffffffffffffffffffff166fffffffffffffffffffffffffffffffff16815260200194505050505060405180910390a1505050505050565b601260009054906101000a900460ff1681565b601060019054906101000a900460ff1681565b6000809054906101000a900473ffffffffffffffffffffffffffffffffffffffff1673ffffffffffffffffffffffffffffffffffffffff163373ffffffffffffffffffffffffffffffffffffffff161415156149b557600080fd5b600073ffffffffffffffffffffffffffffffffffffffff168173ffffffffffffffffffffffffffffffffffffffff16141515156149ee57fe5b80600460006101000a81548173ffffffffffffffffffffffffffffffffffffffff021916908373ffffffffffffffffffffffffffffffffffffffff160217905550600073ffffffffffffffffffffffffffffffffffffffff16600660009054906101000a900473ffffffffffffffffffffffffffffffffffffffff1673ffffffffffffffffffffffffffffffffffffffff16141515614b5d57600660009054906101000a900473ffffffffffffffffffffffffffffffffffffffff1673ffffffffffffffffffffffffffffffffffffffff1663f282f551826040518263ffffffff167c0100000000000000000000000000000000000000000000000000000000028152600401808273ffffffffffffffffffffffffffffffffffffffff1673ffffffffffffffffffffffffffffffffffffffff168152602001915050600060405180830381600087803b158015614b4457600080fd5b505af1158015614b58573d6000803e3d6000fd5b505050505b50565b6000809054906101000a900473ffffffffffffffffffffffffffffffffffffffff1673ffffffffffffffffffffffffffffffffffffffff163373ffffffffffffffffffffffffffffffffffffffff16141515614bbb57600080fd5b600073ffffffffffffffffffffffffffffffffffffffff168173ffffffffffffffffffffffffffffffffffffffff1614151515614bf757600080fd5b8073ffffffffffffffffffffffffffffffffffffffff166000809054906101000a900473ffffffffffffffffffffffffffffffffffffffff1673ffffffffffffffffffffffffffffffffffffffff167f8be0079c531659141344cd1fd0a4f28419497f9722a3daafe3b4186f6b6457e060405160405180910390a3806000806101000a81548173ffffffffffffffffffffffffffffffffffffffff021916908373ffffffffffffffffffffffffffffffffffffffff16021790555050565b6000809054906101000a900473ffffffffffffffffffffffffffffffffffffffff1673ffffffffffffffffffffffffffffffffffffffff163373ffffffffffffffffffffffffffffffffffffffff16141515614d1057600080fd5b600354600f541115614d2157600080fd5b80600960006101000a81548173ffffffffffffffffffffffffffffffffffffffff021916908373ffffffffffffffffffffffffffffffffffffffff16021790555050565b600460009054906101000a900473ffffffffffffffffffffffffffffffffffffffff1681565b600080600260009054906101000a900460ff1615614da857600080fd5b60026006811115614db557fe5b614dbd611a66565b6006811115614dc857fe5b1415614dd357600080fd5b60036006811115614de057fe5b614de8611a66565b6006811115614df357fe5b1415614ed857601060019054906101000a900460ff1615614ed357601760008573ffffffffffffffffffffffffffffffffffffffff1673ffffffffffffffffffffffffffffffffffffffff16815260200190815260200160002060000160009054906101000a900460ff161515614ed2576040517f08c379a00000000000000000000000000000000000000000000000000000000081526004018080602001828103825260148152602001807f4e6f742057686974656c6973746564205573657200000000000000000000000081525060200191505060405180910390fd5b5b614edd565b600080fd5b349150600560009054906101000a900473ffffffffffffffffffffffffffffffffffffffff1673ffffffffffffffffffffffffffffffffffffffff1663e015c62a83600d54600460009054906101000a900473ffffffffffffffffffffffffffffffffffffffff1673ffffffffffffffffffffffffffffffffffffffff1663313ce5676040518163ffffffff167c0100000000000000000000000000000000000000000000000000000000028152600401602060405180830381600087803b158015614fa857600080fd5b505af1158015614fbc573d6000803e3d6000fd5b505050506040513d6020811015614fd257600080fd5b81019080805190602001909291905050506040518463ffffffff167c0100000000000000000000000000000000000000000000000000000000028152600401808481526020018381526020018281526020019350505050602060405180830381600087803b15801561504357600080fd5b505af1158015615057573d6000803e3d6000fd5b505050506040513d602081101561506d57600080fd5b81019080805190602001909291905050509050600081141561508e57600080fd5b601060019054906101000a900460ff161561516057601760008573ffffffffffffffffffffffffffffffffffffffff1673ffffffffffffffffffffffffffffffffffffffff168152602001908152602001600020600101548210801561513357506000601560008673ffffffffffffffffffffffffffffffffffffffff1673ffffffffffffffffffffffffffffffffffffffff16815260200190815260200160002054145b1561513d57600080fd5b61514784836115d2565b1561515157600080fd5b61515b8483615ad3565b615279565b600460009054906101000a900473ffffffffffffffffffffffffffffffffffffffff1673ffffffffffffffffffffffffffffffffffffffff16633fa615b06040518163ffffffff167c0100000000000000000000000000000000000000000000000000000000028152600401602060405180830381600087803b1580156151e657600080fd5b505af11580156151fa573d6000803e3d6000fd5b505050506040513d602081101561521057600080fd5b81019080805190602001909291905050508210801561526e57506000601560008673ffffffffffffffffffffffffffffffffffffffff1673ffffffffffffffffffffffffffffffffffffffff16815260200190815260200160002054145b1561527857600080fd5b5b6000601460008673ffffffffffffffffffffffffffffffffffffffff1673ffffffffffffffffffffffffffffffffffffffff1681526020019081526020016000205414156152d457600f600081548092919060010191905055505b601460008573ffffffffffffffffffffffffffffffffffffffff1673ffffffffffffffffffffffffffffffffffffffff1681526020019081526020016000205473__SafeMathLibExt________________________6366098d4f9091846040518363ffffffff167c0100000000000000000000000000000000000000000000000000000000028152600401808381526020018281526020019250505060206040518083038186803b15801561538857600080fd5b505af415801561539c573d6000803e3d6000fd5b505050506040513d60208110156153b257600080fd5b8101908080519060200190929190505050601460008673ffffffffffffffffffffffffffffffffffffffff1673ffffffffffffffffffffffffffffffffffffffff16815260200190815260200160002081905550601560008573ffffffffffffffffffffffffffffffffffffffff1673ffffffffffffffffffffffffffffffffffffffff1681526020019081526020016000205473__SafeMathLibExt________________________6366098d4f9091836040518363ffffffff167c0100000000000000000000000000000000000000000000000000000000028152600401808381526020018281526020019250505060206040518083038186803b1580156154ba57600080fd5b505af41580156154ce573d6000803e3d6000fd5b505050506040513d60208110156154e457600080fd5b8101908080519060200190929190505050601560008673ffffffffffffffffffffffffffffffffffffffff1673ffffffffffffffffffffffffffffffffffffffff16815260200190815260200160002081905550600e5473__SafeMathLibExt________________________6366098d4f9091846040518363ffffffff167c0100000000000000000000000000000000000000000000000000000000028152600401808381526020018281526020019250505060206040518083038186803b1580156155af57600080fd5b505af41580156155c3573d6000803e3d6000fd5b505050506040513d60208110156155d957600080fd5b8101908080519060200190929190505050600e81905550600d5473__SafeMathLibExt________________________6366098d4f9091836040518363ffffffff167c0100000000000000000000000000000000000000000000000000000000028152600401808381526020018281526020019250505060206040518083038186803b15801561566757600080fd5b505af415801561567b573d6000803e3d6000fd5b505050506040513d602081101561569157600080fd5b8101908080519060200190929190505050600d819055506156b3600d54613f06565b156156bd57600080fd5b6156c784826159ec565b600960009054906101000a900473ffffffffffffffffffffffffffffffffffffffff1673ffffffffffffffffffffffffffffffffffffffff166108fc839081150290604051600060405180830381858888f19350505050151561572957600080fd5b7f0396f60aaad038749091d273dc13aaabc63db6e2271c7bad442d5cf25cc4335084838386604051808573ffffffffffffffffffffffffffffffffffffffff1673ffffffffffffffffffffffffffffffffffffffff168152602001848152602001838152602001826fffffffffffffffffffffffffffffffff166fffffffffffffffffffffffffffffffff16815260200194505050505060405180910390a150505050565b6000809054906101000a900473ffffffffffffffffffffffffffffffffffffffff1673ffffffffffffffffffffffffffffffffffffffff163373ffffffffffffffffffffffffffffffffffffffff1614151561582957600080fd5b600073ffffffffffffffffffffffffffffffffffffffff168173ffffffffffffffffffffffffffffffffffffffff161415151561586257fe5b601260019054906101000a900460ff1660ff16601260009054906101000a900460ff1660ff161115151561589257fe5b61589b81611f0f565b1515156158a457fe5b60118190806001815401808255809150509060018203906000526020600020016000909192909190916101000a81548173ffffffffffffffffffffffffffffffffffffffff021916908373ffffffffffffffffffffffffffffffffffffffff160217905550506040805190810160405280600115158152602001601260009054906101000a900460ff1660ff16815250601360008373ffffffffffffffffffffffffffffffffffffffff1673ffffffffffffffffffffffffffffffffffffffff16815260200190815260200160002060008201518160000160006101000a81548160ff02191690831515021790555060208201518160000160016101000a81548160ff021916908360ff1602179055509050506012600081819054906101000a900460ff168092919060010191906101000a81548160ff021916908360ff1602179055505050565b6000600460009054906101000a900473ffffffffffffffffffffffffffffffffffffffff1690508073ffffffffffffffffffffffffffffffffffffffff166340c10f1984846040518363ffffffff167c0100000000000000000000000000000000000000000000000000000000028152600401808373ffffffffffffffffffffffffffffffffffffffff1673ffffffffffffffffffffffffffffffffffffffff16815260200182815260200192505050600060405180830381600087803b158015615ab657600080fd5b505af1158015615aca573d6000803e3d6000fd5b50505050505050565b6000806000601060019054906101000a900460ff161515615af357600080fd5b601760008673ffffffffffffffffffffffffffffffffffffffff1673ffffffffffffffffffffffffffffffffffffffff1681526020019081526020016000206001015484108015615b8357506000601560008773ffffffffffffffffffffffffffffffffffffffff1673ffffffffffffffffffffffffffffffffffffffff16815260200190815260200160002054145b15615b8d57600080fd5b615b9630613108565b92506001830191505b601260009054906101000a900460ff1660ff168260ff161015615cc35760118260ff16815481101515615bce57fe5b9060005260206000200160009054906101000a900473ffffffffffffffffffffffffffffffffffffffff1690508073ffffffffffffffffffffffffffffffffffffffff1663c12eb19186866040518363ffffffff167c0100000000000000000000000000000000000000000000000000000000028152600401808373ffffffffffffffffffffffffffffffffffffffff1673ffffffffffffffffffffffffffffffffffffffff16815260200182815260200192505050600060405180830381600087803b158015615c9e57600080fd5b505af1158015615cb2573d6000803e3d6000fd5b505050508180600101925050615b9f565b50505050505600a165627a7a72305820402e1a5789ba0ac69ccaee963e8de3a769311ce362abb0a0a370e3771b6856a80029",
  "source": "/**\r\n * This smart contract code is Copyright 2017 TokenMarket Ltd. For more information see https://tokenmarket.net\r\n *\r\n * Licensed under the Apache License, version 2.0: https://github.com/TokenMarketNet/ico/blob/master/LICENSE.txt\r\n */\r\n\r\npragma solidity 0.4.24;\r\n\r\nimport \"./MintedTokenCappedCrowdsaleExt.sol\";\r\n\r\n\r\n/**\r\n * ICO crowdsale contract that is capped by amout of tokens.\r\n *\r\n * - Tokens are dynamically created during the crowdsale\r\n *\r\n *\r\n */\r\ncontract MintedTokenCappedCrowdsaleExtv1 is MintedTokenCappedCrowdsaleExt {\r\n\r\n    address[] public investedAmountOfAddresses;\r\n    MintedTokenCappedCrowdsaleExt public mintedTokenCappedCrowdsaleExt;\r\n\r\n    constructor(\r\n        string _name,\r\n        address _token,\r\n        PricingStrategy _pricingStrategy,\r\n        address _multisigWallet,\r\n        uint _start, uint _end,\r\n        uint _minimumFundingGoal,\r\n        uint _maximumSellableTokens,\r\n        bool _isUpdatable,\r\n        bool _isWhiteListed,\r\n        address _tokenVestingAddress,\r\n        MintedTokenCappedCrowdsaleExt _oldMintedTokenCappedCrowdsaleExtAddress\r\n    ) public MintedTokenCappedCrowdsaleExt(_name, _token, _pricingStrategy, _multisigWallet, _start, _end,\r\n    _minimumFundingGoal, _maximumSellableTokens, _isUpdatable, _isWhiteListed, _tokenVestingAddress) {\r\n        \r\n        mintedTokenCappedCrowdsaleExt = _oldMintedTokenCappedCrowdsaleExtAddress;\r\n        tokensSold = mintedTokenCappedCrowdsaleExt.tokensSold();\r\n        weiRaised = mintedTokenCappedCrowdsaleExt.weiRaised();\r\n        investorCount = mintedTokenCappedCrowdsaleExt.investorCount();        \r\n\r\n        \r\n        for (uint i = 0; i < mintedTokenCappedCrowdsaleExt.whitelistedParticipantsLength(); i++) {\r\n            address whitelistAddress = mintedTokenCappedCrowdsaleExt.whitelistedParticipants(i);\r\n\r\n            whitelistedParticipants.push(whitelistAddress);\r\n\r\n            uint256 tokenAmount = mintedTokenCappedCrowdsaleExt.tokenAmountOf(whitelistAddress);\r\n            if (tokenAmount != 0){               \r\n                tokenAmountOf[whitelistAddress] = tokenAmount;               \r\n            }\r\n\r\n            uint256 investedAmount = mintedTokenCappedCrowdsaleExt.investedAmountOf(whitelistAddress);\r\n            if (investedAmount != 0){\r\n                investedAmountOf[whitelistAddress] = investedAmount;               \r\n            }\r\n\r\n            setEarlyParticipantWhitelist(whitelistAddress, true, 1000000000000000000, 1000000000000000000000);\r\n        }\r\n    }\r\n    \r\n}\r\n",
  "sourcePath": "D:\\Utix Workspace\\UtixTokenSmartContract\\contracts\\MintedTokenCappedCrowdsaleExtv1.sol",
  "compiler": {
    "name": "solc",
    "version": "0.4.24+commit.e67f0147.Emscripten.clang"
  },
  "schemaVersion": "2.0.1",
  "updatedAt": "2018-09-18T13:44:26.838Z"
}