{
  "contractName": "MintedTokenCappedCrowdsaleExt",
  "abi": [
    {
      "constant": true,
      "inputs": [],
      "name": "ownerTestValue",
      "outputs": [
        {
          "name": "",
          "type": "uint256"
        }
      ],
      "payable": false,
      "stateMutability": "view",
      "type": "function"
    },
    {
      "constant": false,
      "inputs": [
        {
          "name": "addr",
          "type": "address"
        }
      ],
      "name": "invest",
      "outputs": [],
      "payable": true,
      "stateMutability": "payable",
      "type": "function"
    },
    {
      "constant": false,
      "inputs": [
        {
          "name": "addrs",
          "type": "address[]"
        }
      ],
      "name": "updateJoinedCrowdsalesMultiple",
      "outputs": [],
      "payable": false,
      "stateMutability": "nonpayable",
      "type": "function"
    },
    {
      "constant": true,
      "inputs": [],
      "name": "isPricingSane",
      "outputs": [
        {
          "name": "sane",
          "type": "bool"
        }
      ],
      "payable": false,
      "stateMutability": "view",
      "type": "function"
    },
    {
      "constant": true,
      "inputs": [],
      "name": "name",
      "outputs": [
        {
          "name": "",
          "type": "string"
        }
      ],
      "payable": false,
      "stateMutability": "view",
      "type": "function"
    },
    {
      "constant": true,
      "inputs": [],
      "name": "endsAt",
      "outputs": [
        {
          "name": "",
          "type": "uint256"
        }
      ],
      "payable": false,
      "stateMutability": "view",
      "type": "function"
    },
    {
      "constant": true,
      "inputs": [],
      "name": "tokenVesting",
      "outputs": [
        {
          "name": "",
          "type": "address"
        }
      ],
      "payable": false,
      "stateMutability": "view",
      "type": "function"
    },
    {
      "constant": true,
      "inputs": [],
      "name": "isUpdatable",
      "outputs": [
        {
          "name": "",
          "type": "bool"
        }
      ],
      "payable": false,
      "stateMutability": "view",
      "type": "function"
    },
    {
      "constant": true,
      "inputs": [
        {
          "name": "addr",
          "type": "address"
        }
      ],
      "name": "isAddressWhitelisted",
      "outputs": [
        {
          "name": "",
          "type": "bool"
        }
      ],
      "payable": false,
      "stateMutability": "view",
      "type": "function"
    },
    {
      "constant": true,
      "inputs": [],
      "name": "minimumFundingGoal",
      "outputs": [
        {
          "name": "",
          "type": "uint256"
        }
      ],
      "payable": false,
      "stateMutability": "view",
      "type": "function"
    },
    {
      "constant": true,
      "inputs": [],
      "name": "getState",
      "outputs": [
        {
          "name": "",
          "type": "uint8"
        }
      ],
      "payable": false,
      "stateMutability": "view",
      "type": "function"
    },
    {
      "constant": false,
      "inputs": [
        {
          "name": "addr",
          "type": "address"
        }
      ],
      "name": "setFinalizeAgent",
      "outputs": [],
      "payable": false,
      "stateMutability": "nonpayable",
      "type": "function"
    },
    {
      "constant": true,
      "inputs": [],
      "name": "whitelistedParticipantsLength",
      "outputs": [
        {
          "name": "",
          "type": "uint256"
        }
      ],
      "payable": false,
      "stateMutability": "view",
      "type": "function"
    },
    {
      "constant": true,
      "inputs": [
        {
          "name": "",
          "type": "address"
        }
      ],
      "name": "investedAmountOf",
      "outputs": [
        {
          "name": "",
          "type": "uint256"
        }
      ],
      "payable": false,
      "stateMutability": "view",
      "type": "function"
    },
    {
      "constant": true,
      "inputs": [],
      "name": "finalizeAgent",
      "outputs": [
        {
          "name": "",
          "type": "address"
        }
      ],
      "payable": false,
      "stateMutability": "view",
      "type": "function"
    },
    {
      "constant": true,
      "inputs": [
        {
          "name": "addr",
          "type": "address"
        }
      ],
      "name": "isTierJoined",
      "outputs": [
        {
          "name": "",
          "type": "bool"
        }
      ],
      "payable": false,
      "stateMutability": "view",
      "type": "function"
    },
    {
      "constant": true,
      "inputs": [],
      "name": "areReservedTokensDistributed",
      "outputs": [
        {
          "name": "",
          "type": "bool"
        }
      ],
      "payable": false,
      "stateMutability": "view",
      "type": "function"
    },
    {
      "constant": false,
      "inputs": [
        {
          "name": "addr",
          "type": "address"
        },
        {
          "name": "state",
          "type": "bool"
        }
      ],
      "name": "setAllocateAgent",
      "outputs": [],
      "payable": false,
      "stateMutability": "nonpayable",
      "type": "function"
    },
    {
      "constant": true,
      "inputs": [
        {
          "name": "",
          "type": "address"
        }
      ],
      "name": "allocateAgents",
      "outputs": [
        {
          "name": "",
          "type": "bool"
        }
      ],
      "payable": false,
      "stateMutability": "view",
      "type": "function"
    },
    {
      "constant": true,
      "inputs": [],
      "name": "maximumSellableTokens",
      "outputs": [
        {
          "name": "",
          "type": "uint256"
        }
      ],
      "payable": false,
      "stateMutability": "view",
      "type": "function"
    },
    {
      "constant": true,
      "inputs": [],
      "name": "weiRaised",
      "outputs": [
        {
          "name": "",
          "type": "uint256"
        }
      ],
      "payable": false,
      "stateMutability": "view",
      "type": "function"
    },
    {
      "constant": true,
      "inputs": [],
      "name": "isCrowdsale",
      "outputs": [
        {
          "name": "",
          "type": "bool"
        }
      ],
      "payable": false,
      "stateMutability": "pure",
      "type": "function"
    },
    {
      "constant": false,
      "inputs": [],
      "name": "finalize",
      "outputs": [],
      "payable": false,
      "stateMutability": "nonpayable",
      "type": "function"
    },
    {
      "constant": false,
      "inputs": [
        {
          "name": "_pricingStrategy",
          "type": "address"
        }
      ],
      "name": "setPricingStrategy",
      "outputs": [],
      "payable": false,
      "stateMutability": "nonpayable",
      "type": "function"
    },
    {
      "constant": true,
      "inputs": [],
      "name": "tokensSold",
      "outputs": [
        {
          "name": "",
          "type": "uint256"
        }
      ],
      "payable": false,
      "stateMutability": "view",
      "type": "function"
    },
    {
      "constant": false,
      "inputs": [],
      "name": "halt",
      "outputs": [],
      "payable": false,
      "stateMutability": "nonpayable",
      "type": "function"
    },
    {
      "constant": true,
      "inputs": [],
      "name": "MAX_INVESTMENTS_BEFORE_MULTISIG_CHANGE",
      "outputs": [
        {
          "name": "",
          "type": "uint256"
        }
      ],
      "payable": false,
      "stateMutability": "view",
      "type": "function"
    },
    {
      "constant": false,
      "inputs": [
        {
          "name": "time",
          "type": "uint256"
        }
      ],
      "name": "setEndsAt",
      "outputs": [],
      "payable": false,
      "stateMutability": "nonpayable",
      "type": "function"
    },
    {
      "constant": true,
      "inputs": [],
      "name": "pricingStrategy",
      "outputs": [
        {
          "name": "",
          "type": "address"
        }
      ],
      "payable": false,
      "stateMutability": "view",
      "type": "function"
    },
    {
      "constant": true,
      "inputs": [],
      "name": "isMinimumGoalReached",
      "outputs": [
        {
          "name": "reached",
          "type": "bool"
        }
      ],
      "payable": false,
      "stateMutability": "view",
      "type": "function"
    },
    {
      "constant": true,
      "inputs": [],
      "name": "joinedCrowdsalesLenMax",
      "outputs": [
        {
          "name": "",
          "type": "uint8"
        }
      ],
      "payable": false,
      "stateMutability": "view",
      "type": "function"
    },
    {
      "constant": false,
      "inputs": [
        {
          "name": "addr",
          "type": "address"
        },
        {
          "name": "status",
          "type": "bool"
        },
        {
          "name": "minCap",
          "type": "uint256"
        },
        {
          "name": "maxCap",
          "type": "uint256"
        }
      ],
      "name": "setEarlyParticipantWhitelist",
      "outputs": [],
      "payable": false,
      "stateMutability": "nonpayable",
      "type": "function"
    },
    {
      "constant": true,
      "inputs": [],
      "name": "owner",
      "outputs": [
        {
          "name": "",
          "type": "address"
        }
      ],
      "payable": false,
      "stateMutability": "view",
      "type": "function"
    },
    {
      "constant": true,
      "inputs": [],
      "name": "multisigWallet",
      "outputs": [
        {
          "name": "",
          "type": "address"
        }
      ],
      "payable": false,
      "stateMutability": "view",
      "type": "function"
    },
    {
      "constant": true,
      "inputs": [
        {
          "name": "",
          "type": "address"
        }
      ],
      "name": "tokenAmountOf",
      "outputs": [
        {
          "name": "",
          "type": "uint256"
        }
      ],
      "payable": false,
      "stateMutability": "view",
      "type": "function"
    },
    {
      "constant": false,
      "inputs": [],
      "name": "buy",
      "outputs": [],
      "payable": true,
      "stateMutability": "payable",
      "type": "function"
    },
    {
      "constant": true,
      "inputs": [],
      "name": "isFinalizerSane",
      "outputs": [
        {
          "name": "sane",
          "type": "bool"
        }
      ],
      "payable": false,
      "stateMutability": "view",
      "type": "function"
    },
    {
      "constant": true,
      "inputs": [],
      "name": "startsAt",
      "outputs": [
        {
          "name": "",
          "type": "uint256"
        }
      ],
      "payable": false,
      "stateMutability": "view",
      "type": "function"
    },
    {
      "constant": true,
      "inputs": [
        {
          "name": "addr",
          "type": "address"
        }
      ],
      "name": "getTierPosition",
      "outputs": [
        {
          "name": "",
          "type": "uint8"
        }
      ],
      "payable": false,
      "stateMutability": "view",
      "type": "function"
    },
    {
      "constant": false,
      "inputs": [
        {
          "name": "addrs",
          "type": "address[]"
        },
        {
          "name": "statuses",
          "type": "bool[]"
        },
        {
          "name": "minCaps",
          "type": "uint256[]"
        },
        {
          "name": "maxCaps",
          "type": "uint256[]"
        }
      ],
      "name": "setEarlyParticipantWhitelistMultiple",
      "outputs": [],
      "payable": false,
      "stateMutability": "nonpayable",
      "type": "function"
    },
    {
      "constant": true,
      "inputs": [],
      "name": "finalized",
      "outputs": [
        {
          "name": "",
          "type": "bool"
        }
      ],
      "payable": false,
      "stateMutability": "view",
      "type": "function"
    },
    {
      "constant": true,
      "inputs": [],
      "name": "halted",
      "outputs": [
        {
          "name": "",
          "type": "bool"
        }
      ],
      "payable": false,
      "stateMutability": "view",
      "type": "function"
    },
    {
      "constant": true,
      "inputs": [],
      "name": "tokenVestingAddress",
      "outputs": [
        {
          "name": "",
          "type": "address"
        }
      ],
      "payable": false,
      "stateMutability": "view",
      "type": "function"
    },
    {
      "constant": true,
      "inputs": [],
      "name": "canDistributeReservedTokens",
      "outputs": [
        {
          "name": "",
          "type": "bool"
        }
      ],
      "payable": false,
      "stateMutability": "view",
      "type": "function"
    },
    {
      "constant": true,
      "inputs": [
        {
          "name": "",
          "type": "uint256"
        }
      ],
      "name": "joinedCrowdsales",
      "outputs": [
        {
          "name": "",
          "type": "address"
        }
      ],
      "payable": false,
      "stateMutability": "view",
      "type": "function"
    },
    {
      "constant": false,
      "inputs": [
        {
          "name": "time",
          "type": "uint256"
        }
      ],
      "name": "setStartsAt",
      "outputs": [],
      "payable": false,
      "stateMutability": "nonpayable",
      "type": "function"
    },
    {
      "constant": false,
      "inputs": [
        {
          "name": "addr",
          "type": "address"
        },
        {
          "name": "weiAmount",
          "type": "uint256"
        }
      ],
      "name": "updateEarlyParticipantWhitelist",
      "outputs": [],
      "payable": false,
      "stateMutability": "nonpayable",
      "type": "function"
    },
    {
      "constant": true,
      "inputs": [],
      "name": "getLastTier",
      "outputs": [
        {
          "name": "",
          "type": "address"
        }
      ],
      "payable": false,
      "stateMutability": "view",
      "type": "function"
    },
    {
      "constant": true,
      "inputs": [
        {
          "name": "",
          "type": "address"
        }
      ],
      "name": "joinedCrowdsaleState",
      "outputs": [
        {
          "name": "isJoined",
          "type": "bool"
        },
        {
          "name": "position",
          "type": "uint8"
        }
      ],
      "payable": false,
      "stateMutability": "view",
      "type": "function"
    },
    {
      "constant": true,
      "inputs": [
        {
          "name": "",
          "type": "address"
        }
      ],
      "name": "earlyParticipantWhitelist",
      "outputs": [
        {
          "name": "status",
          "type": "bool"
        },
        {
          "name": "minCap",
          "type": "uint256"
        },
        {
          "name": "maxCap",
          "type": "uint256"
        }
      ],
      "payable": false,
      "stateMutability": "view",
      "type": "function"
    },
    {
      "constant": false,
      "inputs": [],
      "name": "unhalt",
      "outputs": [],
      "payable": false,
      "stateMutability": "nonpayable",
      "type": "function"
    },
    {
      "constant": false,
      "inputs": [
        {
          "name": "reservedTokensDistributionBatch",
          "type": "uint256"
        }
      ],
      "name": "distributeReservedTokens",
      "outputs": [],
      "payable": false,
      "stateMutability": "nonpayable",
      "type": "function"
    },
    {
      "constant": true,
      "inputs": [],
      "name": "investorCount",
      "outputs": [
        {
          "name": "",
          "type": "uint256"
        }
      ],
      "payable": false,
      "stateMutability": "view",
      "type": "function"
    },
    {
      "constant": true,
      "inputs": [
        {
          "name": "",
          "type": "uint256"
        }
      ],
      "name": "whitelistedParticipants",
      "outputs": [
        {
          "name": "",
          "type": "address"
        }
      ],
      "payable": false,
      "stateMutability": "view",
      "type": "function"
    },
    {
      "constant": false,
      "inputs": [
        {
          "name": "receiver",
          "type": "address"
        },
        {
          "name": "tokenAmount",
          "type": "uint256"
        },
        {
          "name": "customerId",
          "type": "uint128"
        },
        {
          "name": "lockedTokenAmount",
          "type": "uint256"
        }
      ],
      "name": "allocate",
      "outputs": [],
      "payable": false,
      "stateMutability": "nonpayable",
      "type": "function"
    },
    {
      "constant": true,
      "inputs": [],
      "name": "joinedCrowdsalesLen",
      "outputs": [
        {
          "name": "",
          "type": "uint8"
        }
      ],
      "payable": false,
      "stateMutability": "view",
      "type": "function"
    },
    {
      "constant": true,
      "inputs": [],
      "name": "isWhiteListed",
      "outputs": [
        {
          "name": "",
          "type": "bool"
        }
      ],
      "payable": false,
      "stateMutability": "view",
      "type": "function"
    },
    {
      "constant": false,
      "inputs": [
        {
          "name": "_token",
          "type": "address"
        }
      ],
      "name": "setCrowdsaleTokenExtv1",
      "outputs": [],
      "payable": false,
      "stateMutability": "nonpayable",
      "type": "function"
    },
    {
      "constant": false,
      "inputs": [
        {
          "name": "newOwner",
          "type": "address"
        }
      ],
      "name": "transferOwnership",
      "outputs": [],
      "payable": false,
      "stateMutability": "nonpayable",
      "type": "function"
    },
    {
      "constant": false,
      "inputs": [
        {
          "name": "addr",
          "type": "address"
        }
      ],
      "name": "setMultisig",
      "outputs": [],
      "payable": false,
      "stateMutability": "nonpayable",
      "type": "function"
    },
    {
      "constant": true,
      "inputs": [],
      "name": "token",
      "outputs": [
        {
          "name": "",
          "type": "address"
        }
      ],
      "payable": false,
      "stateMutability": "view",
      "type": "function"
    },
    {
      "inputs": [
        {
          "name": "_name",
          "type": "string"
        },
        {
          "name": "_token",
          "type": "address"
        },
        {
          "name": "_pricingStrategy",
          "type": "address"
        },
        {
          "name": "_multisigWallet",
          "type": "address"
        },
        {
          "name": "_start",
          "type": "uint256"
        },
        {
          "name": "_end",
          "type": "uint256"
        },
        {
          "name": "_minimumFundingGoal",
          "type": "uint256"
        },
        {
          "name": "_maximumSellableTokens",
          "type": "uint256"
        },
        {
          "name": "_isUpdatable",
          "type": "bool"
        },
        {
          "name": "_isWhiteListed",
          "type": "bool"
        },
        {
          "name": "_tokenVestingAddress",
          "type": "address"
        }
      ],
      "payable": false,
      "stateMutability": "nonpayable",
      "type": "constructor"
    },
    {
      "payable": true,
      "stateMutability": "payable",
      "type": "fallback"
    },
    {
      "anonymous": false,
      "inputs": [
        {
          "indexed": false,
          "name": "newMaximumSellableTokens",
          "type": "uint256"
        }
      ],
      "name": "MaximumSellableTokensChanged",
      "type": "event"
    },
    {
      "anonymous": false,
      "inputs": [
        {
          "indexed": false,
          "name": "investor",
          "type": "address"
        },
        {
          "indexed": false,
          "name": "weiAmount",
          "type": "uint256"
        },
        {
          "indexed": false,
          "name": "tokenAmount",
          "type": "uint256"
        },
        {
          "indexed": false,
          "name": "customerId",
          "type": "uint128"
        }
      ],
      "name": "Invested",
      "type": "event"
    },
    {
      "anonymous": false,
      "inputs": [
        {
          "indexed": false,
          "name": "addr",
          "type": "address"
        },
        {
          "indexed": false,
          "name": "status",
          "type": "bool"
        },
        {
          "indexed": false,
          "name": "minCap",
          "type": "uint256"
        },
        {
          "indexed": false,
          "name": "maxCap",
          "type": "uint256"
        }
      ],
      "name": "Whitelisted",
      "type": "event"
    },
    {
      "anonymous": false,
      "inputs": [
        {
          "indexed": false,
          "name": "addr",
          "type": "address"
        },
        {
          "indexed": false,
          "name": "status",
          "type": "bool"
        },
        {
          "indexed": false,
          "name": "minCap",
          "type": "uint256"
        },
        {
          "indexed": false,
          "name": "maxCap",
          "type": "uint256"
        }
      ],
      "name": "WhitelistItemChanged",
      "type": "event"
    },
    {
      "anonymous": false,
      "inputs": [
        {
          "indexed": false,
          "name": "newStartsAt",
          "type": "uint256"
        }
      ],
      "name": "StartsAtChanged",
      "type": "event"
    },
    {
      "anonymous": false,
      "inputs": [
        {
          "indexed": false,
          "name": "newEndsAt",
          "type": "uint256"
        }
      ],
      "name": "EndsAtChanged",
      "type": "event"
    },
    {
      "anonymous": false,
      "inputs": [
        {
          "indexed": false,
          "name": "addr",
          "type": "address"
        },
        {
          "indexed": false,
          "name": "state",
          "type": "bool"
        }
      ],
      "name": "AllocateAgentChanged",
      "type": "event"
    },
    {
      "anonymous": false,
      "inputs": [
        {
          "indexed": true,
          "name": "previousOwner",
          "type": "address"
        },
        {
          "indexed": true,
          "name": "newOwner",
          "type": "address"
        }
      ],
      "name": "OwnershipTransferred",
      "type": "event"
    },
    {
      "constant": true,
      "inputs": [
        {
          "name": "tokensSoldTotal",
          "type": "uint256"
        }
      ],
      "name": "isBreakingCap",
      "outputs": [
        {
          "name": "limitBroken",
          "type": "bool"
        }
      ],
      "payable": false,
      "stateMutability": "view",
      "type": "function"
    },
    {
      "constant": true,
      "inputs": [
        {
          "name": "addr",
          "type": "address"
        },
        {
          "name": "weiAmount",
          "type": "uint256"
        }
      ],
      "name": "isBreakingInvestorCap",
      "outputs": [
        {
          "name": "limitBroken",
          "type": "bool"
        }
      ],
      "payable": false,
      "stateMutability": "view",
      "type": "function"
    },
    {
      "constant": true,
      "inputs": [],
      "name": "isCrowdsaleFull",
      "outputs": [
        {
          "name": "",
          "type": "bool"
        }
      ],
      "payable": false,
      "stateMutability": "view",
      "type": "function"
    },
    {
      "constant": false,
      "inputs": [
        {
          "name": "tokens",
          "type": "uint256"
        }
      ],
      "name": "setMaximumSellableTokens",
      "outputs": [],
      "payable": false,
      "stateMutability": "nonpayable",
      "type": "function"
    },
    {
      "constant": false,
      "inputs": [
        {
          "name": "oneTokenInCents",
          "type": "uint256"
        }
      ],
      "name": "updateRate",
      "outputs": [],
      "payable": false,
      "stateMutability": "nonpayable",
      "type": "function"
    }
  ],
  "bytecode": "0x608060405260056003556000600d556000600e556000600f556000601260006101000a81548160ff021916908360ff1602179055506032601260016101000a81548160ff021916908360ff1602179055503480156200005d57600080fd5b50604051620061c8380380620061c883398101806040528101908080518201929190602001805190602001909291908051906020019092919080519060200190929190805190602001909291908051906020019092919080519060200190929190805190602001909291908051906020019092919080519060200190929190805190602001909291905050508a8a8a8a8a8a8a898989336000806101000a81548173ffffffffffffffffffffffffffffffffffffffff021916908373ffffffffffffffffffffffffffffffffffffffff160217905550336000806101000a81548173ffffffffffffffffffffffffffffffffffffffff021916908373ffffffffffffffffffffffffffffffffffffffff16021790555089600890805190602001906200018b92919062000551565b5080601060026101000a81548173ffffffffffffffffffffffffffffffffffffffff021916908373ffffffffffffffffffffffffffffffffffffffff16021790555088600460006101000a81548173ffffffffffffffffffffffffffffffffffffffff021916908373ffffffffffffffffffffffffffffffffffffffff16021790555062000228886200034c640100000000026401000000009004565b86600960006101000a81548173ffffffffffffffffffffffffffffffffffffffff021916908373ffffffffffffffffffffffffffffffffffffffff1602179055506000600960009054906101000a900473ffffffffffffffffffffffffffffffffffffffff1673ffffffffffffffffffffffffffffffffffffffff161415620002b057600080fd5b6000861415620002bf57600080fd5b85600b819055506000851415620002d557600080fd5b84600c81905550600c54600b54101515620002ef57600080fd5b83600a8190555082601660006101000a81548160ff02191690831515021790555081601060016101000a81548160ff0219169083151502179055505050505050505050505083601a81905550505050505050505050505062000600565b6000809054906101000a900473ffffffffffffffffffffffffffffffffffffffff1673ffffffffffffffffffffffffffffffffffffffff163373ffffffffffffffffffffffffffffffffffffffff16141515620003a857600080fd5b600073ffffffffffffffffffffffffffffffffffffffff168173ffffffffffffffffffffffffffffffffffffffff1614151515620003e257fe5b600073ffffffffffffffffffffffffffffffffffffffff16600560009054906101000a900473ffffffffffffffffffffffffffffffffffffffff1673ffffffffffffffffffffffffffffffffffffffff161415156200043d57fe5b80600560006101000a81548173ffffffffffffffffffffffffffffffffffffffff021916908373ffffffffffffffffffffffffffffffffffffffff160217905550600560009054906101000a900473ffffffffffffffffffffffffffffffffffffffff1673ffffffffffffffffffffffffffffffffffffffff166304bbc2556040518163ffffffff167c0100000000000000000000000000000000000000000000000000000000028152600401602060405180830381600087803b1580156200050557600080fd5b505af11580156200051a573d6000803e3d6000fd5b505050506040513d60208110156200053157600080fd5b810190808051906020019092919050505015156200054e57600080fd5b50565b828054600181600116156101000203166002900490600052602060002090601f016020900481019282601f106200059457805160ff1916838001178555620005c5565b82800160010185558215620005c5579182015b82811115620005c4578251825591602001919060010190620005a7565b5b509050620005d49190620005d8565b5090565b620005fd91905b80821115620005f9576000816000905550600101620005df565b5090565b90565b615bb880620006106000396000f30060806040526004361061030c576000357c0100000000000000000000000000000000000000000000000000000000900463ffffffff1680630226401d1461031657806303f9c79314610341578063045b1a0c1461037757806304fc7c6d146103dc578063062b01ce1461044257806306fdde03146104715780630a09284a146105015780630a1a8d3c1461052c5780630e1d2ec81461058357806313f44d10146105b257806313f4e9771461060d5780631865c57d1461063857806319b667da146106715780631a98d0de146106b45780631aae3460146106df57806321d5c0f614610736578063253ebd921461078d57806325e0671f146107e857806326493a6f1461081757806327854452146108665780632c2de40a146108c15780633ad075ea146108ee5780634042b66f146109195780634551dd59146109445780634bb278f31461097357806350c677341461098a578063518ab2a8146109cd5780635ed7ca5b146109f85780636203f09f14610a0f57806369ea177114610a3a5780636e50eb3f14610a6757806378b99c2414610a945780637c2e08a314610aeb5780638507bee814610b1a578063895594f614610b4b5780638da5cb5b14610bae5780639075becf14610c0557806397b150ca14610c5c578063a6f2ae3a14610cb3578063a7ba44c314610cbd578063af46868214610cec578063af58574a14610d17578063b1cb574b14610d74578063b3f05b9714610ea3578063b9b8af0b14610ed2578063bc364d7b14610f01578063bd71933614610f58578063bede2cac14610f87578063bf5fc2ee14610ff4578063c12eb19114611021578063c24becf31461106e578063ca1c503b146110c5578063cb16e6d01461112d578063cb3e64fd14611196578063cddaf241146111ad578063d5d09021146111da578063d7e64c0014611209578063df2d33d514611234578063e6d04d5e14611279578063e78bfee0146112e6578063ebdfa45514611359578063ef674e661461138a578063f282f551146113b9578063f2fde38b146113fc578063f3283fba1461143f578063fc0c546a14611482575b6103146114d9565b005b34801561032257600080fd5b5061032b6114e4565b6040518082815260200191505060405180910390f35b610375600480360381019080803573ffffffffffffffffffffffffffffffffffffffff1690602001909291905050506114ea565b005b34801561038357600080fd5b506103c2600480360381019080803573ffffffffffffffffffffffffffffffffffffffff169060200190929190803590602001909291905050506114f8565b604051808215151515815260200191505060405180910390f35b3480156103e857600080fd5b5061044060048036038101908080359060200190820180359060200190808060200260200160405190810160405280939291908181526020018383602002808284378201915050505050509192919290505050611652565b005b34801561044e57600080fd5b5061045761173e565b604051808215151515815260200191505060405180910390f35b34801561047d57600080fd5b50610486611806565b6040518080602001828103825283818151815260200191508051906020019080838360005b838110156104c65780820151818401526020810190506104ab565b50505050905090810190601f1680156104f35780820380516001836020036101000a031916815260200191505b509250505060405180910390f35b34801561050d57600080fd5b506105166118a4565b6040518082815260200191505060405180910390f35b34801561053857600080fd5b506105416118aa565b604051808273ffffffffffffffffffffffffffffffffffffffff1673ffffffffffffffffffffffffffffffffffffffff16815260200191505060405180910390f35b34801561058f57600080fd5b506105986118d0565b604051808215151515815260200191505060405180910390f35b3480156105be57600080fd5b506105f3600480360381019080803573ffffffffffffffffffffffffffffffffffffffff1690602001909291905050506118e3565b604051808215151515815260200191505060405180910390f35b34801561061957600080fd5b50610622611986565b6040518082815260200191505060405180910390f35b34801561064457600080fd5b5061064d61198c565b6040518082600681111561065d57fe5b60ff16815260200191505060405180910390f35b34801561067d57600080fd5b506106b2600480360381019080803573ffffffffffffffffffffffffffffffffffffffff169060200190929190505050611bec565b005b3480156106c057600080fd5b506106c9611dea565b6040518082815260200191505060405180910390f35b3480156106eb57600080fd5b50610720600480360381019080803573ffffffffffffffffffffffffffffffffffffffff169060200190929190505050611df7565b6040518082815260200191505060405180910390f35b34801561074257600080fd5b5061074b611e0f565b604051808273ffffffffffffffffffffffffffffffffffffffff1673ffffffffffffffffffffffffffffffffffffffff16815260200191505060405180910390f35b34801561079957600080fd5b506107ce600480360381019080803573ffffffffffffffffffffffffffffffffffffffff169060200190929190505050611e35565b604051808215151515815260200191505060405180910390f35b3480156107f457600080fd5b506107fd611e8e565b604051808215151515815260200191505060405180910390f35b34801561082357600080fd5b50610864600480360381019080803573ffffffffffffffffffffffffffffffffffffffff169060200190929190803515159060200190929190505050611f56565b005b34801561087257600080fd5b506108a7600480360381019080803573ffffffffffffffffffffffffffffffffffffffff16906020019092919050505061207b565b604051808215151515815260200191505060405180910390f35b3480156108cd57600080fd5b506108ec6004803603810190808035906020019092919050505061209b565b005b3480156108fa57600080fd5b5061090361222d565b6040518082815260200191505060405180910390f35b34801561092557600080fd5b5061092e612233565b6040518082815260200191505060405180910390f35b34801561095057600080fd5b50610959612239565b604051808215151515815260200191505060405180910390f35b34801561097f57600080fd5b50610988612242565b005b34801561099657600080fd5b506109cb600480360381019080803573ffffffffffffffffffffffffffffffffffffffff169060200190929190505050612413565b005b3480156109d957600080fd5b506109e2612611565b6040518082815260200191505060405180910390f35b348015610a0457600080fd5b50610a0d612617565b005b348015610a1b57600080fd5b50610a2461268f565b6040518082815260200191505060405180910390f35b348015610a4657600080fd5b50610a6560048036038101908080359060200190929190505050612695565b005b348015610a7357600080fd5b50610a9260048036038101908080359060200190929190505050612890565b005b348015610aa057600080fd5b50610aa9612b69565b604051808273ffffffffffffffffffffffffffffffffffffffff1673ffffffffffffffffffffffffffffffffffffffff16815260200191505060405180910390f35b348015610af757600080fd5b50610b00612b8f565b604051808215151515815260200191505060405180910390f35b348015610b2657600080fd5b50610b2f612b9e565b604051808260ff1660ff16815260200191505060405180910390f35b348015610b5757600080fd5b50610bac600480360381019080803573ffffffffffffffffffffffffffffffffffffffff1690602001909291908035151590602001909291908035906020019092919080359060200190929190505050612bb1565b005b348015610bba57600080fd5b50610bc3612e99565b604051808273ffffffffffffffffffffffffffffffffffffffff1673ffffffffffffffffffffffffffffffffffffffff16815260200191505060405180910390f35b348015610c1157600080fd5b50610c1a612ebe565b604051808273ffffffffffffffffffffffffffffffffffffffff1673ffffffffffffffffffffffffffffffffffffffff16815260200191505060405180910390f35b348015610c6857600080fd5b50610c9d600480360381019080803573ffffffffffffffffffffffffffffffffffffffff169060200190929190505050612ee4565b6040518082815260200191505060405180910390f35b610cbb6114d9565b005b348015610cc957600080fd5b50610cd2612efc565b604051808215151515815260200191505060405180910390f35b348015610cf857600080fd5b50610d01612fc4565b6040518082815260200191505060405180910390f35b348015610d2357600080fd5b50610d58600480360381019080803573ffffffffffffffffffffffffffffffffffffffff169060200190929190505050612fca565b604051808260ff1660ff16815260200191505060405180910390f35b348015610d8057600080fd5b50610ea160048036038101908080359060200190820180359060200190808060200260200160405190810160405280939291908181526020018383602002808284378201915050505050509192919290803590602001908201803590602001908080602002602001604051908101604052809392919081815260200183836020028082843782019150505050505091929192908035906020019082018035906020019080806020026020016040519081016040528093929190818152602001838360200280828437820191505050505050919291929080359060200190820180359060200190808060200260200160405190810160405280939291908181526020018383602002808284378201915050505050509192919290505050613023565b005b348015610eaf57600080fd5b50610eb861315a565b604051808215151515815260200191505060405180910390f35b348015610ede57600080fd5b50610ee761316d565b604051808215151515815260200191505060405180910390f35b348015610f0d57600080fd5b50610f16613180565b604051808273ffffffffffffffffffffffffffffffffffffffff1673ffffffffffffffffffffffffffffffffffffffff16815260200191505060405180910390f35b348015610f6457600080fd5b50610f6d6131a6565b604051808215151515815260200191505060405180910390f35b348015610f9357600080fd5b50610fb26004803603810190808035906020019092919050505061347a565b604051808273ffffffffffffffffffffffffffffffffffffffff1673ffffffffffffffffffffffffffffffffffffffff16815260200191505060405180910390f35b34801561100057600080fd5b5061101f600480360381019080803590602001909291905050506134b8565b005b34801561102d57600080fd5b5061106c600480360381019080803573ffffffffffffffffffffffffffffffffffffffff16906020019092919080359060200190929190505050613780565b005b34801561107a57600080fd5b50611083613a6f565b604051808273ffffffffffffffffffffffffffffffffffffffff1673ffffffffffffffffffffffffffffffffffffffff16815260200191505060405180910390f35b3480156110d157600080fd5b50611106600480360381019080803573ffffffffffffffffffffffffffffffffffffffff169060200190929190505050613ae9565b60405180831515151581526020018260ff1660ff1681526020019250505060405180910390f35b34801561113957600080fd5b5061116e600480360381019080803573ffffffffffffffffffffffffffffffffffffffff169060200190929190505050613b27565b6040518084151515158152602001838152602001828152602001935050505060405180910390f35b3480156111a257600080fd5b506111ab613b5e565b005b3480156111b957600080fd5b506111d860048036038101908080359060200190929190505050613bf1565b005b3480156111e657600080fd5b506111ef613db3565b604051808215151515815260200191505060405180910390f35b34801561121557600080fd5b5061121e613dc2565b6040518082815260200191505060405180910390f35b34801561124057600080fd5b5061125f60048036038101908080359060200190929190505050613dc8565b604051808215151515815260200191505060405180910390f35b34801561128557600080fd5b506112a460048036038101908080359060200190929190505050613dd6565b604051808273ffffffffffffffffffffffffffffffffffffffff1673ffffffffffffffffffffffffffffffffffffffff16815260200191505060405180910390f35b3480156112f257600080fd5b50611357600480360381019080803573ffffffffffffffffffffffffffffffffffffffff1690602001909291908035906020019092919080356fffffffffffffffffffffffffffffffff16906020019092919080359060200190929190505050613e14565b005b34801561136557600080fd5b5061136e6147f6565b604051808260ff1660ff16815260200191505060405180910390f35b34801561139657600080fd5b5061139f614809565b604051808215151515815260200191505060405180910390f35b3480156113c557600080fd5b506113fa600480360381019080803573ffffffffffffffffffffffffffffffffffffffff16906020019092919050505061481c565b005b34801561140857600080fd5b5061143d600480360381019080803573ffffffffffffffffffffffffffffffffffffffff169060200190929190505050614a22565b005b34801561144b57600080fd5b50611480600480360381019080803573ffffffffffffffffffffffffffffffffffffffff169060200190929190505050614b77565b005b34801561148e57600080fd5b50611497614c27565b604051808273ffffffffffffffffffffffffffffffffffffffff1673ffffffffffffffffffffffffffffffffffffffff16815260200191505060405180910390f35b6114e2336114ea565b565b60195481565b6114f5816000614c4d565b50565b600080601060019054906101000a900460ff16151561151357fe5b601760008573ffffffffffffffffffffffffffffffffffffffff1673ffffffffffffffffffffffffffffffffffffffff16815260200190815260200160002060020154905080601460008673ffffffffffffffffffffffffffffffffffffffff1673ffffffffffffffffffffffffffffffffffffffff1681526020019081526020016000205473__SafeMathLibExt________________________6366098d4f9091866040518363ffffffff167c0100000000000000000000000000000000000000000000000000000000028152600401808381526020018281526020019250505060206040518083038186803b15801561160d57600080fd5b505af4158015611621573d6000803e3d6000fd5b505050506040513d602081101561163757600080fd5b81019080805190602001909291905050501191505092915050565b60008060009054906101000a900473ffffffffffffffffffffffffffffffffffffffff1673ffffffffffffffffffffffffffffffffffffffff163373ffffffffffffffffffffffffffffffffffffffff161415156116af57600080fd5b600082511115156116bc57fe5b6000601260009054906101000a900460ff1660ff161415156116da57fe5b601260019054906101000a900460ff1660ff168251111515156116f957fe5b600090505b81518160ff16101561173a5761172d828260ff1681518110151561171e57fe5b90602001906020020151615690565b80806001019150506116fe565b5050565b6000600560009054906101000a900473ffffffffffffffffffffffffffffffffffffffff1673ffffffffffffffffffffffffffffffffffffffff166382771c8e6040518163ffffffff167c0100000000000000000000000000000000000000000000000000000000028152600401602060405180830381600087803b1580156117c657600080fd5b505af11580156117da573d6000803e3d6000fd5b505050506040513d60208110156117f057600080fd5b8101908080519060200190929190505050905090565b60088054600181600116156101000203166002900480601f01602080910402602001604051908101604052809291908181526020018280546001816001161561010002031660029004801561189c5780601f106118715761010080835404028352916020019161189c565b820191906000526020600020905b81548152906001019060200180831161187f57829003601f168201915b505050505081565b600c5481565b600760009054906101000a900473ffffffffffffffffffffffffffffffffffffffff1681565b601660009054906101000a900460ff1681565b600080600090505b60188054905081101561197b578273ffffffffffffffffffffffffffffffffffffffff1660188281548110151561191e57fe5b9060005260206000200160009054906101000a900473ffffffffffffffffffffffffffffffffffffffff1673ffffffffffffffffffffffffffffffffffffffff16141561196e5760019150611980565b80806001019150506118eb565b600091505b50919050565b600a5481565b6000601060009054906101000a900460ff16156119ac5760069050611be9565b6000600660009054906101000a900473ffffffffffffffffffffffffffffffffffffffff1673ffffffffffffffffffffffffffffffffffffffff1614156119f65760019050611be9565b600660009054906101000a900473ffffffffffffffffffffffffffffffffffffffff1673ffffffffffffffffffffffffffffffffffffffff166382771c8e6040518163ffffffff167c0100000000000000000000000000000000000000000000000000000000028152600401602060405180830381600087803b158015611a7c57600080fd5b505af1158015611a90573d6000803e3d6000fd5b505050506040513d6020811015611aa657600080fd5b81019080805190602001909291905050501515611ac65760019050611be9565b600560009054906101000a900473ffffffffffffffffffffffffffffffffffffffff1673ffffffffffffffffffffffffffffffffffffffff166382771c8e6040518163ffffffff167c0100000000000000000000000000000000000000000000000000000000028152600401602060405180830381600087803b158015611b4c57600080fd5b505af1158015611b60573d6000803e3d6000fd5b505050506040513d6020811015611b7657600080fd5b81019080805190602001909291905050501515611b965760019050611be9565b600b54421015611ba95760029050611be9565b600c544211158015611bc05750611bbe613db3565b155b15611bce5760039050611be9565b611bd6612b8f565b15611be45760049050611be9565b600590505b90565b6000809054906101000a900473ffffffffffffffffffffffffffffffffffffffff1673ffffffffffffffffffffffffffffffffffffffff163373ffffffffffffffffffffffffffffffffffffffff16141515611c4757600080fd5b600073ffffffffffffffffffffffffffffffffffffffff168173ffffffffffffffffffffffffffffffffffffffff1614151515611c8057fe5b600073ffffffffffffffffffffffffffffffffffffffff16600660009054906101000a900473ffffffffffffffffffffffffffffffffffffffff1673ffffffffffffffffffffffffffffffffffffffff16141515611cda57fe5b80600660006101000a81548173ffffffffffffffffffffffffffffffffffffffff021916908373ffffffffffffffffffffffffffffffffffffffff160217905550600660009054906101000a900473ffffffffffffffffffffffffffffffffffffffff1673ffffffffffffffffffffffffffffffffffffffff1663614cb9046040518163ffffffff167c0100000000000000000000000000000000000000000000000000000000028152600401602060405180830381600087803b158015611da157600080fd5b505af1158015611db5573d6000803e3d6000fd5b505050506040513d6020811015611dcb57600080fd5b81019080805190602001909291905050501515611de757600080fd5b50565b6000601880549050905090565b60146020528060005260406000206000915090505481565b600660009054906101000a900473ffffffffffffffffffffffffffffffffffffffff1681565b6000601360008373ffffffffffffffffffffffffffffffffffffffff1673ffffffffffffffffffffffffffffffffffffffff16815260200190815260200160002060000160009054906101000a900460ff169050919050565b6000600660009054906101000a900473ffffffffffffffffffffffffffffffffffffffff1673ffffffffffffffffffffffffffffffffffffffff1663f9cb6d7a6040518163ffffffff167c0100000000000000000000000000000000000000000000000000000000028152600401602060405180830381600087803b158015611f1657600080fd5b505af1158015611f2a573d6000803e3d6000fd5b505050506040513d6020811015611f4057600080fd5b8101908080519060200190929190505050905090565b6000809054906101000a900473ffffffffffffffffffffffffffffffffffffffff1673ffffffffffffffffffffffffffffffffffffffff163373ffffffffffffffffffffffffffffffffffffffff16141515611fb157600080fd5b80600160008473ffffffffffffffffffffffffffffffffffffffff1673ffffffffffffffffffffffffffffffffffffffff16815260200190815260200160002060006101000a81548160ff0219169083151502179055507fd31c153c670f6edcc54d96847d19c2beb8433d1fdf456144ecc246eb6bf533438282604051808373ffffffffffffffffffffffffffffffffffffffff1673ffffffffffffffffffffffffffffffffffffffff168152602001821515151581526020019250505060405180910390a15050565b60016020528060005260406000206000915054906101000a900460ff1681565b60008060009054906101000a900473ffffffffffffffffffffffffffffffffffffffff1673ffffffffffffffffffffffffffffffffffffffff163373ffffffffffffffffffffffffffffffffffffffff161415156120f857600080fd5b601060009054906101000a900460ff1615151561211157fe5b601660009054906101000a900460ff16151561212957fe5b600b54421115151561213757fe5b61213f613a6f565b90508073ffffffffffffffffffffffffffffffffffffffff1663b3f05b976040518163ffffffff167c0100000000000000000000000000000000000000000000000000000000028152600401602060405180830381600087803b1580156121a557600080fd5b505af11580156121b9573d6000803e3d6000fd5b505050506040513d60208110156121cf57600080fd5b81019080805190602001909291905050501515156121e957fe5b81601a819055507f7df545c7a1df0d2a1ba979e94124b026facab86a15ed46b6b4a732d995f9e182601a546040518082815260200191505060405180910390a15050565b601a5481565b600e5481565b60006001905090565b600480600681111561225057fe5b61225861198c565b600681111561226357fe5b14151561226f57600080fd5b6000809054906101000a900473ffffffffffffffffffffffffffffffffffffffff1673ffffffffffffffffffffffffffffffffffffffff163373ffffffffffffffffffffffffffffffffffffffff161415156122ca57600080fd5b600260009054906101000a900460ff16156122e457600080fd5b601060009054906101000a900460ff16156122fe57600080fd5b600073ffffffffffffffffffffffffffffffffffffffff16600660009054906101000a900473ffffffffffffffffffffffffffffffffffffffff1673ffffffffffffffffffffffffffffffffffffffff161415156123f557600660009054906101000a900473ffffffffffffffffffffffffffffffffffffffff1673ffffffffffffffffffffffffffffffffffffffff16630bf318a36040518163ffffffff167c0100000000000000000000000000000000000000000000000000000000028152600401600060405180830381600087803b1580156123dc57600080fd5b505af11580156123f0573d6000803e3d6000fd5b505050505b6001601060006101000a81548160ff02191690831515021790555050565b6000809054906101000a900473ffffffffffffffffffffffffffffffffffffffff1673ffffffffffffffffffffffffffffffffffffffff163373ffffffffffffffffffffffffffffffffffffffff1614151561246e57600080fd5b600073ffffffffffffffffffffffffffffffffffffffff168173ffffffffffffffffffffffffffffffffffffffff16141515156124a757fe5b600073ffffffffffffffffffffffffffffffffffffffff16600560009054906101000a900473ffffffffffffffffffffffffffffffffffffffff1673ffffffffffffffffffffffffffffffffffffffff1614151561250157fe5b80600560006101000a81548173ffffffffffffffffffffffffffffffffffffffff021916908373ffffffffffffffffffffffffffffffffffffffff160217905550600560009054906101000a900473ffffffffffffffffffffffffffffffffffffffff1673ffffffffffffffffffffffffffffffffffffffff166304bbc2556040518163ffffffff167c0100000000000000000000000000000000000000000000000000000000028152600401602060405180830381600087803b1580156125c857600080fd5b505af11580156125dc573d6000803e3d6000fd5b505050506040513d60208110156125f257600080fd5b8101908080519060200190929190505050151561260e57600080fd5b50565b600d5481565b6000809054906101000a900473ffffffffffffffffffffffffffffffffffffffff1673ffffffffffffffffffffffffffffffffffffffff163373ffffffffffffffffffffffffffffffffffffffff1614151561267257600080fd5b6001600260006101000a81548160ff021916908315150217905550565b60035481565b60008060009054906101000a900473ffffffffffffffffffffffffffffffffffffffff1673ffffffffffffffffffffffffffffffffffffffff163373ffffffffffffffffffffffffffffffffffffffff161415156126f257600080fd5b601060009054906101000a900460ff1615151561270b57fe5b601660009054906101000a900460ff16151561272357fe5b600b54421115151561273157fe5b612739613a6f565b90508073ffffffffffffffffffffffffffffffffffffffff1663b3f05b976040518163ffffffff167c0100000000000000000000000000000000000000000000000000000000028152600401602060405180830381600087803b15801561279f57600080fd5b505af11580156127b3573d6000803e3d6000fd5b505050506040513d60208110156127c957600080fd5b81019080805190602001909291905050501515156127e357fe5b600560009054906101000a900473ffffffffffffffffffffffffffffffffffffffff1673ffffffffffffffffffffffffffffffffffffffff166369ea1771836040518263ffffffff167c010000000000000000000000000000000000000000000000000000000002815260040180828152602001915050600060405180830381600087803b15801561287457600080fd5b505af1158015612888573d6000803e3d6000fd5b505050505050565b6000806000806000809054906101000a900473ffffffffffffffffffffffffffffffffffffffff1673ffffffffffffffffffffffffffffffffffffffff163373ffffffffffffffffffffffffffffffffffffffff161415156128f157600080fd5b601060009054906101000a900460ff1615151561290a57fe5b601660009054906101000a900460ff16151561292257fe5b84421115151561292e57fe5b84600b541115151561293c57fe5b600c54421115151561294a57fe5b612952613a6f565b93508373ffffffffffffffffffffffffffffffffffffffff1663b3f05b976040518163ffffffff167c0100000000000000000000000000000000000000000000000000000000028152600401602060405180830381600087803b1580156129b857600080fd5b505af11580156129cc573d6000803e3d6000fd5b505050506040513d60208110156129e257600080fd5b8101908080519060200190929190505050156129fd57600080fd5b612a0630612fca565b92506001830191505b601260009054906101000a900460ff1660ff168260ff161015612b225760118260ff16815481101515612a3e57fe5b9060005260206000200160009054906101000a900473ffffffffffffffffffffffffffffffffffffffff1690508073ffffffffffffffffffffffffffffffffffffffff1663af4686826040518163ffffffff167c0100000000000000000000000000000000000000000000000000000000028152600401602060405180830381600087803b158015612acf57600080fd5b505af1158015612ae3573d6000803e3d6000fd5b505050506040513d6020811015612af957600080fd5b81019080805190602001909291905050508511151515612b1557fe5b8180600101925050612a0f565b84600c819055507fd34bb772c4ae9baa99db852f622773b31c7827e8ee818449fef20d30980bd310600c546040518082815260200191505060405180910390a15050505050565b600560009054906101000a900473ffffffffffffffffffffffffffffffffffffffff1681565b6000600a54600e541015905090565b601260019054906101000a900460ff1681565b6000809054906101000a900473ffffffffffffffffffffffffffffffffffffffff1673ffffffffffffffffffffffffffffffffffffffff163373ffffffffffffffffffffffffffffffffffffffff16141515612c0c57600080fd5b601060019054906101000a900460ff161515612c2757600080fd5b600073ffffffffffffffffffffffffffffffffffffffff168473ffffffffffffffffffffffffffffffffffffffff1614151515612c6057fe5b600081111515612c6c57fe5b808211151515612c7857fe5b600c544211151515612c8657fe5b612c8f846118e3565b1515612d7f5760188490806001815401808255809150509060018203906000526020600020016000909192909190916101000a81548173ffffffffffffffffffffffffffffffffffffffff021916908373ffffffffffffffffffffffffffffffffffffffff160217905550507fc03e2cbfed65ba7e1df8d32da4afaccb75208d8a6b188f67800ceb19cb9d526484848484604051808573ffffffffffffffffffffffffffffffffffffffff1673ffffffffffffffffffffffffffffffffffffffff1681526020018415151515815260200183815260200182815260200194505050505060405180910390a1612dff565b7f618943c36e69f6b3bae8b5bc48231e8911852a0c844743af41be110450a2a58f84848484604051808573ffffffffffffffffffffffffffffffffffffffff1673ffffffffffffffffffffffffffffffffffffffff1681526020018415151515815260200183815260200182815260200194505050505060405180910390a15b606060405190810160405280841515815260200183815260200182815250601760008673ffffffffffffffffffffffffffffffffffffffff1673ffffffffffffffffffffffffffffffffffffffff16815260200190815260200160002060008201518160000160006101000a81548160ff021916908315150217905550602082015181600101556040820151816002015590505050505050565b6000809054906101000a900473ffffffffffffffffffffffffffffffffffffffff1681565b600960009054906101000a900473ffffffffffffffffffffffffffffffffffffffff1681565b60156020528060005260406000206000915090505481565b6000600660009054906101000a900473ffffffffffffffffffffffffffffffffffffffff1673ffffffffffffffffffffffffffffffffffffffff166382771c8e6040518163ffffffff167c0100000000000000000000000000000000000000000000000000000000028152600401602060405180830381600087803b158015612f8457600080fd5b505af1158015612f98573d6000803e3d6000fd5b505050506040513d6020811015612fae57600080fd5b8101908080519060200190929190505050905090565b600b5481565b6000601360008373ffffffffffffffffffffffffffffffffffffffff1673ffffffffffffffffffffffffffffffffffffffff16815260200190815260200160002060000160019054906101000a900460ff169050919050565b60008060009054906101000a900473ffffffffffffffffffffffffffffffffffffffff1673ffffffffffffffffffffffffffffffffffffffff163373ffffffffffffffffffffffffffffffffffffffff1614151561308057600080fd5b601060019054906101000a900460ff16151561309b57600080fd5b600c5442111515156130a957fe5b835185511415156130b657fe5b825184511415156130c357fe5b815183511415156130d057fe5b600090505b84518110156131535761314685828151811015156130ef57fe5b90602001906020020151858381518110151561310757fe5b90602001906020020151858481518110151561311f57fe5b90602001906020020151858581518110151561313757fe5b90602001906020020151612bb1565b80806001019150506130d5565b5050505050565b601060009054906101000a900460ff1681565b600260009054906101000a900460ff1681565b601060029054906101000a900473ffffffffffffffffffffffffffffffffffffffff1681565b6000806131b1613a6f565b9050600460068111156131c057fe5b8173ffffffffffffffffffffffffffffffffffffffff16631865c57d6040518163ffffffff167c0100000000000000000000000000000000000000000000000000000000028152600401602060405180830381600087803b15801561322457600080fd5b505af1158015613238573d6000803e3d6000fd5b505050506040513d602081101561324e57600080fd5b8101908080519060200190929190505050600681111561326a57fe5b14801561331357508073ffffffffffffffffffffffffffffffffffffffff1663b9b8af0b6040518163ffffffff167c0100000000000000000000000000000000000000000000000000000000028152600401602060405180830381600087803b1580156132d657600080fd5b505af11580156132ea573d6000803e3d6000fd5b505050506040513d602081101561330057600080fd5b8101908080519060200190929190505050155b80156133bb57508073ffffffffffffffffffffffffffffffffffffffff1663b3f05b976040518163ffffffff167c0100000000000000000000000000000000000000000000000000000000028152600401602060405180830381600087803b15801561337e57600080fd5b505af1158015613392573d6000803e3d6000fd5b505050506040513d60208110156133a857600080fd5b8101908080519060200190929190505050155b801561346357508073ffffffffffffffffffffffffffffffffffffffff166325e0671f6040518163ffffffff167c0100000000000000000000000000000000000000000000000000000000028152600401602060405180830381600087803b15801561342657600080fd5b505af115801561343a573d6000803e3d6000fd5b505050506040513d602081101561345057600080fd5b8101908080519060200190929190505050155b156134715760019150613476565b600091505b5090565b60118181548110151561348957fe5b906000526020600020016000915054906101000a900473ffffffffffffffffffffffffffffffffffffffff1681565b6000806000806000809054906101000a900473ffffffffffffffffffffffffffffffffffffffff1673ffffffffffffffffffffffffffffffffffffffff163373ffffffffffffffffffffffffffffffffffffffff1614151561351957600080fd5b601060009054906101000a900460ff1615151561353257fe5b601660009054906101000a900460ff16151561354a57fe5b84421115151561355657fe5b600c54851115151561356457fe5b600b54421115151561357257fe5b61357a613a6f565b93508373ffffffffffffffffffffffffffffffffffffffff1663b3f05b976040518163ffffffff167c0100000000000000000000000000000000000000000000000000000000028152600401602060405180830381600087803b1580156135e057600080fd5b505af11580156135f4573d6000803e3d6000fd5b505050506040513d602081101561360a57600080fd5b81019080805190602001909291905050501561362557600080fd5b61362e30612fca565b9250600091505b8260ff168260ff1610156137395760118260ff1681548110151561365557fe5b9060005260206000200160009054906101000a900473ffffffffffffffffffffffffffffffffffffffff1690508073ffffffffffffffffffffffffffffffffffffffff16630a09284a6040518163ffffffff167c0100000000000000000000000000000000000000000000000000000000028152600401602060405180830381600087803b1580156136e657600080fd5b505af11580156136fa573d6000803e3d6000fd5b505050506040513d602081101561371057600080fd5b8101908080519060200190929190505050851015151561372c57fe5b8180600101925050613635565b84600b819055507fa3f2a813a039e5195c620dabcd490267a9aa5a50e4e1383bc474e9b800f7defe600b546040518082815260200191505060405180910390a15050505050565b6000601060019054906101000a900460ff16151561379d57600080fd5b600073ffffffffffffffffffffffffffffffffffffffff168373ffffffffffffffffffffffffffffffffffffffff16141515156137d657fe5b600c5442111515156137e457fe5b6137ed33611e35565b15156137f557fe5b601760008473ffffffffffffffffffffffffffffffffffffffff1673ffffffffffffffffffffffffffffffffffffffff168152602001908152602001600020600101548210801561388557506000601560008573ffffffffffffffffffffffffffffffffffffffff1673ffffffffffffffffffffffffffffffffffffffff16815260200190815260200160002054145b1561388f57600080fd5b601760008473ffffffffffffffffffffffffffffffffffffffff1673ffffffffffffffffffffffffffffffffffffffff1681526020019081526020016000206002015490508073__SafeMathLibExt________________________63f4f3bdc19091846040518363ffffffff167c0100000000000000000000000000000000000000000000000000000000028152600401808381526020018281526020019250505060206040518083038186803b15801561394957600080fd5b505af415801561395d573d6000803e3d6000fd5b505050506040513d602081101561397357600080fd5b81019080805190602001909291905050509050606060405190810160405280601760008673ffffffffffffffffffffffffffffffffffffffff1673ffffffffffffffffffffffffffffffffffffffff16815260200190815260200160002060000160009054906101000a900460ff16151581526020016000815260200182815250601760008573ffffffffffffffffffffffffffffffffffffffff1673ffffffffffffffffffffffffffffffffffffffff16815260200190815260200160002060008201518160000160006101000a81548160ff0219169083151502179055506020820151816001015560408201518160020155905050505050565b600080601260009054906101000a900460ff1660ff161115613ae15760116001601260009054906101000a900460ff160360ff16815481101515613aaf57fe5b9060005260206000200160009054906101000a900473ffffffffffffffffffffffffffffffffffffffff169050613ae6565b600090505b90565b60136020528060005260406000206000915090508060000160009054906101000a900460ff16908060000160019054906101000a900460ff16905082565b60176020528060005260406000206000915090508060000160009054906101000a900460ff16908060010154908060020154905083565b6000809054906101000a900473ffffffffffffffffffffffffffffffffffffffff1673ffffffffffffffffffffffffffffffffffffffff163373ffffffffffffffffffffffffffffffffffffffff16141515613bb957600080fd5b600260009054906101000a900460ff161515613bd457600080fd5b6000600260006101000a81548160ff021916908315150217905550565b6004806006811115613bff57fe5b613c0761198c565b6006811115613c1257fe5b141515613c1e57600080fd5b6000809054906101000a900473ffffffffffffffffffffffffffffffffffffffff1673ffffffffffffffffffffffffffffffffffffffff163373ffffffffffffffffffffffffffffffffffffffff16141515613c7957600080fd5b600260009054906101000a900460ff1615613c9357600080fd5b601060009054906101000a900460ff1615613cad57600080fd5b600073ffffffffffffffffffffffffffffffffffffffff16600660009054906101000a900473ffffffffffffffffffffffffffffffffffffffff1673ffffffffffffffffffffffffffffffffffffffff16141515613daf57600660009054906101000a900473ffffffffffffffffffffffffffffffffffffffff1673ffffffffffffffffffffffffffffffffffffffff1663cddaf241836040518263ffffffff167c010000000000000000000000000000000000000000000000000000000002815260040180828152602001915050600060405180830381600087803b158015613d9657600080fd5b505af1158015613daa573d6000803e3d6000fd5b505050505b5050565b6000601a54600d541015905090565b600f5481565b6000601a5482119050919050565b601881815481101515613de557fe5b906000526020600020016000915054906101000a900473ffffffffffffffffffffffffffffffffffffffff1681565b600080600160003373ffffffffffffffffffffffffffffffffffffffff1673ffffffffffffffffffffffffffffffffffffffff16815260200190815260200160002060009054906101000a900460ff161515613e6f57600080fd5b848311151515613e7e57600080fd5b600560009054906101000a900473ffffffffffffffffffffffffffffffffffffffff1673ffffffffffffffffffffffffffffffffffffffff16638e68f000600d54600460009054906101000a900473ffffffffffffffffffffffffffffffffffffffff1673ffffffffffffffffffffffffffffffffffffffff1663313ce5676040518163ffffffff167c0100000000000000000000000000000000000000000000000000000000028152600401602060405180830381600087803b158015613f4557600080fd5b505af1158015613f59573d6000803e3d6000fd5b505050506040513d6020811015613f6f57600080fd5b81019080805190602001909291905050506040518363ffffffff167c01000000000000000000000000000000000000000000000000000000000281526004018083815260200182815260200192505050602060405180830381600087803b158015613fd957600080fd5b505af1158015613fed573d6000803e3d6000fd5b505050506040513d602081101561400357600080fd5b81019080805190602001909291905050509150600460009054906101000a900473ffffffffffffffffffffffffffffffffffffffff1673ffffffffffffffffffffffffffffffffffffffff1663313ce5676040518163ffffffff167c0100000000000000000000000000000000000000000000000000000000028152600401602060405180830381600087803b15801561409c57600080fd5b505af11580156140b0573d6000803e3d6000fd5b505050506040513d60208110156140c657600080fd5b8101908080519060200190929190505050600a0a8583028115156140e657fe5b049050600e5473__SafeMathLibExt________________________6366098d4f9091836040518363ffffffff167c0100000000000000000000000000000000000000000000000000000000028152600401808381526020018281526020019250505060206040518083038186803b15801561416057600080fd5b505af4158015614174573d6000803e3d6000fd5b505050506040513d602081101561418a57600080fd5b8101908080519060200190929190505050600e81905550600d5473__SafeMathLibExt________________________6366098d4f9091876040518363ffffffff167c0100000000000000000000000000000000000000000000000000000000028152600401808381526020018281526020019250505060206040518083038186803b15801561421857600080fd5b505af415801561422c573d6000803e3d6000fd5b505050506040513d602081101561424257600080fd5b8101908080519060200190929190505050600d81905550601460008773ffffffffffffffffffffffffffffffffffffffff1673ffffffffffffffffffffffffffffffffffffffff1681526020019081526020016000205473__SafeMathLibExt________________________6366098d4f9091836040518363ffffffff167c0100000000000000000000000000000000000000000000000000000000028152600401808381526020018281526020019250505060206040518083038186803b15801561430d57600080fd5b505af4158015614321573d6000803e3d6000fd5b505050506040513d602081101561433757600080fd5b8101908080519060200190929190505050601460008873ffffffffffffffffffffffffffffffffffffffff1673ffffffffffffffffffffffffffffffffffffffff16815260200190815260200160002081905550601560008773ffffffffffffffffffffffffffffffffffffffff1673ffffffffffffffffffffffffffffffffffffffff1681526020019081526020016000205473__SafeMathLibExt________________________6366098d4f9091876040518363ffffffff167c0100000000000000000000000000000000000000000000000000000000028152600401808381526020018281526020019250505060206040518083038186803b15801561443f57600080fd5b505af4158015614453573d6000803e3d6000fd5b505050506040513d602081101561446957600080fd5b8101908080519060200190929190505050601560008873ffffffffffffffffffffffffffffffffffffffff1673ffffffffffffffffffffffffffffffffffffffff16815260200190815260200160002081905550600083111561473757601060029054906101000a900473ffffffffffffffffffffffffffffffffffffffff16600760006101000a81548173ffffffffffffffffffffffffffffffffffffffff021916908373ffffffffffffffffffffffffffffffffffffffff160217905550600760009054906101000a900473ffffffffffffffffffffffffffffffffffffffff1673ffffffffffffffffffffffffffffffffffffffff1663cf462616876040518263ffffffff167c0100000000000000000000000000000000000000000000000000000000028152600401808273ffffffffffffffffffffffffffffffffffffffff1673ffffffffffffffffffffffffffffffffffffffff168152602001915050602060405180830381600087803b1580156145e657600080fd5b505af11580156145fa573d6000803e3d6000fd5b505050506040513d602081101561461057600080fd5b810190808051906020019092919050505015151561462d57600080fd5b614659601060029054906101000a900473ffffffffffffffffffffffffffffffffffffffff16846158ae565b600760009054906101000a900473ffffffffffffffffffffffffffffffffffffffff1673ffffffffffffffffffffffffffffffffffffffff16636cd8015d87856040518363ffffffff167c0100000000000000000000000000000000000000000000000000000000028152600401808373ffffffffffffffffffffffffffffffffffffffff1673ffffffffffffffffffffffffffffffffffffffff16815260200182815260200192505050600060405180830381600087803b15801561471e57600080fd5b505af1158015614732573d6000803e3d6000fd5b505050505b6000838603111561474f5761474e868487036158ae565b5b7f0396f60aaad038749091d273dc13aaabc63db6e2271c7bad442d5cf25cc4335086828787604051808573ffffffffffffffffffffffffffffffffffffffff1673ffffffffffffffffffffffffffffffffffffffff168152602001848152602001838152602001826fffffffffffffffffffffffffffffffff166fffffffffffffffffffffffffffffffff16815260200194505050505060405180910390a1505050505050565b601260009054906101000a900460ff1681565b601060019054906101000a900460ff1681565b6000809054906101000a900473ffffffffffffffffffffffffffffffffffffffff1673ffffffffffffffffffffffffffffffffffffffff163373ffffffffffffffffffffffffffffffffffffffff1614151561487757600080fd5b600073ffffffffffffffffffffffffffffffffffffffff168173ffffffffffffffffffffffffffffffffffffffff16141515156148b057fe5b80600460006101000a81548173ffffffffffffffffffffffffffffffffffffffff021916908373ffffffffffffffffffffffffffffffffffffffff160217905550600073ffffffffffffffffffffffffffffffffffffffff16600660009054906101000a900473ffffffffffffffffffffffffffffffffffffffff1673ffffffffffffffffffffffffffffffffffffffff16141515614a1f57600660009054906101000a900473ffffffffffffffffffffffffffffffffffffffff1673ffffffffffffffffffffffffffffffffffffffff1663f282f551826040518263ffffffff167c0100000000000000000000000000000000000000000000000000000000028152600401808273ffffffffffffffffffffffffffffffffffffffff1673ffffffffffffffffffffffffffffffffffffffff168152602001915050600060405180830381600087803b158015614a0657600080fd5b505af1158015614a1a573d6000803e3d6000fd5b505050505b50565b6000809054906101000a900473ffffffffffffffffffffffffffffffffffffffff1673ffffffffffffffffffffffffffffffffffffffff163373ffffffffffffffffffffffffffffffffffffffff16141515614a7d57600080fd5b600073ffffffffffffffffffffffffffffffffffffffff168173ffffffffffffffffffffffffffffffffffffffff1614151515614ab957600080fd5b8073ffffffffffffffffffffffffffffffffffffffff166000809054906101000a900473ffffffffffffffffffffffffffffffffffffffff1673ffffffffffffffffffffffffffffffffffffffff167f8be0079c531659141344cd1fd0a4f28419497f9722a3daafe3b4186f6b6457e060405160405180910390a3806000806101000a81548173ffffffffffffffffffffffffffffffffffffffff021916908373ffffffffffffffffffffffffffffffffffffffff16021790555050565b6000809054906101000a900473ffffffffffffffffffffffffffffffffffffffff1673ffffffffffffffffffffffffffffffffffffffff163373ffffffffffffffffffffffffffffffffffffffff16141515614bd257600080fd5b600354600f541115614be357600080fd5b80600960006101000a81548173ffffffffffffffffffffffffffffffffffffffff021916908373ffffffffffffffffffffffffffffffffffffffff16021790555050565b600460009054906101000a900473ffffffffffffffffffffffffffffffffffffffff1681565b600080600260009054906101000a900460ff1615614c6a57600080fd5b60026006811115614c7757fe5b614c7f61198c565b6006811115614c8a57fe5b1415614c9557600080fd5b60036006811115614ca257fe5b614caa61198c565b6006811115614cb557fe5b1415614d9a57601060019054906101000a900460ff1615614d9557601760008573ffffffffffffffffffffffffffffffffffffffff1673ffffffffffffffffffffffffffffffffffffffff16815260200190815260200160002060000160009054906101000a900460ff161515614d94576040517f08c379a00000000000000000000000000000000000000000000000000000000081526004018080602001828103825260148152602001807f4e6f742057686974656c6973746564205573657200000000000000000000000081525060200191505060405180910390fd5b5b614d9f565b600080fd5b349150600560009054906101000a900473ffffffffffffffffffffffffffffffffffffffff1673ffffffffffffffffffffffffffffffffffffffff1663e015c62a83600d54600460009054906101000a900473ffffffffffffffffffffffffffffffffffffffff1673ffffffffffffffffffffffffffffffffffffffff1663313ce5676040518163ffffffff167c0100000000000000000000000000000000000000000000000000000000028152600401602060405180830381600087803b158015614e6a57600080fd5b505af1158015614e7e573d6000803e3d6000fd5b505050506040513d6020811015614e9457600080fd5b81019080805190602001909291905050506040518463ffffffff167c0100000000000000000000000000000000000000000000000000000000028152600401808481526020018381526020018281526020019350505050602060405180830381600087803b158015614f0557600080fd5b505af1158015614f19573d6000803e3d6000fd5b505050506040513d6020811015614f2f57600080fd5b810190808051906020019092919050505090506000811415614f5057600080fd5b601060019054906101000a900460ff161561502257601760008573ffffffffffffffffffffffffffffffffffffffff1673ffffffffffffffffffffffffffffffffffffffff1681526020019081526020016000206001015482108015614ff557506000601560008673ffffffffffffffffffffffffffffffffffffffff1673ffffffffffffffffffffffffffffffffffffffff16815260200190815260200160002054145b15614fff57600080fd5b61500984836114f8565b1561501357600080fd5b61501d8483615995565b61513b565b600460009054906101000a900473ffffffffffffffffffffffffffffffffffffffff1673ffffffffffffffffffffffffffffffffffffffff16633fa615b06040518163ffffffff167c0100000000000000000000000000000000000000000000000000000000028152600401602060405180830381600087803b1580156150a857600080fd5b505af11580156150bc573d6000803e3d6000fd5b505050506040513d60208110156150d257600080fd5b81019080805190602001909291905050508210801561513057506000601560008673ffffffffffffffffffffffffffffffffffffffff1673ffffffffffffffffffffffffffffffffffffffff16815260200190815260200160002054145b1561513a57600080fd5b5b6000601460008673ffffffffffffffffffffffffffffffffffffffff1673ffffffffffffffffffffffffffffffffffffffff16815260200190815260200160002054141561519657600f600081548092919060010191905055505b601460008573ffffffffffffffffffffffffffffffffffffffff1673ffffffffffffffffffffffffffffffffffffffff1681526020019081526020016000205473__SafeMathLibExt________________________6366098d4f9091846040518363ffffffff167c0100000000000000000000000000000000000000000000000000000000028152600401808381526020018281526020019250505060206040518083038186803b15801561524a57600080fd5b505af415801561525e573d6000803e3d6000fd5b505050506040513d602081101561527457600080fd5b8101908080519060200190929190505050601460008673ffffffffffffffffffffffffffffffffffffffff1673ffffffffffffffffffffffffffffffffffffffff16815260200190815260200160002081905550601560008573ffffffffffffffffffffffffffffffffffffffff1673ffffffffffffffffffffffffffffffffffffffff1681526020019081526020016000205473__SafeMathLibExt________________________6366098d4f9091836040518363ffffffff167c0100000000000000000000000000000000000000000000000000000000028152600401808381526020018281526020019250505060206040518083038186803b15801561537c57600080fd5b505af4158015615390573d6000803e3d6000fd5b505050506040513d60208110156153a657600080fd5b8101908080519060200190929190505050601560008673ffffffffffffffffffffffffffffffffffffffff1673ffffffffffffffffffffffffffffffffffffffff16815260200190815260200160002081905550600e5473__SafeMathLibExt________________________6366098d4f9091846040518363ffffffff167c0100000000000000000000000000000000000000000000000000000000028152600401808381526020018281526020019250505060206040518083038186803b15801561547157600080fd5b505af4158015615485573d6000803e3d6000fd5b505050506040513d602081101561549b57600080fd5b8101908080519060200190929190505050600e81905550600d5473__SafeMathLibExt________________________6366098d4f9091836040518363ffffffff167c0100000000000000000000000000000000000000000000000000000000028152600401808381526020018281526020019250505060206040518083038186803b15801561552957600080fd5b505af415801561553d573d6000803e3d6000fd5b505050506040513d602081101561555357600080fd5b8101908080519060200190929190505050600d81905550615575600d54613dc8565b1561557f57600080fd5b61558984826158ae565b600960009054906101000a900473ffffffffffffffffffffffffffffffffffffffff1673ffffffffffffffffffffffffffffffffffffffff166108fc839081150290604051600060405180830381858888f1935050505015156155eb57600080fd5b7f0396f60aaad038749091d273dc13aaabc63db6e2271c7bad442d5cf25cc4335084838386604051808573ffffffffffffffffffffffffffffffffffffffff1673ffffffffffffffffffffffffffffffffffffffff168152602001848152602001838152602001826fffffffffffffffffffffffffffffffff166fffffffffffffffffffffffffffffffff16815260200194505050505060405180910390a150505050565b6000809054906101000a900473ffffffffffffffffffffffffffffffffffffffff1673ffffffffffffffffffffffffffffffffffffffff163373ffffffffffffffffffffffffffffffffffffffff161415156156eb57600080fd5b600073ffffffffffffffffffffffffffffffffffffffff168173ffffffffffffffffffffffffffffffffffffffff161415151561572457fe5b601260019054906101000a900460ff1660ff16601260009054906101000a900460ff1660ff161115151561575457fe5b61575d81611e35565b15151561576657fe5b60118190806001815401808255809150509060018203906000526020600020016000909192909190916101000a81548173ffffffffffffffffffffffffffffffffffffffff021916908373ffffffffffffffffffffffffffffffffffffffff160217905550506040805190810160405280600115158152602001601260009054906101000a900460ff1660ff16815250601360008373ffffffffffffffffffffffffffffffffffffffff1673ffffffffffffffffffffffffffffffffffffffff16815260200190815260200160002060008201518160000160006101000a81548160ff02191690831515021790555060208201518160000160016101000a81548160ff021916908360ff1602179055509050506012600081819054906101000a900460ff168092919060010191906101000a81548160ff021916908360ff1602179055505050565b6000600460009054906101000a900473ffffffffffffffffffffffffffffffffffffffff1690508073ffffffffffffffffffffffffffffffffffffffff166340c10f1984846040518363ffffffff167c0100000000000000000000000000000000000000000000000000000000028152600401808373ffffffffffffffffffffffffffffffffffffffff1673ffffffffffffffffffffffffffffffffffffffff16815260200182815260200192505050600060405180830381600087803b15801561597857600080fd5b505af115801561598c573d6000803e3d6000fd5b50505050505050565b6000806000601060019054906101000a900460ff1615156159b557600080fd5b601760008673ffffffffffffffffffffffffffffffffffffffff1673ffffffffffffffffffffffffffffffffffffffff1681526020019081526020016000206001015484108015615a4557506000601560008773ffffffffffffffffffffffffffffffffffffffff1673ffffffffffffffffffffffffffffffffffffffff16815260200190815260200160002054145b15615a4f57600080fd5b615a5830612fca565b92506001830191505b601260009054906101000a900460ff1660ff168260ff161015615b855760118260ff16815481101515615a9057fe5b9060005260206000200160009054906101000a900473ffffffffffffffffffffffffffffffffffffffff1690508073ffffffffffffffffffffffffffffffffffffffff1663c12eb19186866040518363ffffffff167c0100000000000000000000000000000000000000000000000000000000028152600401808373ffffffffffffffffffffffffffffffffffffffff1673ffffffffffffffffffffffffffffffffffffffff16815260200182815260200192505050600060405180830381600087803b158015615b6057600080fd5b505af1158015615b74573d6000803e3d6000fd5b505050508180600101925050615a61565b50505050505600a165627a7a72305820fe3a349b9778e66027b5461ab02f12c3ae68cd9e933e90a72d87085bfd0b92af0029",
  "source": "/**\r\n * This smart contract code is Copyright 2017 TokenMarket Ltd. For more information see https://tokenmarket.net\r\n *\r\n * Licensed under the Apache License, version 2.0: https://github.com/TokenMarketNet/ico/blob/master/LICENSE.txt\r\n */\r\n\r\npragma solidity 0.4.24;\r\n\r\nimport \"./CrowdsaleExt.sol\";\r\nimport \"./MintableTokenExt.sol\";\r\n\r\n\r\n/**\r\n * ICO crowdsale contract that is capped by amout of tokens.\r\n *\r\n * - Tokens are dynamically created during the crowdsale\r\n *\r\n *\r\n */\r\ncontract MintedTokenCappedCrowdsaleExt is CrowdsaleExt {\r\n\r\n    /* Maximum amount of tokens this crowdsale can sell. */\r\n    uint public maximumSellableTokens;\r\n\r\n    constructor(\r\n        string _name,\r\n        address _token,\r\n        PricingStrategy _pricingStrategy,\r\n        address _multisigWallet,\r\n        uint _start, uint _end,\r\n        uint _minimumFundingGoal,\r\n        uint _maximumSellableTokens,\r\n        bool _isUpdatable,\r\n        bool _isWhiteListed,\r\n        address _tokenVestingAddress\r\n    ) public CrowdsaleExt(_name, _token, _pricingStrategy, _multisigWallet, _start, _end,\r\n    _minimumFundingGoal, _isUpdatable, _isWhiteListed, _tokenVestingAddress) {\r\n        maximumSellableTokens = _maximumSellableTokens;\r\n    }\r\n\r\n    // Crowdsale maximumSellableTokens has been changed\r\n    event MaximumSellableTokensChanged(uint newMaximumSellableTokens);\r\n\r\n    /**\r\n    * Called from invest() to confirm if the curret investment does not break our cap rule.\r\n    */\r\n    function isBreakingCap(uint tokensSoldTotal) public view returns (bool limitBroken) {\r\n        return tokensSoldTotal > maximumSellableTokens;\r\n    }\r\n\r\n    function isBreakingInvestorCap(address addr, uint weiAmount) public view returns (bool limitBroken) {\r\n        assert(isWhiteListed);\r\n        uint maxCap = earlyParticipantWhitelist[addr].maxCap;\r\n        return (investedAmountOf[addr].plus(weiAmount)) > maxCap;\r\n    }\r\n\r\n    function isCrowdsaleFull() public view returns (bool) {\r\n        return tokensSold >= maximumSellableTokens;\r\n    }\r\n\r\n    function setMaximumSellableTokens(uint tokens) public onlyOwner {\r\n        assert(!finalized);\r\n        assert(isUpdatable);\r\n        assert(now <= startsAt);\r\n\r\n        CrowdsaleExt lastTierCntrct = CrowdsaleExt(getLastTier());\r\n        assert(!lastTierCntrct.finalized());\r\n\r\n        maximumSellableTokens = tokens;\r\n        emit MaximumSellableTokensChanged(maximumSellableTokens);\r\n    }\r\n\r\n    function updateRate(uint oneTokenInCents) public onlyOwner {\r\n        assert(!finalized);\r\n        assert(isUpdatable);\r\n        assert(now <= startsAt);\r\n\r\n        CrowdsaleExt lastTierCntrct = CrowdsaleExt(getLastTier());\r\n        assert(!lastTierCntrct.finalized());\r\n\r\n        pricingStrategy.updateRate(oneTokenInCents);\r\n    }\r\n\r\n    /**\r\n    * Dynamically create tokens and assign them to the investor.\r\n    */\r\n    function assignTokens(address receiver, uint tokenAmount) private {\r\n        MintableTokenExt mintableToken = MintableTokenExt(token);\r\n        mintableToken.mint(receiver, tokenAmount);\r\n    }    \r\n}\r\n",
  "sourcePath": "D:\\Utix Workspace\\UtixTokenSmartContract\\contracts\\MintedTokenCappedCrowdsaleExt.sol",
  "compiler": {
    "name": "solc",
    "version": "0.4.24+commit.e67f0147.Emscripten.clang"
  },
  "schemaVersion": "2.0.1",
  "updatedAt": "2018-09-18T13:44:48.962Z"
}