{
  "contractName": "MintableTokenExt",
  "abi": [
    {
      "constant": true,
      "inputs": [],
      "name": "mintingFinished",
      "outputs": [
        {
          "name": "",
          "type": "bool"
        }
      ],
      "payable": false,
      "stateMutability": "view",
      "type": "function"
    },
    {
      "constant": false,
      "inputs": [
        {
          "name": "_spender",
          "type": "address"
        },
        {
          "name": "_value",
          "type": "uint256"
        }
      ],
      "name": "approve",
      "outputs": [
        {
          "name": "success",
          "type": "bool"
        }
      ],
      "payable": false,
      "stateMutability": "nonpayable",
      "type": "function"
    },
    {
      "constant": true,
      "inputs": [],
      "name": "totalSupply",
      "outputs": [
        {
          "name": "",
          "type": "uint256"
        }
      ],
      "payable": false,
      "stateMutability": "view",
      "type": "function"
    },
    {
      "constant": false,
      "inputs": [
        {
          "name": "_from",
          "type": "address"
        },
        {
          "name": "_to",
          "type": "address"
        },
        {
          "name": "_value",
          "type": "uint256"
        }
      ],
      "name": "transferFrom",
      "outputs": [
        {
          "name": "success",
          "type": "bool"
        }
      ],
      "payable": false,
      "stateMutability": "nonpayable",
      "type": "function"
    },
    {
      "constant": true,
      "inputs": [
        {
          "name": "",
          "type": "address"
        }
      ],
      "name": "balances",
      "outputs": [
        {
          "name": "",
          "type": "uint256"
        }
      ],
      "payable": false,
      "stateMutability": "view",
      "type": "function"
    },
    {
      "constant": true,
      "inputs": [
        {
          "name": "",
          "type": "address"
        }
      ],
      "name": "mintAgents",
      "outputs": [
        {
          "name": "",
          "type": "bool"
        }
      ],
      "payable": false,
      "stateMutability": "view",
      "type": "function"
    },
    {
      "constant": true,
      "inputs": [
        {
          "name": "",
          "type": "address"
        }
      ],
      "name": "reservedTokensList",
      "outputs": [
        {
          "name": "inTokens",
          "type": "uint256"
        },
        {
          "name": "inPercentageUnit",
          "type": "uint256"
        },
        {
          "name": "inPercentageDecimals",
          "type": "uint256"
        },
        {
          "name": "isReserved",
          "type": "bool"
        },
        {
          "name": "isDistributed",
          "type": "bool"
        }
      ],
      "payable": false,
      "stateMutability": "view",
      "type": "function"
    },
    {
      "constant": true,
      "inputs": [
        {
          "name": "",
          "type": "address"
        },
        {
          "name": "",
          "type": "address"
        }
      ],
      "name": "allowed",
      "outputs": [
        {
          "name": "",
          "type": "uint256"
        }
      ],
      "payable": false,
      "stateMutability": "view",
      "type": "function"
    },
    {
      "constant": true,
      "inputs": [
        {
          "name": "_owner",
          "type": "address"
        }
      ],
      "name": "balanceOf",
      "outputs": [
        {
          "name": "balance",
          "type": "uint256"
        }
      ],
      "payable": false,
      "stateMutability": "view",
      "type": "function"
    },
    {
      "constant": true,
      "inputs": [
        {
          "name": "",
          "type": "uint256"
        }
      ],
      "name": "reservedTokensDestinations",
      "outputs": [
        {
          "name": "",
          "type": "address"
        }
      ],
      "payable": false,
      "stateMutability": "view",
      "type": "function"
    },
    {
      "constant": true,
      "inputs": [],
      "name": "owner",
      "outputs": [
        {
          "name": "",
          "type": "address"
        }
      ],
      "payable": false,
      "stateMutability": "view",
      "type": "function"
    },
    {
      "constant": false,
      "inputs": [
        {
          "name": "_to",
          "type": "address"
        },
        {
          "name": "_value",
          "type": "uint256"
        }
      ],
      "name": "transfer",
      "outputs": [
        {
          "name": "success",
          "type": "bool"
        }
      ],
      "payable": false,
      "stateMutability": "nonpayable",
      "type": "function"
    },
    {
      "constant": true,
      "inputs": [],
      "name": "reservedTokensDestinationsLen",
      "outputs": [
        {
          "name": "",
          "type": "uint256"
        }
      ],
      "payable": false,
      "stateMutability": "view",
      "type": "function"
    },
    {
      "constant": true,
      "inputs": [
        {
          "name": "_owner",
          "type": "address"
        },
        {
          "name": "_spender",
          "type": "address"
        }
      ],
      "name": "allowance",
      "outputs": [
        {
          "name": "remaining",
          "type": "uint256"
        }
      ],
      "payable": false,
      "stateMutability": "view",
      "type": "function"
    },
    {
      "constant": true,
      "inputs": [],
      "name": "isToken",
      "outputs": [
        {
          "name": "weAre",
          "type": "bool"
        }
      ],
      "payable": false,
      "stateMutability": "pure",
      "type": "function"
    },
    {
      "constant": false,
      "inputs": [
        {
          "name": "newOwner",
          "type": "address"
        }
      ],
      "name": "transferOwnership",
      "outputs": [],
      "payable": false,
      "stateMutability": "nonpayable",
      "type": "function"
    },
    {
      "anonymous": false,
      "inputs": [
        {
          "indexed": false,
          "name": "addr",
          "type": "address"
        },
        {
          "indexed": false,
          "name": "state",
          "type": "bool"
        }
      ],
      "name": "MintingAgentChanged",
      "type": "event"
    },
    {
      "anonymous": false,
      "inputs": [
        {
          "indexed": true,
          "name": "previousOwner",
          "type": "address"
        },
        {
          "indexed": true,
          "name": "newOwner",
          "type": "address"
        }
      ],
      "name": "OwnershipTransferred",
      "type": "event"
    },
    {
      "anonymous": false,
      "inputs": [
        {
          "indexed": false,
          "name": "receiver",
          "type": "address"
        },
        {
          "indexed": false,
          "name": "amount",
          "type": "uint256"
        }
      ],
      "name": "Minted",
      "type": "event"
    },
    {
      "anonymous": false,
      "inputs": [
        {
          "indexed": true,
          "name": "owner",
          "type": "address"
        },
        {
          "indexed": true,
          "name": "spender",
          "type": "address"
        },
        {
          "indexed": false,
          "name": "value",
          "type": "uint256"
        }
      ],
      "name": "Approval",
      "type": "event"
    },
    {
      "anonymous": false,
      "inputs": [
        {
          "indexed": true,
          "name": "from",
          "type": "address"
        },
        {
          "indexed": true,
          "name": "to",
          "type": "address"
        },
        {
          "indexed": false,
          "name": "value",
          "type": "uint256"
        }
      ],
      "name": "Transfer",
      "type": "event"
    },
    {
      "constant": false,
      "inputs": [
        {
          "name": "addr",
          "type": "address"
        }
      ],
      "name": "finalizeReservedAddress",
      "outputs": [],
      "payable": false,
      "stateMutability": "nonpayable",
      "type": "function"
    },
    {
      "constant": true,
      "inputs": [
        {
          "name": "addr",
          "type": "address"
        }
      ],
      "name": "isAddressReserved",
      "outputs": [
        {
          "name": "isReserved",
          "type": "bool"
        }
      ],
      "payable": false,
      "stateMutability": "view",
      "type": "function"
    },
    {
      "constant": true,
      "inputs": [
        {
          "name": "addr",
          "type": "address"
        }
      ],
      "name": "areTokensDistributedForAddress",
      "outputs": [
        {
          "name": "isDistributed",
          "type": "bool"
        }
      ],
      "payable": false,
      "stateMutability": "view",
      "type": "function"
    },
    {
      "constant": true,
      "inputs": [
        {
          "name": "addr",
          "type": "address"
        }
      ],
      "name": "getReservedTokens",
      "outputs": [
        {
          "name": "inTokens",
          "type": "uint256"
        }
      ],
      "payable": false,
      "stateMutability": "view",
      "type": "function"
    },
    {
      "constant": true,
      "inputs": [
        {
          "name": "addr",
          "type": "address"
        }
      ],
      "name": "getReservedPercentageUnit",
      "outputs": [
        {
          "name": "inPercentageUnit",
          "type": "uint256"
        }
      ],
      "payable": false,
      "stateMutability": "view",
      "type": "function"
    },
    {
      "constant": true,
      "inputs": [
        {
          "name": "addr",
          "type": "address"
        }
      ],
      "name": "getReservedPercentageDecimals",
      "outputs": [
        {
          "name": "inPercentageDecimals",
          "type": "uint256"
        }
      ],
      "payable": false,
      "stateMutability": "view",
      "type": "function"
    },
    {
      "constant": false,
      "inputs": [
        {
          "name": "addrs",
          "type": "address[]"
        },
        {
          "name": "inTokens",
          "type": "uint256[]"
        },
        {
          "name": "inPercentageUnit",
          "type": "uint256[]"
        },
        {
          "name": "inPercentageDecimals",
          "type": "uint256[]"
        }
      ],
      "name": "setReservedTokensListMultiple",
      "outputs": [],
      "payable": false,
      "stateMutability": "nonpayable",
      "type": "function"
    },
    {
      "constant": false,
      "inputs": [
        {
          "name": "receiver",
          "type": "address"
        },
        {
          "name": "amount",
          "type": "uint256"
        }
      ],
      "name": "mint",
      "outputs": [],
      "payable": false,
      "stateMutability": "nonpayable",
      "type": "function"
    },
    {
      "constant": false,
      "inputs": [
        {
          "name": "addr",
          "type": "address"
        },
        {
          "name": "state",
          "type": "bool"
        }
      ],
      "name": "setMintAgent",
      "outputs": [],
      "payable": false,
      "stateMutability": "nonpayable",
      "type": "function"
    }
  ],
  "bytecode": "0x60806040526000600360146101000a81548160ff02191690831515021790555060006007556000600860006101000a81548160ff02191690831515021790555033600360006101000a81548173ffffffffffffffffffffffffffffffffffffffff021916908373ffffffffffffffffffffffffffffffffffffffff1602179055506121178061008f6000396000f300608060405260043610610149576000357c0100000000000000000000000000000000000000000000000000000000900463ffffffff16806305d2035b1461014e578063095ea7b31461017d57806318160ddd146101e257806323b872dd1461020d57806327e235e3146102925780633d0acdaa146102e957806340c10f191461034057806342c1867b1461038d57806343214675146103e857806345e7e1401461043757806351ed17a41461048e5780635c65816514610509578063612544b3146105805780636ffc22b8146105d757806370a082311461061a5780637386f0a7146106715780638da5cb5b146106de57806395fe6f1d14610735578063a9059cbb14610790578063b4ecb847146107f5578063c331051714610850578063dd62ed3e1461087b578063eefa597b146108f2578063f05834d614610921578063f2fde38b14610a50575b600080fd5b34801561015a57600080fd5b50610163610a93565b604051808215151515815260200191505060405180910390f35b34801561018957600080fd5b506101c8600480360381019080803573ffffffffffffffffffffffffffffffffffffffff16906020019092919080359060200190929190505050610aa6565b604051808215151515815260200191505060405180910390f35b3480156101ee57600080fd5b506101f7610c2f565b6040518082815260200191505060405180910390f35b34801561021957600080fd5b50610278600480360381019080803573ffffffffffffffffffffffffffffffffffffffff169060200190929190803573ffffffffffffffffffffffffffffffffffffffff16906020019092919080359060200190929190505050610c35565b604051808215151515815260200191505060405180910390f35b34801561029e57600080fd5b506102d3600480360381019080803573ffffffffffffffffffffffffffffffffffffffff1690602001909291905050506110bc565b6040518082815260200191505060405180910390f35b3480156102f557600080fd5b5061032a600480360381019080803573ffffffffffffffffffffffffffffffffffffffff1690602001909291905050506110d4565b6040518082815260200191505060405180910390f35b34801561034c57600080fd5b5061038b600480360381019080803573ffffffffffffffffffffffffffffffffffffffff16906020019092919080359060200190929190505050611120565b005b34801561039957600080fd5b506103ce600480360381019080803573ffffffffffffffffffffffffffffffffffffffff1690602001909291905050506113d0565b604051808215151515815260200191505060405180910390f35b3480156103f457600080fd5b50610435600480360381019080803573ffffffffffffffffffffffffffffffffffffffff1690602001909291908035151590602001909291905050506113f0565b005b34801561044357600080fd5b50610478600480360381019080803573ffffffffffffffffffffffffffffffffffffffff169060200190929190505050611530565b6040518082815260200191505060405180910390f35b34801561049a57600080fd5b506104cf600480360381019080803573ffffffffffffffffffffffffffffffffffffffff16906020019092919050505061157c565b6040518086815260200185815260200184815260200183151515158152602001821515151581526020019550505050505060405180910390f35b34801561051557600080fd5b5061056a600480360381019080803573ffffffffffffffffffffffffffffffffffffffff169060200190929190803573ffffffffffffffffffffffffffffffffffffffff1690602001909291905050506115cc565b6040518082815260200191505060405180910390f35b34801561058c57600080fd5b506105c1600480360381019080803573ffffffffffffffffffffffffffffffffffffffff1690602001909291905050506115f1565b6040518082815260200191505060405180910390f35b3480156105e357600080fd5b50610618600480360381019080803573ffffffffffffffffffffffffffffffffffffffff16906020019092919050505061163d565b005b34801561062657600080fd5b5061065b600480360381019080803573ffffffffffffffffffffffffffffffffffffffff169060200190929190505050611713565b6040518082815260200191505060405180910390f35b34801561067d57600080fd5b5061069c6004803603810190808035906020019092919050505061175c565b604051808273ffffffffffffffffffffffffffffffffffffffff1673ffffffffffffffffffffffffffffffffffffffff16815260200191505060405180910390f35b3480156106ea57600080fd5b506106f361179a565b604051808273ffffffffffffffffffffffffffffffffffffffff1673ffffffffffffffffffffffffffffffffffffffff16815260200191505060405180910390f35b34801561074157600080fd5b50610776600480360381019080803573ffffffffffffffffffffffffffffffffffffffff1690602001909291905050506117c0565b604051808215151515815260200191505060405180910390f35b34801561079c57600080fd5b506107db600480360381019080803573ffffffffffffffffffffffffffffffffffffffff16906020019092919080359060200190929190505050611819565b604051808215151515815260200191505060405180910390f35b34801561080157600080fd5b50610836600480360381019080803573ffffffffffffffffffffffffffffffffffffffff169060200190929190505050611aee565b604051808215151515815260200191505060405180910390f35b34801561085c57600080fd5b50610865611b47565b6040518082815260200191505060405180910390f35b34801561088757600080fd5b506108dc600480360381019080803573ffffffffffffffffffffffffffffffffffffffff169060200190929190803573ffffffffffffffffffffffffffffffffffffffff169060200190929190505050611b4d565b6040518082815260200191505060405180910390f35b3480156108fe57600080fd5b50610907611bd4565b604051808215151515815260200191505060405180910390f35b34801561092d57600080fd5b50610a4e60048036038101908080359060200190820180359060200190808060200260200160405190810160405280939291908181526020018383602002808284378201915050505050509192919290803590602001908201803590602001908080602002602001604051908101604052809392919081815260200183836020028082843782019150505050505091929192908035906020019082018035906020019080806020026020016040519081016040528093929190818152602001838360200280828437820191505050505050919291929080359060200190820180359060200190808060200260200160405190810160405280939291908181526020018383602002808284378201915050505050509192919290505050611bdd565b005b348015610a5c57600080fd5b50610a91600480360381019080803573ffffffffffffffffffffffffffffffffffffffff169060200190929190505050611d88565b005b600360149054906101000a900460ff1681565b6000808214158015610b3557506000600260003373ffffffffffffffffffffffffffffffffffffffff1673ffffffffffffffffffffffffffffffffffffffff16815260200190815260200160002060008573ffffffffffffffffffffffffffffffffffffffff1673ffffffffffffffffffffffffffffffffffffffff1681526020019081526020016000205414155b15610b3f57600080fd5b81600260003373ffffffffffffffffffffffffffffffffffffffff1673ffffffffffffffffffffffffffffffffffffffff16815260200190815260200160002060008573ffffffffffffffffffffffffffffffffffffffff1673ffffffffffffffffffffffffffffffffffffffff168152602001908152602001600020819055508273ffffffffffffffffffffffffffffffffffffffff163373ffffffffffffffffffffffffffffffffffffffff167f8c5be1e5ebec7d5bd14f71427d1e84f3dd0314c0f7b2291e5b200ac8c7c3b925846040518082815260200191505060405180910390a36001905092915050565b60005481565b600080600260008673ffffffffffffffffffffffffffffffffffffffff1673ffffffffffffffffffffffffffffffffffffffff16815260200190815260200160002060003373ffffffffffffffffffffffffffffffffffffffff1673ffffffffffffffffffffffffffffffffffffffff168152602001908152602001600020549050600160008573ffffffffffffffffffffffffffffffffffffffff1673ffffffffffffffffffffffffffffffffffffffff1681526020019081526020016000205473__SafeMathLibExt________________________6366098d4f9091856040518363ffffffff167c0100000000000000000000000000000000000000000000000000000000028152600401808381526020018281526020019250505060206040518083038186803b158015610d6b57600080fd5b505af4158015610d7f573d6000803e3d6000fd5b505050506040513d6020811015610d9557600080fd5b8101908080519060200190929190505050600160008673ffffffffffffffffffffffffffffffffffffffff1673ffffffffffffffffffffffffffffffffffffffff16815260200190815260200160002081905550600160008673ffffffffffffffffffffffffffffffffffffffff1673ffffffffffffffffffffffffffffffffffffffff1681526020019081526020016000205473__SafeMathLibExt________________________63f4f3bdc19091856040518363ffffffff167c0100000000000000000000000000000000000000000000000000000000028152600401808381526020018281526020019250505060206040518083038186803b158015610e9d57600080fd5b505af4158015610eb1573d6000803e3d6000fd5b505050506040513d6020811015610ec757600080fd5b8101908080519060200190929190505050600160008773ffffffffffffffffffffffffffffffffffffffff1673ffffffffffffffffffffffffffffffffffffffff168152602001908152602001600020819055508073__SafeMathLibExt________________________63f4f3bdc19091856040518363ffffffff167c0100000000000000000000000000000000000000000000000000000000028152600401808381526020018281526020019250505060206040518083038186803b158015610f9057600080fd5b505af4158015610fa4573d6000803e3d6000fd5b505050506040513d6020811015610fba57600080fd5b8101908080519060200190929190505050600260008773ffffffffffffffffffffffffffffffffffffffff1673ffffffffffffffffffffffffffffffffffffffff16815260200190815260200160002060003373ffffffffffffffffffffffffffffffffffffffff1673ffffffffffffffffffffffffffffffffffffffff168152602001908152602001600020819055508373ffffffffffffffffffffffffffffffffffffffff168573ffffffffffffffffffffffffffffffffffffffff167fddf252ad1be2c89b69c2b068fc378daa952ba7f163c4a11628f55a4df523b3ef856040518082815260200191505060405180910390a360019150509392505050565b60016020528060005260406000206000915090505481565b6000600560008373ffffffffffffffffffffffffffffffffffffffff1673ffffffffffffffffffffffffffffffffffffffff168152602001908152602001600020600101549050919050565b600460003373ffffffffffffffffffffffffffffffffffffffff1673ffffffffffffffffffffffffffffffffffffffff16815260200190815260200160002060009054906101000a900460ff16151561117857600080fd5b600360149054906101000a900460ff161561119257600080fd5b60005473__SafeMathLibExt________________________6366098d4f9091836040518363ffffffff167c0100000000000000000000000000000000000000000000000000000000028152600401808381526020018281526020019250505060206040518083038186803b15801561120957600080fd5b505af415801561121d573d6000803e3d6000fd5b505050506040513d602081101561123357600080fd5b8101908080519060200190929190505050600081905550600160008373ffffffffffffffffffffffffffffffffffffffff1673ffffffffffffffffffffffffffffffffffffffff1681526020019081526020016000205473__SafeMathLibExt________________________6366098d4f9091836040518363ffffffff167c0100000000000000000000000000000000000000000000000000000000028152600401808381526020018281526020019250505060206040518083038186803b1580156112fe57600080fd5b505af4158015611312573d6000803e3d6000fd5b505050506040513d602081101561132857600080fd5b8101908080519060200190929190505050600160008473ffffffffffffffffffffffffffffffffffffffff1673ffffffffffffffffffffffffffffffffffffffff168152602001908152602001600020819055508173ffffffffffffffffffffffffffffffffffffffff1660007fddf252ad1be2c89b69c2b068fc378daa952ba7f163c4a11628f55a4df523b3ef836040518082815260200191505060405180910390a35050565b60046020528060005260406000206000915054906101000a900460ff1681565b600360009054906101000a900473ffffffffffffffffffffffffffffffffffffffff1673ffffffffffffffffffffffffffffffffffffffff163373ffffffffffffffffffffffffffffffffffffffff1614151561144c57600080fd5b600360149054906101000a900460ff161561146657600080fd5b80600460008473ffffffffffffffffffffffffffffffffffffffff1673ffffffffffffffffffffffffffffffffffffffff16815260200190815260200160002060006101000a81548160ff0219169083151502179055507f4b0adf6c802794c7dde28a08a4e07131abcff3bf9603cd71f14f90bec7865efa8282604051808373ffffffffffffffffffffffffffffffffffffffff1673ffffffffffffffffffffffffffffffffffffffff168152602001821515151581526020019250505060405180910390a15050565b6000600560008373ffffffffffffffffffffffffffffffffffffffff1673ffffffffffffffffffffffffffffffffffffffff168152602001908152602001600020600201549050919050565b60056020528060005260406000206000915090508060000154908060010154908060020154908060030160009054906101000a900460ff16908060030160019054906101000a900460ff16905085565b6002602052816000526040600020602052806000526040600020600091509150505481565b6000600560008373ffffffffffffffffffffffffffffffffffffffff1673ffffffffffffffffffffffffffffffffffffffff168152602001908152602001600020600001549050919050565b6000600460003373ffffffffffffffffffffffffffffffffffffffff1673ffffffffffffffffffffffffffffffffffffffff16815260200190815260200160002060009054906101000a900460ff16151561169757600080fd5b600360149054906101000a900460ff16156116b157600080fd5b600560008373ffffffffffffffffffffffffffffffffffffffff1673ffffffffffffffffffffffffffffffffffffffff168152602001908152602001600020905060018160030160016101000a81548160ff0219169083151502179055505050565b6000600160008373ffffffffffffffffffffffffffffffffffffffff1673ffffffffffffffffffffffffffffffffffffffff168152602001908152602001600020549050919050565b60068181548110151561176b57fe5b906000526020600020016000915054906101000a900473ffffffffffffffffffffffffffffffffffffffff1681565b600360009054906101000a900473ffffffffffffffffffffffffffffffffffffffff1681565b6000600560008373ffffffffffffffffffffffffffffffffffffffff1673ffffffffffffffffffffffffffffffffffffffff16815260200190815260200160002060030160009054906101000a900460ff169050919050565b6000600160003373ffffffffffffffffffffffffffffffffffffffff1673ffffffffffffffffffffffffffffffffffffffff1681526020019081526020016000205473__SafeMathLibExt________________________63f4f3bdc19091846040518363ffffffff167c0100000000000000000000000000000000000000000000000000000000028152600401808381526020018281526020019250505060206040518083038186803b1580156118cf57600080fd5b505af41580156118e3573d6000803e3d6000fd5b505050506040513d60208110156118f957600080fd5b8101908080519060200190929190505050600160003373ffffffffffffffffffffffffffffffffffffffff1673ffffffffffffffffffffffffffffffffffffffff16815260200190815260200160002081905550600160008473ffffffffffffffffffffffffffffffffffffffff1673ffffffffffffffffffffffffffffffffffffffff1681526020019081526020016000205473__SafeMathLibExt________________________6366098d4f9091846040518363ffffffff167c0100000000000000000000000000000000000000000000000000000000028152600401808381526020018281526020019250505060206040518083038186803b158015611a0157600080fd5b505af4158015611a15573d6000803e3d6000fd5b505050506040513d6020811015611a2b57600080fd5b8101908080519060200190929190505050600160008573ffffffffffffffffffffffffffffffffffffffff1673ffffffffffffffffffffffffffffffffffffffff168152602001908152602001600020819055508273ffffffffffffffffffffffffffffffffffffffff163373ffffffffffffffffffffffffffffffffffffffff167fddf252ad1be2c89b69c2b068fc378daa952ba7f163c4a11628f55a4df523b3ef846040518082815260200191505060405180910390a36001905092915050565b6000600560008373ffffffffffffffffffffffffffffffffffffffff1673ffffffffffffffffffffffffffffffffffffffff16815260200190815260200160002060030160019054906101000a900460ff169050919050565b60075481565b6000600260008473ffffffffffffffffffffffffffffffffffffffff1673ffffffffffffffffffffffffffffffffffffffff16815260200190815260200160002060008373ffffffffffffffffffffffffffffffffffffffff1673ffffffffffffffffffffffffffffffffffffffff16815260200190815260200160002054905092915050565b60006001905090565b6000600360149054906101000a900460ff1615611bf957600080fd5b600360009054906101000a900473ffffffffffffffffffffffffffffffffffffffff1673ffffffffffffffffffffffffffffffffffffffff163373ffffffffffffffffffffffffffffffffffffffff16141515611c5557600080fd5b600860009054906101000a900460ff16151515611c6e57fe5b83518551141515611c7b57fe5b82518451141515611c8857fe5b81518351141515611c9557fe5b600090505b8451811015611d6657600073ffffffffffffffffffffffffffffffffffffffff168582815181101515611cc957fe5b9060200190602002015173ffffffffffffffffffffffffffffffffffffffff16141515611d5957611d588582815181101515611d0157fe5b906020019060200201518583815181101515611d1957fe5b906020019060200201518584815181101515611d3157fe5b906020019060200201518585815181101515611d4957fe5b90602001906020020151611ee0565b5b8080600101915050611c9a565b6001600860006101000a81548160ff0219169083151502179055505050505050565b600360009054906101000a900473ffffffffffffffffffffffffffffffffffffffff1673ffffffffffffffffffffffffffffffffffffffff163373ffffffffffffffffffffffffffffffffffffffff16141515611de457600080fd5b600073ffffffffffffffffffffffffffffffffffffffff168173ffffffffffffffffffffffffffffffffffffffff1614151515611e2057600080fd5b8073ffffffffffffffffffffffffffffffffffffffff16600360009054906101000a900473ffffffffffffffffffffffffffffffffffffffff1673ffffffffffffffffffffffffffffffffffffffff167f8be0079c531659141344cd1fd0a4f28419497f9722a3daafe3b4186f6b6457e060405160405180910390a380600360006101000a81548173ffffffffffffffffffffffffffffffffffffffff021916908373ffffffffffffffffffffffffffffffffffffffff16021790555050565b600360149054906101000a900460ff1615611efa57600080fd5b600360009054906101000a900473ffffffffffffffffffffffffffffffffffffffff1673ffffffffffffffffffffffffffffffffffffffff163373ffffffffffffffffffffffffffffffffffffffff16141515611f5657600080fd5b600073ffffffffffffffffffffffffffffffffffffffff168473ffffffffffffffffffffffffffffffffffffffff1614151515611f8f57fe5b611f98846117c0565b15156120175760068490806001815401808255809150509060018203906000526020600020016000909192909190916101000a81548173ffffffffffffffffffffffffffffffffffffffff021916908373ffffffffffffffffffffffffffffffffffffffff160217905550506007600081548092919060010191905055505b60a06040519081016040528084815260200183815260200182815260200160011515815260200160001515815250600560008673ffffffffffffffffffffffffffffffffffffffff1673ffffffffffffffffffffffffffffffffffffffff16815260200190815260200160002060008201518160000155602082015181600101556040820151816002015560608201518160030160006101000a81548160ff02191690831515021790555060808201518160030160016101000a81548160ff021916908315150217905550905050505050505600a165627a7a72305820f8ea97b588ba9af38d364db881774485d02d241a1d7a4e4f7662188cbaeebb510029",
  "source": "/**\r\n * This smart contract code is Copyright 2017 TokenMarket Ltd. For more information see https://tokenmarket.net\r\n *\r\n * Licensed under the Apache License, version 2.0: https://github.com/TokenMarketNet/ico/blob/master/LICENSE.txt\r\n */\r\npragma solidity 0.4.24;\r\n\r\nimport \"./ERC20.sol\";\r\nimport \"./Ownable.sol\";\r\nimport \"./StandardToken.sol\";\r\nimport \"./SafeMathLibExt.sol\";\r\n\r\n\r\n/**\r\n * A token that can increase its supply by another contract.\r\n *\r\n * This allows uncapped crowdsale by dynamically increasing the supply when money pours in.\r\n * Only mint agents, contracts whitelisted by owner, can mint new tokens.\r\n *\r\n */\r\ncontract MintableTokenExt is StandardToken, Ownable {\r\n\r\n    using SafeMathLibExt for uint;\r\n\r\n    bool public mintingFinished = false;\r\n\r\n    /** List of agents that are allowed to create new tokens */\r\n    mapping (address => bool) public mintAgents;\r\n\r\n    event MintingAgentChanged(address addr, bool state  );\r\n\r\n    /** inPercentageUnit is percents of tokens multiplied to 10 up to percents decimals.\r\n    * For example, for reserved tokens in percents 2.54%\r\n    * inPercentageUnit = 254\r\n    * inPercentageDecimals = 2\r\n    */\r\n    struct ReservedTokensData {\r\n        uint inTokens;\r\n        uint inPercentageUnit;\r\n        uint inPercentageDecimals;\r\n        bool isReserved;\r\n        bool isDistributed;\r\n    }\r\n\r\n    mapping (address => ReservedTokensData) public reservedTokensList;\r\n    address[] public reservedTokensDestinations;\r\n    uint public reservedTokensDestinationsLen = 0;\r\n    bool private reservedTokensDestinationsAreSet = false;\r\n\r\n    modifier onlyMintAgent() {\r\n        // Only crowdsale contracts are allowed to mint new tokens\r\n        if (!mintAgents[msg.sender]) {\r\n            revert();\r\n        }\r\n        _;\r\n    }\r\n\r\n    /** Make sure we are not done yet. */\r\n    modifier canMint() {\r\n        if (mintingFinished) revert();\r\n        _;\r\n    }\r\n\r\n    function finalizeReservedAddress(address addr) public onlyMintAgent canMint {\r\n        ReservedTokensData storage reservedTokensData = reservedTokensList[addr];\r\n        reservedTokensData.isDistributed = true;\r\n    }\r\n\r\n    function isAddressReserved(address addr) public view returns (bool isReserved) {\r\n        return reservedTokensList[addr].isReserved;\r\n    }\r\n\r\n    function areTokensDistributedForAddress(address addr) public view returns (bool isDistributed) {\r\n        return reservedTokensList[addr].isDistributed;\r\n    }\r\n\r\n    function getReservedTokens(address addr) public view returns (uint inTokens) {\r\n        return reservedTokensList[addr].inTokens;\r\n    }\r\n\r\n    function getReservedPercentageUnit(address addr) public view returns (uint inPercentageUnit) {\r\n        return reservedTokensList[addr].inPercentageUnit;\r\n    }\r\n\r\n    function getReservedPercentageDecimals(address addr) public view returns (uint inPercentageDecimals) {\r\n        return reservedTokensList[addr].inPercentageDecimals;\r\n    }\r\n\r\n    function setReservedTokensListMultiple(\r\n        address[] addrs, \r\n        uint[] inTokens, \r\n        uint[] inPercentageUnit, \r\n        uint[] inPercentageDecimals\r\n        ) public canMint onlyOwner {\r\n        assert(!reservedTokensDestinationsAreSet);\r\n        assert(addrs.length == inTokens.length);\r\n        assert(inTokens.length == inPercentageUnit.length);\r\n        assert(inPercentageUnit.length == inPercentageDecimals.length);\r\n        for (uint iterator = 0; iterator < addrs.length; iterator++) {\r\n            if (addrs[iterator] != address(0)) {\r\n                setReservedTokensList(\r\n                    addrs[iterator],\r\n                    inTokens[iterator],\r\n                    inPercentageUnit[iterator],\r\n                    inPercentageDecimals[iterator]);\r\n            }\r\n        }\r\n        reservedTokensDestinationsAreSet = true;\r\n    }\r\n\r\n    /**\r\n    * Create new tokens and allocate them to an address..\r\n    *\r\n    * Only callably by a crowdsale contract (mint agent).\r\n    */\r\n    function mint(address receiver, uint amount) public onlyMintAgent canMint {\r\n        totalSupply = totalSupply.plus(amount);\r\n        balances[receiver] = balances[receiver].plus(amount);\r\n\r\n        // This will make the mint transaction apper in EtherScan.io\r\n        // We can remove this after there is a standardized minting event\r\n        emit Transfer(0, receiver, amount);\r\n    }\r\n\r\n    /**\r\n    * Owner can allow a crowdsale contract to mint new tokens.\r\n    */\r\n    function setMintAgent(address addr, bool state) public onlyOwner canMint {\r\n        mintAgents[addr] = state;\r\n        emit MintingAgentChanged(addr, state);\r\n    }\r\n\r\n    function setReservedTokensList(address addr, uint inTokens, uint inPercentageUnit, uint inPercentageDecimals) \r\n    private canMint onlyOwner {\r\n        assert(addr != address(0));\r\n        if (!isAddressReserved(addr)) {\r\n            reservedTokensDestinations.push(addr);\r\n            reservedTokensDestinationsLen++;\r\n        }\r\n\r\n        reservedTokensList[addr] = ReservedTokensData({\r\n            inTokens: inTokens,\r\n            inPercentageUnit: inPercentageUnit,\r\n            inPercentageDecimals: inPercentageDecimals,\r\n            isReserved: true,\r\n            isDistributed: false\r\n        });\r\n    }\r\n}",
  "sourcePath": "D:\\Utix Workspace\\UtixTokenSmartContract\\contracts\\MintableTokenExt.sol",
  "compiler": {
    "name": "solc",
    "version": "0.4.24+commit.e67f0147.Emscripten.clang"
  },
  "schemaVersion": "2.0.1",
  "updatedAt": "2018-09-18T13:44:26.831Z"
}