{
  "contractName": "ReservedTokensFinalizeAgent",
  "abi": [
    {
      "constant": true,
      "inputs": [],
      "name": "isFinalizeAgent",
      "outputs": [
        {
          "name": "",
          "type": "bool"
        }
      ],
      "payable": false,
      "stateMutability": "pure",
      "type": "function"
    },
    {
      "constant": true,
      "inputs": [],
      "name": "crowdsale",
      "outputs": [
        {
          "name": "",
          "type": "address"
        }
      ],
      "payable": false,
      "stateMutability": "view",
      "type": "function"
    },
    {
      "constant": true,
      "inputs": [],
      "name": "distributedReservedTokensDestinationsLen",
      "outputs": [
        {
          "name": "",
          "type": "uint256"
        }
      ],
      "payable": false,
      "stateMutability": "view",
      "type": "function"
    },
    {
      "constant": true,
      "inputs": [],
      "name": "reservedTokensAreDistributed",
      "outputs": [
        {
          "name": "",
          "type": "bool"
        }
      ],
      "payable": false,
      "stateMutability": "view",
      "type": "function"
    },
    {
      "constant": true,
      "inputs": [],
      "name": "token",
      "outputs": [
        {
          "name": "",
          "type": "address"
        }
      ],
      "payable": false,
      "stateMutability": "view",
      "type": "function"
    },
    {
      "inputs": [
        {
          "name": "_token",
          "type": "address"
        },
        {
          "name": "_crowdsale",
          "type": "address"
        }
      ],
      "payable": false,
      "stateMutability": "nonpayable",
      "type": "constructor"
    },
    {
      "constant": true,
      "inputs": [],
      "name": "isSane",
      "outputs": [
        {
          "name": "",
          "type": "bool"
        }
      ],
      "payable": false,
      "stateMutability": "view",
      "type": "function"
    },
    {
      "constant": false,
      "inputs": [
        {
          "name": "_token",
          "type": "address"
        }
      ],
      "name": "setCrowdsaleTokenExtv1",
      "outputs": [],
      "payable": false,
      "stateMutability": "nonpayable",
      "type": "function"
    },
    {
      "constant": false,
      "inputs": [
        {
          "name": "reservedTokensDistributionBatch",
          "type": "uint256"
        }
      ],
      "name": "distributeReservedTokens",
      "outputs": [],
      "payable": false,
      "stateMutability": "nonpayable",
      "type": "function"
    },
    {
      "constant": false,
      "inputs": [],
      "name": "finalizeCrowdsale",
      "outputs": [],
      "payable": false,
      "stateMutability": "nonpayable",
      "type": "function"
    }
  ],
  "bytecode": "0x608060405260008060006101000a81548160ff021916908315150217905550600060025534801561002f57600080fd5b5060405160408061164d833981018060405281019080805190602001909291908051906020019092919050505081600060016101000a81548173ffffffffffffffffffffffffffffffffffffffff021916908373ffffffffffffffffffffffffffffffffffffffff16021790555080600160006101000a81548173ffffffffffffffffffffffffffffffffffffffff021916908373ffffffffffffffffffffffffffffffffffffffff160217905550505061155e806100ef6000396000f300608060405260043610610099576000357c0100000000000000000000000000000000000000000000000000000000900463ffffffff1680630bf318a31461009e578063614cb904146100b557806382771c8e146100e45780639c1e03a014610113578063c71a7aea1461016a578063cddaf24114610195578063f282f551146101c2578063f9cb6d7a14610205578063fc0c546a14610234575b600080fd5b3480156100aa57600080fd5b506100b361028b565b005b3480156100c157600080fd5b506100ca610464565b604051808215151515815260200191505060405180910390f35b3480156100f057600080fd5b506100f961046d565b604051808215151515815260200191505060405180910390f35b34801561011f57600080fd5b50610128610563565b604051808273ffffffffffffffffffffffffffffffffffffffff1673ffffffffffffffffffffffffffffffffffffffff16815260200191505060405180910390f35b34801561017657600080fd5b5061017f610589565b6040518082815260200191505060405180910390f35b3480156101a157600080fd5b506101c06004803603810190808035906020019092919050505061058f565b005b3480156101ce57600080fd5b50610203600480360381019080803573ffffffffffffffffffffffffffffffffffffffff16906020019092919050505061145d565b005b34801561021157600080fd5b5061021a6114fa565b604051808215151515815260200191505060405180910390f35b34801561024057600080fd5b5061024961150c565b604051808273ffffffffffffffffffffffffffffffffffffffff1673ffffffffffffffffffffffffffffffffffffffff16815260200191505060405180910390f35b600160009054906101000a900473ffffffffffffffffffffffffffffffffffffffff1673ffffffffffffffffffffffffffffffffffffffff163373ffffffffffffffffffffffffffffffffffffffff161415156102e457fe5b60008060019054906101000a900473ffffffffffffffffffffffffffffffffffffffff1673ffffffffffffffffffffffffffffffffffffffff1663c33105176040518163ffffffff167c0100000000000000000000000000000000000000000000000000000000028152600401602060405180830381600087803b15801561036b57600080fd5b505af115801561037f573d6000803e3d6000fd5b505050506040513d602081101561039557600080fd5b810190808051906020019092919050505011156103c4576000809054906101000a900460ff1615156103c357fe5b5b600060019054906101000a900473ffffffffffffffffffffffffffffffffffffffff1673ffffffffffffffffffffffffffffffffffffffff16635f412d4f6040518163ffffffff167c0100000000000000000000000000000000000000000000000000000000028152600401600060405180830381600087803b15801561044a57600080fd5b505af115801561045e573d6000803e3d6000fd5b50505050565b60006001905090565b60003073ffffffffffffffffffffffffffffffffffffffff16600060019054906101000a900473ffffffffffffffffffffffffffffffffffffffff1673ffffffffffffffffffffffffffffffffffffffff1663d1f276d36040518163ffffffff167c0100000000000000000000000000000000000000000000000000000000028152600401602060405180830381600087803b15801561050c57600080fd5b505af1158015610520573d6000803e3d6000fd5b505050506040513d602081101561053657600080fd5b810190808051906020019092919050505073ffffffffffffffffffffffffffffffffffffffff1614905090565b600160009054906101000a900473ffffffffffffffffffffffffffffffffffffffff1681565b60025481565b600080600080600080600080600080600080600160009054906101000a900473ffffffffffffffffffffffffffffffffffffffff1673ffffffffffffffffffffffffffffffffffffffff163373ffffffffffffffffffffffffffffffffffffffff161415156105fa57fe5b60008d11151561060657fe5b6000809054906101000a900460ff1615151561061e57fe5b600060019054906101000a900473ffffffffffffffffffffffffffffffffffffffff1673ffffffffffffffffffffffffffffffffffffffff1663c33105176040518163ffffffff167c0100000000000000000000000000000000000000000000000000000000028152600401602060405180830381600087803b1580156106a457600080fd5b505af11580156106b8573d6000803e3d6000fd5b505050506040513d60208110156106ce57600080fd5b81019080805190602001909291905050506002541015156106eb57fe5b60009b5060009a505b600160009054906101000a900473ffffffffffffffffffffffffffffffffffffffff1673ffffffffffffffffffffffffffffffffffffffff1663ebdfa4556040518163ffffffff167c0100000000000000000000000000000000000000000000000000000000028152600401602060405180830381600087803b15801561077a57600080fd5b505af115801561078e573d6000803e3d6000fd5b505050506040513d60208110156107a457600080fd5b810190808051906020019092919050505060ff168b60ff1610156109f057600160009054906101000a900473ffffffffffffffffffffffffffffffffffffffff1673ffffffffffffffffffffffffffffffffffffffff1663bede2cac8c6040518263ffffffff167c0100000000000000000000000000000000000000000000000000000000028152600401808260ff168152602001915050602060405180830381600087803b15801561085657600080fd5b505af115801561086a573d6000803e3d6000fd5b505050506040513d602081101561088057600080fd5b810190808051906020019092919050505099508b73__SafeMathLibExt________________________6366098d4f90918c73ffffffffffffffffffffffffffffffffffffffff1663518ab2a86040518163ffffffff167c0100000000000000000000000000000000000000000000000000000000028152600401602060405180830381600087803b15801561091457600080fd5b505af1158015610928573d6000803e3d6000fd5b505050506040513d602081101561093e57600080fd5b81019080805190602001909291905050506040518363ffffffff167c0100000000000000000000000000000000000000000000000000000000028152600401808381526020018281526020019250505060206040518083038186803b1580156109a657600080fd5b505af41580156109ba573d6000803e3d6000fd5b505050506040513d60208110156109d057600080fd5b81019080805190602001909291905050509b508a806001019b50506106f4565b6002549850600060019054906101000a900473ffffffffffffffffffffffffffffffffffffffff1673ffffffffffffffffffffffffffffffffffffffff1663c33105176040518163ffffffff167c0100000000000000000000000000000000000000000000000000000000028152600401602060405180830381600087803b158015610a7b57600080fd5b505af1158015610a8f573d6000803e3d6000fd5b505050506040513d6020811015610aa557600080fd5b810190808051906020019092919050505073__SafeMathLibExt________________________63f4f3bdc190916002546040518363ffffffff167c0100000000000000000000000000000000000000000000000000000000028152600401808381526020018281526020019250505060206040518083038186803b158015610b2c57600080fd5b505af4158015610b40573d6000803e3d6000fd5b505050506040513d6020811015610b5657600080fd5b810190808051906020019092919050505097508c88101515610b76578c97505b87890196508895505b8686101561136957600060019054906101000a900473ffffffffffffffffffffffffffffffffffffffff1673ffffffffffffffffffffffffffffffffffffffff16637386f0a7876040518263ffffffff167c010000000000000000000000000000000000000000000000000000000002815260040180828152602001915050602060405180830381600087803b158015610c1857600080fd5b505af1158015610c2c573d6000803e3d6000fd5b505050506040513d6020811015610c4257600080fd5b81019080805190602001909291905050509450600060019054906101000a900473ffffffffffffffffffffffffffffffffffffffff1673ffffffffffffffffffffffffffffffffffffffff1663b4ecb847866040518263ffffffff167c0100000000000000000000000000000000000000000000000000000000028152600401808273ffffffffffffffffffffffffffffffffffffffff1673ffffffffffffffffffffffffffffffffffffffff168152602001915050602060405180830381600087803b158015610d1257600080fd5b505af1158015610d26573d6000803e3d6000fd5b505050506040513d6020811015610d3c57600080fd5b8101908080519060200190929190505050151561135c57600060019054906101000a900473ffffffffffffffffffffffffffffffffffffffff1673ffffffffffffffffffffffffffffffffffffffff1663612544b3866040518263ffffffff167c0100000000000000000000000000000000000000000000000000000000028152600401808273ffffffffffffffffffffffffffffffffffffffff1673ffffffffffffffffffffffffffffffffffffffff168152602001915050602060405180830381600087803b158015610e1057600080fd5b505af1158015610e24573d6000803e3d6000fd5b505050506040513d6020811015610e3a57600080fd5b81019080805190602001909291905050509250600060019054906101000a900473ffffffffffffffffffffffffffffffffffffffff1673ffffffffffffffffffffffffffffffffffffffff16633d0acdaa866040518263ffffffff167c0100000000000000000000000000000000000000000000000000000000028152600401808273ffffffffffffffffffffffffffffffffffffffff1673ffffffffffffffffffffffffffffffffffffffff168152602001915050602060405180830381600087803b158015610f0a57600080fd5b505af1158015610f1e573d6000803e3d6000fd5b505050506040513d6020811015610f3457600080fd5b81019080805190602001909291905050509150600060019054906101000a900473ffffffffffffffffffffffffffffffffffffffff1673ffffffffffffffffffffffffffffffffffffffff166345e7e140866040518263ffffffff167c0100000000000000000000000000000000000000000000000000000000028152600401808273ffffffffffffffffffffffffffffffffffffffff1673ffffffffffffffffffffffffffffffffffffffff168152602001915050602060405180830381600087803b15801561100457600080fd5b505af1158015611018573d6000803e3d6000fd5b505050506040513d602081101561102e57600080fd5b81019080805190602001909291905050509050600082111561116a57606481600a0a838e0281151561105c57fe5b0481151561106657fe5b049350600160009054906101000a900473ffffffffffffffffffffffffffffffffffffffff1673ffffffffffffffffffffffffffffffffffffffff1663e78bfee086866000886040518563ffffffff167c0100000000000000000000000000000000000000000000000000000000028152600401808573ffffffffffffffffffffffffffffffffffffffff1673ffffffffffffffffffffffffffffffffffffffff168152602001848152602001836fffffffffffffffffffffffffffffffff168152602001828152602001945050505050600060405180830381600087803b15801561115157600080fd5b505af1158015611165573d6000803e3d6000fd5b505050505b600083111561127457600160009054906101000a900473ffffffffffffffffffffffffffffffffffffffff1673ffffffffffffffffffffffffffffffffffffffff1663e78bfee086856000876040518563ffffffff167c0100000000000000000000000000000000000000000000000000000000028152600401808573ffffffffffffffffffffffffffffffffffffffff1673ffffffffffffffffffffffffffffffffffffffff168152602001848152602001836fffffffffffffffffffffffffffffffff168152602001828152602001945050505050600060405180830381600087803b15801561125b57600080fd5b505af115801561126f573d6000803e3d6000fd5b505050505b600060019054906101000a900473ffffffffffffffffffffffffffffffffffffffff1673ffffffffffffffffffffffffffffffffffffffff16636ffc22b8866040518263ffffffff167c0100000000000000000000000000000000000000000000000000000000028152600401808273ffffffffffffffffffffffffffffffffffffffff1673ffffffffffffffffffffffffffffffffffffffff168152602001915050600060405180830381600087803b15801561133157600080fd5b505af1158015611345573d6000803e3d6000fd5b505050506002600081548092919060010191905055505b8580600101965050610b7f565b600060019054906101000a900473ffffffffffffffffffffffffffffffffffffffff1673ffffffffffffffffffffffffffffffffffffffff1663c33105176040518163ffffffff167c0100000000000000000000000000000000000000000000000000000000028152600401602060405180830381600087803b1580156113ef57600080fd5b505af1158015611403573d6000803e3d6000fd5b505050506040513d602081101561141957600080fd5b8101908080519060200190929190505050600254141561144e5760016000806101000a81548160ff0219169083151502179055505b50505050505050505050505050565b600160009054906101000a900473ffffffffffffffffffffffffffffffffffffffff1673ffffffffffffffffffffffffffffffffffffffff163373ffffffffffffffffffffffffffffffffffffffff161415156114b657fe5b80600060016101000a81548173ffffffffffffffffffffffffffffffffffffffff021916908373ffffffffffffffffffffffffffffffffffffffff16021790555050565b6000809054906101000a900460ff1681565b600060019054906101000a900473ffffffffffffffffffffffffffffffffffffffff16815600a165627a7a723058202282de91dcd8fe1154cf0aa27027bae15cf8e78f6cadf33d2f0ec4f89ca8707c0029",
  "source": "pragma solidity 0.4.24;\r\n\r\nimport \"./SafeMathLibExt.sol\";\r\nimport \"./CrowdsaleExt.sol\";\r\nimport \"./CrowdsaleTokenExt.sol\";\r\n\r\n\r\n/**\r\n * The default behavior for the crowdsale end.\r\n *\r\n * Unlock tokens.\r\n */\r\ncontract ReservedTokensFinalizeAgent is FinalizeAgent {\r\n    using SafeMathLibExt for uint;\r\n    CrowdsaleTokenExt public token;\r\n    CrowdsaleExt public crowdsale;\r\n\r\n    uint public distributedReservedTokensDestinationsLen = 0;\r\n\r\n    constructor(CrowdsaleTokenExt _token, CrowdsaleExt _crowdsale) public {\r\n        token = _token;\r\n        crowdsale = _crowdsale;\r\n    }\r\n\r\n    /** Check that we can release the token */\r\n    function isSane() public view returns (bool) {\r\n        return (token.releaseAgent() == address(this));\r\n    }\r\n    \r\n    /**\r\n    * Allow to (re)set Token.\r\n    */\r\n    function setCrowdsaleTokenExtv1(address _token) public {\r\n        assert(msg.sender == address(crowdsale));\r\n        token = CrowdsaleTokenExt(_token);\r\n    }\r\n\r\n    //distributes reserved tokens. Should be called before finalization\r\n    function distributeReservedTokens(uint reservedTokensDistributionBatch) public {\r\n        assert(msg.sender == address(crowdsale));\r\n\r\n        assert(reservedTokensDistributionBatch > 0);\r\n        assert(!reservedTokensAreDistributed);\r\n        assert(distributedReservedTokensDestinationsLen < token.reservedTokensDestinationsLen());\r\n\r\n        // How many % of tokens the founders and others get\r\n        uint tokensSold = 0;\r\n        for (uint8 i = 0; i < crowdsale.joinedCrowdsalesLen(); i++) {\r\n            CrowdsaleExt tier = CrowdsaleExt(crowdsale.joinedCrowdsales(i));\r\n            tokensSold = tokensSold.plus(tier.tokensSold());\r\n        }\r\n\r\n        uint startLooping = distributedReservedTokensDestinationsLen;\r\n        uint batch = token.reservedTokensDestinationsLen().minus(distributedReservedTokensDestinationsLen);\r\n        if (batch >= reservedTokensDistributionBatch) {\r\n            batch = reservedTokensDistributionBatch;\r\n        }\r\n        uint endLooping = startLooping + batch;\r\n\r\n        // move reserved tokens\r\n        for (uint j = startLooping; j < endLooping; j++) {\r\n            address reservedAddr = token.reservedTokensDestinations(j);\r\n            if (!token.areTokensDistributedForAddress(reservedAddr)) {\r\n                uint allocatedBonusInPercentage;\r\n                uint allocatedBonusInTokens = token.getReservedTokens(reservedAddr);\r\n                uint percentsOfTokensUnit = token.getReservedPercentageUnit(reservedAddr);\r\n                uint percentsOfTokensDecimals = token.getReservedPercentageDecimals(reservedAddr);\r\n\r\n                if (percentsOfTokensUnit > 0) {\r\n                    allocatedBonusInPercentage = tokensSold * percentsOfTokensUnit / 10**percentsOfTokensDecimals / 100;\r\n                    //token.mint(reservedAddr, allocatedBonusInPercentage);\r\n                    crowdsale.allocate(reservedAddr, allocatedBonusInPercentage, 0, allocatedBonusInPercentage);\r\n                }\r\n\r\n                if (allocatedBonusInTokens > 0) {\r\n                    //token.mint(reservedAddr, allocatedBonusInTokens);\r\n                    crowdsale.allocate(reservedAddr, allocatedBonusInTokens, 0, allocatedBonusInTokens);\r\n                }\r\n\r\n                token.finalizeReservedAddress(reservedAddr);\r\n                distributedReservedTokensDestinationsLen++;\r\n            }\r\n        }\r\n\r\n        if (distributedReservedTokensDestinationsLen == token.reservedTokensDestinationsLen()) {\r\n            reservedTokensAreDistributed = true;\r\n        }\r\n    }\r\n\r\n    /** Called once by crowdsale finalize() if the sale was success. */\r\n    function finalizeCrowdsale() public {\r\n        assert(msg.sender == address(crowdsale));\r\n\r\n        if (token.reservedTokensDestinationsLen() > 0) {\r\n            assert(reservedTokensAreDistributed);\r\n        }\r\n\r\n        token.releaseTokenTransfer();\r\n    }\r\n\r\n}",
  "sourcePath": "D:\\Utix Workspace\\UtixTokenSmartContract\\contracts\\ReservedTokensFinalizeAgent.sol",
  "compiler": {
    "name": "solc",
    "version": "0.4.24+commit.e67f0147.Emscripten.clang"
  },
  "schemaVersion": "2.0.1",
  "updatedAt": "2018-09-18T13:44:49.005Z"
}