{
  "contractName": "SafeMathLibExt",
  "abi": [
    {
      "constant": true,
      "inputs": [
        {
          "name": "a",
          "type": "uint256"
        },
        {
          "name": "b",
          "type": "uint256"
        }
      ],
      "name": "times",
      "outputs": [
        {
          "name": "",
          "type": "uint256"
        }
      ],
      "payable": false,
      "stateMutability": "pure",
      "type": "function"
    },
    {
      "constant": true,
      "inputs": [
        {
          "name": "a",
          "type": "uint256"
        },
        {
          "name": "b",
          "type": "uint256"
        }
      ],
      "name": "divides",
      "outputs": [
        {
          "name": "",
          "type": "uint256"
        }
      ],
      "payable": false,
      "stateMutability": "pure",
      "type": "function"
    },
    {
      "constant": true,
      "inputs": [
        {
          "name": "a",
          "type": "uint256"
        },
        {
          "name": "b",
          "type": "uint256"
        }
      ],
      "name": "minus",
      "outputs": [
        {
          "name": "",
          "type": "uint256"
        }
      ],
      "payable": false,
      "stateMutability": "pure",
      "type": "function"
    },
    {
      "constant": true,
      "inputs": [
        {
          "name": "a",
          "type": "uint256"
        },
        {
          "name": "b",
          "type": "uint256"
        }
      ],
      "name": "plus",
      "outputs": [
        {
          "name": "",
          "type": "uint256"
        }
      ],
      "payable": false,
      "stateMutability": "pure",
      "type": "function"
    }
  ],
  "bytecode": "0x61024d610030600b82828239805160001a6073146000811461002057610022565bfe5b5030600052607381538281f3007300000000000000000000000000000000000000003014608060405260043610610079576000357c0100000000000000000000000000000000000000000000000000000000900463ffffffff1680631d3b9edf1461007e57806366098d4f146100bc578063a12f69e0146100fa578063f4f3bdc114610138575b600080fd5b6100a66004803603810190808035906020019092919080359060200190929190505050610176565b6040518082815260200191505060405180910390f35b6100e460048036038101908080359060200190929190803590602001909291905050506101a9565b6040518082815260200191505060405180910390f35b61012260048036038101908080359060200190929190803590602001909291905050506101c7565b6040518082815260200191505060405180910390f35b6101606004803603810190808035906020019092919080359060200190929190505050610208565b6040518082815260200191505060405180910390f35b60008082840290506000841480610197575082848281151561019457fe5b04145b151561019f57fe5b8091505092915050565b60008082840190508381101515156101bd57fe5b8091505092915050565b6000806000831115156101d657fe5b82848115156101e157fe5b04905082848115156101ef57fe5b0681840201841415156101fe57fe5b8091505092915050565b600082821115151561021657fe5b8183039050929150505600a165627a7a72305820c24507678f8618e7738a82c820a63c1c983261a360679d58710385ba759747490029",
  "source": "/**\r\n * This smart contract code is Copyright 2017 TokenMarket Ltd. For more information see https://tokenmarket.net\r\n *\r\n * Licensed under the Apache License, version 2.0: https://github.com/TokenMarketNet/ico/blob/master/LICENSE.txt\r\n */\r\n\r\npragma solidity 0.4.24;\r\n\r\n\r\n/**\r\n * Safe unsigned safe math.\r\n *\r\n * https://blog.aragon.one/library-driven-development-in-solidity-2bebcaf88736#.750gwtwli\r\n *\r\n * Originally from https://raw.githubusercontent.com/AragonOne/zeppelin-solidity/master/contracts/SafeMathLib.sol\r\n *\r\n * Maintained here until merged to mainline zeppelin-solidity.\r\n *\r\n */\r\nlibrary SafeMathLibExt {\r\n\r\n    function times(uint a, uint b) public pure returns (uint) {\r\n        uint c = a * b;\r\n        assert(a == 0 || c / a == b);\r\n        return c;\r\n    }\r\n\r\n    function divides(uint a, uint b) public pure returns (uint) {\r\n        assert(b > 0);\r\n        uint c = a / b;\r\n        assert(a == b * c + a % b);\r\n        return c;\r\n    }\r\n\r\n    function minus(uint a, uint b) public pure returns (uint) {\r\n        assert(b <= a);\r\n        return a - b;\r\n    }\r\n\r\n    function plus(uint a, uint b) public pure returns (uint) {\r\n        uint c = a + b;\r\n        assert(c >= a);\r\n        return c;\r\n    }\r\n\r\n}\r\n",
  "sourcePath": "D:\\Utix Workspace\\UtixTokenSmartContract\\contracts\\SafeMathLibExt.sol",
  "compiler": {
    "name": "solc",
    "version": "0.4.24+commit.e67f0147.Emscripten.clang"
  },
  "schemaVersion": "2.0.1",
  "updatedAt": "2018-09-18T13:44:48.955Z"
}