{
  "contractName": "TokenVesting",
  "abi": [
    {
      "constant": false,
      "inputs": [
        {
          "name": "addr",
          "type": "address"
        },
        {
          "name": "state",
          "type": "bool"
        }
      ],
      "name": "setAllocateAgent",
      "outputs": [],
      "payable": false,
      "stateMutability": "nonpayable",
      "type": "function"
    },
    {
      "constant": true,
      "inputs": [
        {
          "name": "",
          "type": "address"
        }
      ],
      "name": "allocateAgents",
      "outputs": [
        {
          "name": "",
          "type": "bool"
        }
      ],
      "payable": false,
      "stateMutability": "view",
      "type": "function"
    },
    {
      "constant": true,
      "inputs": [],
      "name": "crowdSaleTokenAddress",
      "outputs": [
        {
          "name": "",
          "type": "address"
        }
      ],
      "payable": false,
      "stateMutability": "view",
      "type": "function"
    },
    {
      "constant": true,
      "inputs": [
        {
          "name": "",
          "type": "address"
        }
      ],
      "name": "vestingMap",
      "outputs": [
        {
          "name": "startAt",
          "type": "uint256"
        },
        {
          "name": "cliff",
          "type": "uint256"
        },
        {
          "name": "duration",
          "type": "uint256"
        },
        {
          "name": "step",
          "type": "uint256"
        },
        {
          "name": "amount",
          "type": "uint256"
        },
        {
          "name": "amountReleased",
          "type": "uint256"
        },
        {
          "name": "changeFreezed",
          "type": "bool"
        }
      ],
      "payable": false,
      "stateMutability": "view",
      "type": "function"
    },
    {
      "constant": true,
      "inputs": [],
      "name": "owner",
      "outputs": [
        {
          "name": "",
          "type": "address"
        }
      ],
      "payable": false,
      "stateMutability": "view",
      "type": "function"
    },
    {
      "constant": true,
      "inputs": [],
      "name": "totalUnreleasedTokens",
      "outputs": [
        {
          "name": "",
          "type": "uint256"
        }
      ],
      "payable": false,
      "stateMutability": "view",
      "type": "function"
    },
    {
      "constant": false,
      "inputs": [
        {
          "name": "newOwner",
          "type": "address"
        }
      ],
      "name": "transferOwnership",
      "outputs": [],
      "payable": false,
      "stateMutability": "nonpayable",
      "type": "function"
    },
    {
      "inputs": [
        {
          "name": "_tokenAddress",
          "type": "address"
        }
      ],
      "payable": false,
      "stateMutability": "nonpayable",
      "type": "constructor"
    },
    {
      "anonymous": false,
      "inputs": [
        {
          "indexed": false,
          "name": "_adr",
          "type": "address"
        },
        {
          "indexed": false,
          "name": "_amount",
          "type": "uint256"
        }
      ],
      "name": "VestedTokensReleased",
      "type": "event"
    },
    {
      "anonymous": false,
      "inputs": [
        {
          "indexed": false,
          "name": "addr",
          "type": "address"
        },
        {
          "indexed": false,
          "name": "state",
          "type": "bool"
        }
      ],
      "name": "AllocateAgentChanged",
      "type": "event"
    },
    {
      "anonymous": false,
      "inputs": [
        {
          "indexed": true,
          "name": "previousOwner",
          "type": "address"
        },
        {
          "indexed": true,
          "name": "newOwner",
          "type": "address"
        }
      ],
      "name": "OwnershipTransferred",
      "type": "event"
    },
    {
      "constant": false,
      "inputs": [
        {
          "name": "_startAt",
          "type": "uint256"
        },
        {
          "name": "_cliff",
          "type": "uint256"
        },
        {
          "name": "_duration",
          "type": "uint256"
        },
        {
          "name": "_step",
          "type": "uint256"
        },
        {
          "name": "_changeFreezed",
          "type": "bool"
        }
      ],
      "name": "setDefaultVestingParameters",
      "outputs": [],
      "payable": false,
      "stateMutability": "nonpayable",
      "type": "function"
    },
    {
      "constant": false,
      "inputs": [
        {
          "name": "_adr",
          "type": "address"
        },
        {
          "name": "_amount",
          "type": "uint256"
        }
      ],
      "name": "setVestingWithDefaultSchedule",
      "outputs": [],
      "payable": false,
      "stateMutability": "nonpayable",
      "type": "function"
    },
    {
      "constant": false,
      "inputs": [
        {
          "name": "_adr",
          "type": "address"
        },
        {
          "name": "_startAt",
          "type": "uint256"
        },
        {
          "name": "_cliff",
          "type": "uint256"
        },
        {
          "name": "_duration",
          "type": "uint256"
        },
        {
          "name": "_step",
          "type": "uint256"
        },
        {
          "name": "_amount",
          "type": "uint256"
        },
        {
          "name": "_changeFreezed",
          "type": "bool"
        }
      ],
      "name": "setVesting",
      "outputs": [],
      "payable": false,
      "stateMutability": "nonpayable",
      "type": "function"
    },
    {
      "constant": true,
      "inputs": [
        {
          "name": "adr",
          "type": "address"
        }
      ],
      "name": "isVestingSet",
      "outputs": [
        {
          "name": "isSet",
          "type": "bool"
        }
      ],
      "payable": false,
      "stateMutability": "view",
      "type": "function"
    },
    {
      "constant": false,
      "inputs": [
        {
          "name": "_adr",
          "type": "address"
        }
      ],
      "name": "freezeChangesToVesting",
      "outputs": [],
      "payable": false,
      "stateMutability": "nonpayable",
      "type": "function"
    },
    {
      "constant": false,
      "inputs": [],
      "name": "releaseMyVestedTokens",
      "outputs": [],
      "payable": false,
      "stateMutability": "nonpayable",
      "type": "function"
    },
    {
      "constant": false,
      "inputs": [
        {
          "name": "_adr",
          "type": "address"
        }
      ],
      "name": "releaseVestedTokens",
      "outputs": [],
      "payable": false,
      "stateMutability": "nonpayable",
      "type": "function"
    },
    {
      "constant": false,
      "inputs": [
        {
          "name": "_token",
          "type": "address"
        }
      ],
      "name": "setCrowdsaleTokenExtv1",
      "outputs": [],
      "payable": false,
      "stateMutability": "nonpayable",
      "type": "function"
    }
  ],
  "bytecode": "0x608060405260006004556001600555600460065560056007556000600860006101000a81548160ff02191690831515021790555034801561003f57600080fd5b5060405160208061186e83398101806040528101908080519060200190929190505050336000806101000a81548173ffffffffffffffffffffffffffffffffffffffff021916908373ffffffffffffffffffffffffffffffffffffffff16021790555080600260006101000a81548173ffffffffffffffffffffffffffffffffffffffff021916908373ffffffffffffffffffffffffffffffffffffffff1602179055505061177b806100f36000396000f3006080604052600436106100db576000357c0100000000000000000000000000000000000000000000000000000000900463ffffffff16806326493a6f146100e0578063278544521461012f57806328ff24ad1461018a5780636cd8015d146101e1578063782a27371461022e5780638da5cb5b146102b3578063b1d11f231461030a578063ce699a411461038b578063cf462616146103ce578063d55edcfd14610429578063e0e699371461046c578063e4818a5d146104c3578063f282f551146104ee578063f2fde38b14610531578063f7e77e4414610574575b600080fd5b3480156100ec57600080fd5b5061012d600480360381019080803573ffffffffffffffffffffffffffffffffffffffff16906020019092919080351515906020019092919050505061058b565b005b34801561013b57600080fd5b50610170600480360381019080803573ffffffffffffffffffffffffffffffffffffffff1690602001909291905050506106b0565b604051808215151515815260200191505060405180910390f35b34801561019657600080fd5b5061019f6106d0565b604051808273ffffffffffffffffffffffffffffffffffffffff1673ffffffffffffffffffffffffffffffffffffffff16815260200191505060405180910390f35b3480156101ed57600080fd5b5061022c600480360381019080803573ffffffffffffffffffffffffffffffffffffffff169060200190929190803590602001909291905050506106f6565b005b34801561023a57600080fd5b5061026f600480360381019080803573ffffffffffffffffffffffffffffffffffffffff1690602001909291905050506107d6565b604051808881526020018781526020018681526020018581526020018481526020018381526020018215151515815260200197505050505050505060405180910390f35b3480156102bf57600080fd5b506102c8610825565b604051808273ffffffffffffffffffffffffffffffffffffffff1673ffffffffffffffffffffffffffffffffffffffff16815260200191505060405180910390f35b34801561031657600080fd5b50610389600480360381019080803573ffffffffffffffffffffffffffffffffffffffff169060200190929190803590602001909291908035906020019092919080359060200190929190803590602001909291908035906020019092919080351515906020019092919050505061084a565b005b34801561039757600080fd5b506103cc600480360381019080803573ffffffffffffffffffffffffffffffffffffffff169060200190929190505050610c7d565b005b3480156103da57600080fd5b5061040f600480360381019080803573ffffffffffffffffffffffffffffffffffffffff1690602001909291905050506112b5565b604051808215151515815260200191505060405180910390f35b34801561043557600080fd5b5061046a600480360381019080803573ffffffffffffffffffffffffffffffffffffffff169060200190929190505050611304565b005b34801561047857600080fd5b506104c16004803603810190808035906020019092919080359060200190929190803590602001909291908035906020019092919080351515906020019092919050505061142c565b005b3480156104cf57600080fd5b506104d86114f0565b6040518082815260200191505060405180910390f35b3480156104fa57600080fd5b5061052f600480360381019080803573ffffffffffffffffffffffffffffffffffffffff1690602001909291905050506114f6565b005b34801561053d57600080fd5b50610572600480360381019080803573ffffffffffffffffffffffffffffffffffffffff169060200190929190505050611592565b005b34801561058057600080fd5b506105896116e7565b005b6000809054906101000a900473ffffffffffffffffffffffffffffffffffffffff1673ffffffffffffffffffffffffffffffffffffffff163373ffffffffffffffffffffffffffffffffffffffff161415156105e657600080fd5b80600160008473ffffffffffffffffffffffffffffffffffffffff1673ffffffffffffffffffffffffffffffffffffffff16815260200190815260200160002060006101000a81548160ff0219169083151502179055507fd31c153c670f6edcc54d96847d19c2beb8433d1fdf456144ecc246eb6bf533438282604051808373ffffffffffffffffffffffffffffffffffffffff1673ffffffffffffffffffffffffffffffffffffffff168152602001821515151581526020019250505060405180910390a15050565b60016020528060005260406000206000915054906101000a900460ff1681565b600260009054906101000a900473ffffffffffffffffffffffffffffffffffffffff1681565b81600960008273ffffffffffffffffffffffffffffffffffffffff1673ffffffffffffffffffffffffffffffffffffffff16815260200190815260200160002060060160009054906101000a900460ff1615151561075357600080fd5b600160003373ffffffffffffffffffffffffffffffffffffffff1673ffffffffffffffffffffffffffffffffffffffff16815260200190815260200160002060009054906101000a900460ff1615156107ab57600080fd5b6107d18360045460055460065460075487600860009054906101000a900460ff1661084a565b505050565b60096020528060005260406000206000915090508060000154908060010154908060020154908060030154908060040154908060050154908060060160009054906101000a900460ff16905087565b6000809054906101000a900473ffffffffffffffffffffffffffffffffffffffff1681565b60008088600960008273ffffffffffffffffffffffffffffffffffffffff1673ffffffffffffffffffffffffffffffffffffffff16815260200190815260200160002060060160009054906101000a900460ff161515156108aa57600080fd5b600160003373ffffffffffffffffffffffffffffffffffffffff1673ffffffffffffffffffffffffffffffffffffffff16815260200190815260200160002060009054906101000a900460ff16151561090257600080fd5b600960008b73ffffffffffffffffffffffffffffffffffffffff1673ffffffffffffffffffffffffffffffffffffffff16815260200190815260200160002092506000861415151561095357600080fd5b600085141580610967575060008360040154115b151561097257600080fd5b6000871415151561098257600080fd5b86881115151561099157600080fd5b600089141561099e574298505b888360000181905550878360010181905550868360020181905550858360030181905550600083600401541415610c4b57600260009054906101000a900473ffffffffffffffffffffffffffffffffffffffff16915060035473__SafeMathLibExt________________________6366098d4f9091876040518363ffffffff167c0100000000000000000000000000000000000000000000000000000000028152600401808381526020018281526020019250505060206040518083038186803b158015610a6b57600080fd5b505af4158015610a7f573d6000803e3d6000fd5b505050506040513d6020811015610a9557600080fd5b81019080805190602001909291905050508273ffffffffffffffffffffffffffffffffffffffff166370a08231306040518263ffffffff167c0100000000000000000000000000000000000000000000000000000000028152600401808273ffffffffffffffffffffffffffffffffffffffff1673ffffffffffffffffffffffffffffffffffffffff168152602001915050602060405180830381600087803b158015610b4157600080fd5b505af1158015610b55573d6000803e3d6000fd5b505050506040513d6020811015610b6b57600080fd5b810190808051906020019092919050505010151515610b8957600080fd5b60035473__SafeMathLibExt________________________6366098d4f9091876040518363ffffffff167c0100000000000000000000000000000000000000000000000000000000028152600401808381526020018281526020019250505060206040518083038186803b158015610c0057600080fd5b505af4158015610c14573d6000803e3d6000fd5b505050506040513d6020811015610c2a57600080fd5b81019080805190602001909291905050506003819055508483600401819055505b60008360050181905550838360060160006101000a81548160ff02191690831515021790555050505050505050505050565b600080600080600080600087600960008273ffffffffffffffffffffffffffffffffffffffff1673ffffffffffffffffffffffffffffffffffffffff16815260200190815260200160002060060160009054906101000a900460ff161515610ce457600080fd5b600960008a73ffffffffffffffffffffffffffffffffffffffff1673ffffffffffffffffffffffffffffffffffffffff16815260200190815260200160002097506000886004015473__SafeMathLibExt________________________63f4f3bdc190918b600501546040518363ffffffff167c0100000000000000000000000000000000000000000000000000000000028152600401808381526020018281526020019250505060206040518083038186803b158015610da457600080fd5b505af4158015610db8573d6000803e3d6000fd5b505050506040513d6020811015610dce57600080fd5b8101908080519060200190929190505050111515610deb57600080fd5b876000015442039650876003015487811515610e0357fe5b04955085886001015411151515610e1957600080fd5b87600201548860040154811515610e2c57fe5b049450876004015488600201548602141515610e4b5784806001019550505b8473__SafeMathLibExt________________________631d3b9edf9091886040518363ffffffff167c0100000000000000000000000000000000000000000000000000000000028152600401808381526020018281526020019250505060206040518083038186803b158015610ec057600080fd5b505af4158015610ed4573d6000803e3d6000fd5b505050506040513d6020811015610eea57600080fd5b810190808051906020019092919050505093508760040154841115610f1157876004015493505b8373__SafeMathLibExt________________________63f4f3bdc190918a600501546040518363ffffffff167c0100000000000000000000000000000000000000000000000000000000028152600401808381526020018281526020019250505060206040518083038186803b158015610f8a57600080fd5b505af4158015610f9e573d6000803e3d6000fd5b505050506040513d6020811015610fb457600080fd5b81019080805190602001909291905050509250876005015473__SafeMathLibExt________________________6366098d4f9091856040518363ffffffff167c0100000000000000000000000000000000000000000000000000000000028152600401808381526020018281526020019250505060206040518083038186803b15801561104057600080fd5b505af4158015611054573d6000803e3d6000fd5b505050506040513d602081101561106a57600080fd5b81019080805190602001909291905050508860050181905550600260009054906101000a900473ffffffffffffffffffffffffffffffffffffffff1691508173ffffffffffffffffffffffffffffffffffffffff1663a9059cbb8a856040518363ffffffff167c0100000000000000000000000000000000000000000000000000000000028152600401808373ffffffffffffffffffffffffffffffffffffffff1673ffffffffffffffffffffffffffffffffffffffff16815260200182815260200192505050602060405180830381600087803b15801561114b57600080fd5b505af115801561115f573d6000803e3d6000fd5b505050506040513d602081101561117557600080fd5b81019080805190602001909291905050505060035473__SafeMathLibExt________________________63f4f3bdc19091856040518363ffffffff167c0100000000000000000000000000000000000000000000000000000000028152600401808381526020018281526020019250505060206040518083038186803b1580156111fe57600080fd5b505af4158015611212573d6000803e3d6000fd5b505050506040513d602081101561122857600080fd5b81019080805190602001909291905050506003819055507f6bc5063c7239b75c8bf325a2a2238f726fada322163996bb6c93d5594fb119f08984604051808373ffffffffffffffffffffffffffffffffffffffff1673ffffffffffffffffffffffffffffffffffffffff1681526020018281526020019250505060405180910390a1505050505050505050565b600080600960008473ffffffffffffffffffffffffffffffffffffffff1673ffffffffffffffffffffffffffffffffffffffff1681526020019081526020016000206004015414159050919050565b80600960008273ffffffffffffffffffffffffffffffffffffffff1673ffffffffffffffffffffffffffffffffffffffff16815260200190815260200160002060060160009054906101000a900460ff1615151561136157600080fd5b600160003373ffffffffffffffffffffffffffffffffffffffff1673ffffffffffffffffffffffffffffffffffffffff16815260200190815260200160002060009054906101000a900460ff1615156113b957600080fd5b6113c2826112b5565b15156113cd57600080fd5b6001600960008473ffffffffffffffffffffffffffffffffffffffff1673ffffffffffffffffffffffffffffffffffffffff16815260200190815260200160002060060160006101000a81548160ff0219169083151502179055505050565b600160003373ffffffffffffffffffffffffffffffffffffffff1673ffffffffffffffffffffffffffffffffffffffff16815260200190815260200160002060009054906101000a900460ff16151561148457600080fd5b6000821415151561149457600080fd5b600083141515156114a457600080fd5b8284111515156114b357600080fd5b8460048190555083600581905550826006819055508160078190555080600860006101000a81548160ff0219169083151502179055505050505050565b60035481565b600160003373ffffffffffffffffffffffffffffffffffffffff1673ffffffffffffffffffffffffffffffffffffffff16815260200190815260200160002060009054906101000a900460ff16151561154e57600080fd5b80600260006101000a81548173ffffffffffffffffffffffffffffffffffffffff021916908373ffffffffffffffffffffffffffffffffffffffff16021790555050565b6000809054906101000a900473ffffffffffffffffffffffffffffffffffffffff1673ffffffffffffffffffffffffffffffffffffffff163373ffffffffffffffffffffffffffffffffffffffff161415156115ed57600080fd5b600073ffffffffffffffffffffffffffffffffffffffff168173ffffffffffffffffffffffffffffffffffffffff161415151561162957600080fd5b8073ffffffffffffffffffffffffffffffffffffffff166000809054906101000a900473ffffffffffffffffffffffffffffffffffffffff1673ffffffffffffffffffffffffffffffffffffffff167f8be0079c531659141344cd1fd0a4f28419497f9722a3daafe3b4186f6b6457e060405160405180910390a3806000806101000a81548173ffffffffffffffffffffffffffffffffffffffff021916908373ffffffffffffffffffffffffffffffffffffffff16021790555050565b33600960008273ffffffffffffffffffffffffffffffffffffffff1673ffffffffffffffffffffffffffffffffffffffff16815260200190815260200160002060060160009054906101000a900460ff16151561174357600080fd5b61174c33610c7d565b505600a165627a7a72305820ad7cef1c4427247b1543f96dc08555f7cc83371c379a3e319d80dc8fd2d9d8d20029",
  "source": "pragma solidity 0.4.24;\r\n\r\nimport \"./ERC20.sol\";\r\nimport \"./SafeMathLibExt.sol\";\r\nimport \"./Allocatable.sol\";\r\n\r\n\r\n/**\r\n * Contract to enforce Token Vesting\r\n */\r\ncontract TokenVesting is Allocatable {\r\n\r\n    using SafeMathLibExt for uint;\r\n\r\n    address public crowdSaleTokenAddress;\r\n\r\n    /** keep track of total tokens yet to be released, \r\n     * this should be less than or equal to UTIX tokens held by this contract. \r\n     */\r\n    uint256 public totalUnreleasedTokens;\r\n\r\n    // default vesting parameters\r\n    uint256 private startAt = 0;\r\n    uint256 private cliff = 1;\r\n    uint256 private duration = 4; \r\n    uint256 private step = 5; //15778463;  //2592000;\r\n    bool private changeFreezed = false;\r\n\r\n    struct VestingSchedule {\r\n        uint256 startAt;\r\n        uint256 cliff;\r\n        uint256 duration;\r\n        uint256 step;\r\n        uint256 amount;\r\n        uint256 amountReleased;\r\n        bool changeFreezed;\r\n    }\r\n\r\n    mapping (address => VestingSchedule) public vestingMap;\r\n\r\n    event VestedTokensReleased(address _adr, uint256 _amount);\r\n    \r\n    constructor(address _tokenAddress) public {\r\n        \r\n        crowdSaleTokenAddress = _tokenAddress;\r\n    }\r\n\r\n    /** Modifier to check if changes to vesting is freezed  */\r\n    modifier changesToVestingFreezed(address _adr) {\r\n        require(vestingMap[_adr].changeFreezed);\r\n        _;\r\n    }\r\n\r\n    /** Modifier to check if changes to vesting is not freezed yet  */\r\n    modifier changesToVestingNotFreezed(address adr) {\r\n        require(!vestingMap[adr].changeFreezed); // if vesting not set then also changeFreezed will be false\r\n        _;\r\n    }\r\n\r\n    /** Function to set default vesting schedule parameters. */\r\n    function setDefaultVestingParameters(\r\n        uint256 _startAt, uint256 _cliff, uint256 _duration,\r\n        uint256 _step, bool _changeFreezed) public onlyAllocateAgent {\r\n\r\n        // data validation\r\n        require(_step != 0);\r\n        require(_duration != 0);\r\n        require(_cliff <= _duration);\r\n\r\n        startAt = _startAt;\r\n        cliff = _cliff;\r\n        duration = _duration; \r\n        step = _step;\r\n        changeFreezed = _changeFreezed;\r\n\r\n    }\r\n\r\n    /** Function to set vesting with default schedule. */\r\n    function setVestingWithDefaultSchedule(address _adr, uint256 _amount) \r\n    public \r\n    changesToVestingNotFreezed(_adr) onlyAllocateAgent {\r\n       \r\n        setVesting(_adr, startAt, cliff, duration, step, _amount, changeFreezed);\r\n    }    \r\n\r\n    /** Function to set/update vesting schedule. PS - Amount cannot be changed once set */\r\n    function setVesting(\r\n        address _adr,\r\n        uint256 _startAt,\r\n        uint256 _cliff,\r\n        uint256 _duration,\r\n        uint256 _step,\r\n        uint256 _amount,\r\n        bool _changeFreezed) \r\n    public changesToVestingNotFreezed(_adr) onlyAllocateAgent {\r\n\r\n        VestingSchedule storage vestingSchedule = vestingMap[_adr];\r\n\r\n        // data validation\r\n        require(_step != 0);\r\n        require(_amount != 0 || vestingSchedule.amount > 0);\r\n        require(_duration != 0);\r\n        require(_cliff <= _duration);\r\n\r\n        //if startAt is zero, set current time as start time.\r\n        if (_startAt == 0) \r\n            _startAt = block.timestamp;\r\n\r\n        vestingSchedule.startAt = _startAt;\r\n        vestingSchedule.cliff = _cliff;\r\n        vestingSchedule.duration = _duration;\r\n        vestingSchedule.step = _step;\r\n\r\n        // special processing for first time vesting setting\r\n        if (vestingSchedule.amount == 0) {\r\n            // check if enough tokens are held by this contract\r\n            ERC20 token = ERC20(crowdSaleTokenAddress);\r\n            require(token.balanceOf(this) >= totalUnreleasedTokens.plus(_amount));\r\n            totalUnreleasedTokens = totalUnreleasedTokens.plus(_amount);\r\n            vestingSchedule.amount = _amount; \r\n        }\r\n\r\n        vestingSchedule.amountReleased = 0;\r\n        vestingSchedule.changeFreezed = _changeFreezed;\r\n    }\r\n\r\n    function isVestingSet(address adr) public view returns (bool isSet) {\r\n        return vestingMap[adr].amount != 0;\r\n    }\r\n\r\n    function freezeChangesToVesting(address _adr) public changesToVestingNotFreezed(_adr) onlyAllocateAgent {\r\n        require(isVestingSet(_adr)); // first check if vesting is set\r\n        vestingMap[_adr].changeFreezed = true;\r\n    }\r\n\r\n    /** Release tokens as per vesting schedule, called by contributor  */\r\n    function releaseMyVestedTokens() public changesToVestingFreezed(msg.sender) {\r\n        releaseVestedTokens(msg.sender);\r\n    }\r\n\r\n    /** Release tokens as per vesting schedule, called by anyone  */\r\n    function releaseVestedTokens(address _adr) public changesToVestingFreezed(_adr) {\r\n        VestingSchedule storage vestingSchedule = vestingMap[_adr];\r\n        \r\n        // check if all tokens are not vested\r\n        require(vestingSchedule.amount.minus(vestingSchedule.amountReleased) > 0);\r\n        \r\n        // calculate total vested tokens till now\r\n        uint256 totalTime = block.timestamp - vestingSchedule.startAt;\r\n        uint256 totalSteps = totalTime / vestingSchedule.step;\r\n\r\n        // check if cliff is passed\r\n        require(vestingSchedule.cliff <= totalSteps);\r\n\r\n        uint256 tokensPerStep = vestingSchedule.amount / vestingSchedule.duration;\r\n        // check if amount is divisble by duration\r\n        if (tokensPerStep * vestingSchedule.duration != vestingSchedule.amount) tokensPerStep++;\r\n\r\n        uint256 totalReleasableAmount = tokensPerStep.times(totalSteps);\r\n\r\n        // handle the case if user has not claimed even after vesting period is over or amount was not divisible\r\n        if (totalReleasableAmount > vestingSchedule.amount) totalReleasableAmount = vestingSchedule.amount;\r\n\r\n        uint256 amountToRelease = totalReleasableAmount.minus(vestingSchedule.amountReleased);\r\n        vestingSchedule.amountReleased = vestingSchedule.amountReleased.plus(amountToRelease);\r\n\r\n        // transfer vested tokens\r\n        ERC20 token = ERC20(crowdSaleTokenAddress);\r\n        token.transfer(_adr, amountToRelease);\r\n        // decrement overall unreleased token count\r\n        totalUnreleasedTokens = totalUnreleasedTokens.minus(amountToRelease);\r\n        emit VestedTokensReleased(_adr, amountToRelease);\r\n    }\r\n\r\n    /**\r\n    * Allow to (re)set Token.\r\n    */\r\n    function setCrowdsaleTokenExtv1(address _token) public onlyAllocateAgent {       \r\n        crowdSaleTokenAddress = _token;\r\n    }\r\n}",
  "sourcePath": "D:\\Utix Workspace\\UtixTokenSmartContract\\contracts\\TokenVesting.sol",
  "compiler": {
    "name": "solc",
    "version": "0.4.24+commit.e67f0147.Emscripten.clang"
  },
  "schemaVersion": "2.0.1",
  "updatedAt": "2018-09-18T13:44:48.972Z"
}