{
  "contractName": "UpgradeableToken",
  "abi": [
    {
      "constant": false,
      "inputs": [
        {
          "name": "_spender",
          "type": "address"
        },
        {
          "name": "_value",
          "type": "uint256"
        }
      ],
      "name": "approve",
      "outputs": [
        {
          "name": "success",
          "type": "bool"
        }
      ],
      "payable": false,
      "stateMutability": "nonpayable",
      "type": "function"
    },
    {
      "constant": true,
      "inputs": [],
      "name": "totalSupply",
      "outputs": [
        {
          "name": "",
          "type": "uint256"
        }
      ],
      "payable": false,
      "stateMutability": "view",
      "type": "function"
    },
    {
      "constant": false,
      "inputs": [
        {
          "name": "_from",
          "type": "address"
        },
        {
          "name": "_to",
          "type": "address"
        },
        {
          "name": "_value",
          "type": "uint256"
        }
      ],
      "name": "transferFrom",
      "outputs": [
        {
          "name": "success",
          "type": "bool"
        }
      ],
      "payable": false,
      "stateMutability": "nonpayable",
      "type": "function"
    },
    {
      "constant": true,
      "inputs": [
        {
          "name": "",
          "type": "address"
        }
      ],
      "name": "balances",
      "outputs": [
        {
          "name": "",
          "type": "uint256"
        }
      ],
      "payable": false,
      "stateMutability": "view",
      "type": "function"
    },
    {
      "constant": true,
      "inputs": [
        {
          "name": "",
          "type": "address"
        },
        {
          "name": "",
          "type": "address"
        }
      ],
      "name": "allowed",
      "outputs": [
        {
          "name": "",
          "type": "uint256"
        }
      ],
      "payable": false,
      "stateMutability": "view",
      "type": "function"
    },
    {
      "constant": true,
      "inputs": [],
      "name": "upgradeAgent",
      "outputs": [
        {
          "name": "",
          "type": "address"
        }
      ],
      "payable": false,
      "stateMutability": "view",
      "type": "function"
    },
    {
      "constant": true,
      "inputs": [],
      "name": "upgradeMaster",
      "outputs": [
        {
          "name": "",
          "type": "address"
        }
      ],
      "payable": false,
      "stateMutability": "view",
      "type": "function"
    },
    {
      "constant": true,
      "inputs": [
        {
          "name": "_owner",
          "type": "address"
        }
      ],
      "name": "balanceOf",
      "outputs": [
        {
          "name": "balance",
          "type": "uint256"
        }
      ],
      "payable": false,
      "stateMutability": "view",
      "type": "function"
    },
    {
      "constant": false,
      "inputs": [
        {
          "name": "_to",
          "type": "address"
        },
        {
          "name": "_value",
          "type": "uint256"
        }
      ],
      "name": "transfer",
      "outputs": [
        {
          "name": "success",
          "type": "bool"
        }
      ],
      "payable": false,
      "stateMutability": "nonpayable",
      "type": "function"
    },
    {
      "constant": true,
      "inputs": [],
      "name": "totalUpgraded",
      "outputs": [
        {
          "name": "",
          "type": "uint256"
        }
      ],
      "payable": false,
      "stateMutability": "view",
      "type": "function"
    },
    {
      "constant": true,
      "inputs": [
        {
          "name": "_owner",
          "type": "address"
        },
        {
          "name": "_spender",
          "type": "address"
        }
      ],
      "name": "allowance",
      "outputs": [
        {
          "name": "remaining",
          "type": "uint256"
        }
      ],
      "payable": false,
      "stateMutability": "view",
      "type": "function"
    },
    {
      "constant": true,
      "inputs": [],
      "name": "isToken",
      "outputs": [
        {
          "name": "weAre",
          "type": "bool"
        }
      ],
      "payable": false,
      "stateMutability": "pure",
      "type": "function"
    },
    {
      "inputs": [
        {
          "name": "_upgradeMaster",
          "type": "address"
        }
      ],
      "payable": false,
      "stateMutability": "nonpayable",
      "type": "constructor"
    },
    {
      "anonymous": false,
      "inputs": [
        {
          "indexed": true,
          "name": "_from",
          "type": "address"
        },
        {
          "indexed": true,
          "name": "_to",
          "type": "address"
        },
        {
          "indexed": false,
          "name": "_value",
          "type": "uint256"
        }
      ],
      "name": "Upgrade",
      "type": "event"
    },
    {
      "anonymous": false,
      "inputs": [
        {
          "indexed": false,
          "name": "agent",
          "type": "address"
        }
      ],
      "name": "UpgradeAgentSet",
      "type": "event"
    },
    {
      "anonymous": false,
      "inputs": [
        {
          "indexed": false,
          "name": "receiver",
          "type": "address"
        },
        {
          "indexed": false,
          "name": "amount",
          "type": "uint256"
        }
      ],
      "name": "Minted",
      "type": "event"
    },
    {
      "anonymous": false,
      "inputs": [
        {
          "indexed": true,
          "name": "owner",
          "type": "address"
        },
        {
          "indexed": true,
          "name": "spender",
          "type": "address"
        },
        {
          "indexed": false,
          "name": "value",
          "type": "uint256"
        }
      ],
      "name": "Approval",
      "type": "event"
    },
    {
      "anonymous": false,
      "inputs": [
        {
          "indexed": true,
          "name": "from",
          "type": "address"
        },
        {
          "indexed": true,
          "name": "to",
          "type": "address"
        },
        {
          "indexed": false,
          "name": "value",
          "type": "uint256"
        }
      ],
      "name": "Transfer",
      "type": "event"
    },
    {
      "constant": false,
      "inputs": [
        {
          "name": "value",
          "type": "uint256"
        }
      ],
      "name": "upgrade",
      "outputs": [],
      "payable": false,
      "stateMutability": "nonpayable",
      "type": "function"
    },
    {
      "constant": true,
      "inputs": [],
      "name": "canUpgrade",
      "outputs": [
        {
          "name": "",
          "type": "bool"
        }
      ],
      "payable": false,
      "stateMutability": "view",
      "type": "function"
    },
    {
      "constant": false,
      "inputs": [
        {
          "name": "agent",
          "type": "address"
        }
      ],
      "name": "setUpgradeAgent",
      "outputs": [],
      "payable": false,
      "stateMutability": "nonpayable",
      "type": "function"
    },
    {
      "constant": true,
      "inputs": [],
      "name": "getUpgradeState",
      "outputs": [
        {
          "name": "",
          "type": "uint8"
        }
      ],
      "payable": false,
      "stateMutability": "view",
      "type": "function"
    },
    {
      "constant": false,
      "inputs": [
        {
          "name": "master",
          "type": "address"
        }
      ],
      "name": "setUpgradeMaster",
      "outputs": [],
      "payable": false,
      "stateMutability": "nonpayable",
      "type": "function"
    }
  ],
  "bytecode": "0x608060405234801561001057600080fd5b506040516020806119398339810180604052810190808051906020019092919050505080600360006101000a81548173ffffffffffffffffffffffffffffffffffffffff021916908373ffffffffffffffffffffffffffffffffffffffff160217905550506118b5806100846000396000f3006080604052600436106100f1576000357c0100000000000000000000000000000000000000000000000000000000900463ffffffff168063095ea7b3146100f657806318160ddd1461015b57806323b872dd1461018657806327e235e31461020b57806345977d03146102625780635c6581651461028f5780635de4ccb014610306578063600440cb1461035d57806370a08231146103b45780638444b3911461040b5780639738968c14610444578063a9059cbb14610473578063c752ff62146104d8578063d7e7088a14610503578063dd62ed3e14610546578063eefa597b146105bd578063ffeb7d75146105ec575b600080fd5b34801561010257600080fd5b50610141600480360381019080803573ffffffffffffffffffffffffffffffffffffffff1690602001909291908035906020019092919050505061062f565b604051808215151515815260200191505060405180910390f35b34801561016757600080fd5b506101706107b8565b6040518082815260200191505060405180910390f35b34801561019257600080fd5b506101f1600480360381019080803573ffffffffffffffffffffffffffffffffffffffff169060200190929190803573ffffffffffffffffffffffffffffffffffffffff169060200190929190803590602001909291905050506107be565b604051808215151515815260200191505060405180910390f35b34801561021757600080fd5b5061024c600480360381019080803573ffffffffffffffffffffffffffffffffffffffff169060200190929190505050610c45565b6040518082815260200191505060405180910390f35b34801561026e57600080fd5b5061028d60048036038101908080359060200190929190505050610c5d565b005b34801561029b57600080fd5b506102f0600480360381019080803573ffffffffffffffffffffffffffffffffffffffff169060200190929190803573ffffffffffffffffffffffffffffffffffffffff1690602001909291905050506110c6565b6040518082815260200191505060405180910390f35b34801561031257600080fd5b5061031b6110eb565b604051808273ffffffffffffffffffffffffffffffffffffffff1673ffffffffffffffffffffffffffffffffffffffff16815260200191505060405180910390f35b34801561036957600080fd5b50610372611111565b604051808273ffffffffffffffffffffffffffffffffffffffff1673ffffffffffffffffffffffffffffffffffffffff16815260200191505060405180910390f35b3480156103c057600080fd5b506103f5600480360381019080803573ffffffffffffffffffffffffffffffffffffffff169060200190929190505050611137565b6040518082815260200191505060405180910390f35b34801561041757600080fd5b50610420611180565b6040518082600481111561043057fe5b60ff16815260200191505060405180910390f35b34801561045057600080fd5b506104596111ff565b604051808215151515815260200191505060405180910390f35b34801561047f57600080fd5b506104be600480360381019080803573ffffffffffffffffffffffffffffffffffffffff16906020019092919080359060200190929190505050611208565b604051808215151515815260200191505060405180910390f35b3480156104e457600080fd5b506104ed6114dd565b6040518082815260200191505060405180910390f35b34801561050f57600080fd5b50610544600480360381019080803573ffffffffffffffffffffffffffffffffffffffff1690602001909291905050506114e3565b005b34801561055257600080fd5b506105a7600480360381019080803573ffffffffffffffffffffffffffffffffffffffff169060200190929190803573ffffffffffffffffffffffffffffffffffffffff169060200190929190505050611735565b6040518082815260200191505060405180910390f35b3480156105c957600080fd5b506105d26117bc565b604051808215151515815260200191505060405180910390f35b3480156105f857600080fd5b5061062d600480360381019080803573ffffffffffffffffffffffffffffffffffffffff1690602001909291905050506117c5565b005b60008082141580156106be57506000600260003373ffffffffffffffffffffffffffffffffffffffff1673ffffffffffffffffffffffffffffffffffffffff16815260200190815260200160002060008573ffffffffffffffffffffffffffffffffffffffff1673ffffffffffffffffffffffffffffffffffffffff1681526020019081526020016000205414155b156106c857600080fd5b81600260003373ffffffffffffffffffffffffffffffffffffffff1673ffffffffffffffffffffffffffffffffffffffff16815260200190815260200160002060008573ffffffffffffffffffffffffffffffffffffffff1673ffffffffffffffffffffffffffffffffffffffff168152602001908152602001600020819055508273ffffffffffffffffffffffffffffffffffffffff163373ffffffffffffffffffffffffffffffffffffffff167f8c5be1e5ebec7d5bd14f71427d1e84f3dd0314c0f7b2291e5b200ac8c7c3b925846040518082815260200191505060405180910390a36001905092915050565b60005481565b600080600260008673ffffffffffffffffffffffffffffffffffffffff1673ffffffffffffffffffffffffffffffffffffffff16815260200190815260200160002060003373ffffffffffffffffffffffffffffffffffffffff1673ffffffffffffffffffffffffffffffffffffffff168152602001908152602001600020549050600160008573ffffffffffffffffffffffffffffffffffffffff1673ffffffffffffffffffffffffffffffffffffffff1681526020019081526020016000205473__SafeMathLibExt________________________6366098d4f9091856040518363ffffffff167c0100000000000000000000000000000000000000000000000000000000028152600401808381526020018281526020019250505060206040518083038186803b1580156108f457600080fd5b505af4158015610908573d6000803e3d6000fd5b505050506040513d602081101561091e57600080fd5b8101908080519060200190929190505050600160008673ffffffffffffffffffffffffffffffffffffffff1673ffffffffffffffffffffffffffffffffffffffff16815260200190815260200160002081905550600160008673ffffffffffffffffffffffffffffffffffffffff1673ffffffffffffffffffffffffffffffffffffffff1681526020019081526020016000205473__SafeMathLibExt________________________63f4f3bdc19091856040518363ffffffff167c0100000000000000000000000000000000000000000000000000000000028152600401808381526020018281526020019250505060206040518083038186803b158015610a2657600080fd5b505af4158015610a3a573d6000803e3d6000fd5b505050506040513d6020811015610a5057600080fd5b8101908080519060200190929190505050600160008773ffffffffffffffffffffffffffffffffffffffff1673ffffffffffffffffffffffffffffffffffffffff168152602001908152602001600020819055508073__SafeMathLibExt________________________63f4f3bdc19091856040518363ffffffff167c0100000000000000000000000000000000000000000000000000000000028152600401808381526020018281526020019250505060206040518083038186803b158015610b1957600080fd5b505af4158015610b2d573d6000803e3d6000fd5b505050506040513d6020811015610b4357600080fd5b8101908080519060200190929190505050600260008773ffffffffffffffffffffffffffffffffffffffff1673ffffffffffffffffffffffffffffffffffffffff16815260200190815260200160002060003373ffffffffffffffffffffffffffffffffffffffff1673ffffffffffffffffffffffffffffffffffffffff168152602001908152602001600020819055508373ffffffffffffffffffffffffffffffffffffffff168573ffffffffffffffffffffffffffffffffffffffff167fddf252ad1be2c89b69c2b068fc378daa952ba7f163c4a11628f55a4df523b3ef856040518082815260200191505060405180910390a360019150509392505050565b60016020528060005260406000206000915090505481565b6000610c67611180565b905060036004811115610c7657fe5b816004811115610c8257fe5b1480610ca35750600480811115610c9557fe5b816004811115610ca157fe5b145b1515610cae57600080fd5b6000821415610cbc57600080fd5b600160003373ffffffffffffffffffffffffffffffffffffffff1673ffffffffffffffffffffffffffffffffffffffff1681526020019081526020016000205473__SafeMathLibExt________________________63f4f3bdc19091846040518363ffffffff167c0100000000000000000000000000000000000000000000000000000000028152600401808381526020018281526020019250505060206040518083038186803b158015610d7057600080fd5b505af4158015610d84573d6000803e3d6000fd5b505050506040513d6020811015610d9a57600080fd5b8101908080519060200190929190505050600160003373ffffffffffffffffffffffffffffffffffffffff1673ffffffffffffffffffffffffffffffffffffffff1681526020019081526020016000208190555060005473__SafeMathLibExt________________________63f4f3bdc19091846040518363ffffffff167c0100000000000000000000000000000000000000000000000000000000028152600401808381526020018281526020019250505060206040518083038186803b158015610e6557600080fd5b505af4158015610e79573d6000803e3d6000fd5b505050506040513d6020811015610e8f57600080fd5b810190808051906020019092919050505060008190555060055473__SafeMathLibExt________________________6366098d4f9091846040518363ffffffff167c0100000000000000000000000000000000000000000000000000000000028152600401808381526020018281526020019250505060206040518083038186803b158015610f1d57600080fd5b505af4158015610f31573d6000803e3d6000fd5b505050506040513d6020811015610f4757600080fd5b8101908080519060200190929190505050600581905550600460009054906101000a900473ffffffffffffffffffffffffffffffffffffffff1673ffffffffffffffffffffffffffffffffffffffff1663753e88e533846040518363ffffffff167c0100000000000000000000000000000000000000000000000000000000028152600401808373ffffffffffffffffffffffffffffffffffffffff1673ffffffffffffffffffffffffffffffffffffffff16815260200182815260200192505050600060405180830381600087803b15801561102357600080fd5b505af1158015611037573d6000803e3d6000fd5b50505050600460009054906101000a900473ffffffffffffffffffffffffffffffffffffffff1673ffffffffffffffffffffffffffffffffffffffff163373ffffffffffffffffffffffffffffffffffffffff167f7e5c344a8141a805725cb476f76c6953b842222b967edd1f78ddb6e8b3f397ac846040518082815260200191505060405180910390a35050565b6002602052816000526040600020602052806000526040600020600091509150505481565b600460009054906101000a900473ffffffffffffffffffffffffffffffffffffffff1681565b600360009054906101000a900473ffffffffffffffffffffffffffffffffffffffff1681565b6000600160008373ffffffffffffffffffffffffffffffffffffffff1673ffffffffffffffffffffffffffffffffffffffff168152602001908152602001600020549050919050565b600061118a6111ff565b151561119957600190506111fc565b6000600460009054906101000a900473ffffffffffffffffffffffffffffffffffffffff1673ffffffffffffffffffffffffffffffffffffffff1614156111e357600290506111fc565b600060055414156111f757600390506111fc565b600490505b90565b60006001905090565b6000600160003373ffffffffffffffffffffffffffffffffffffffff1673ffffffffffffffffffffffffffffffffffffffff1681526020019081526020016000205473__SafeMathLibExt________________________63f4f3bdc19091846040518363ffffffff167c0100000000000000000000000000000000000000000000000000000000028152600401808381526020018281526020019250505060206040518083038186803b1580156112be57600080fd5b505af41580156112d2573d6000803e3d6000fd5b505050506040513d60208110156112e857600080fd5b8101908080519060200190929190505050600160003373ffffffffffffffffffffffffffffffffffffffff1673ffffffffffffffffffffffffffffffffffffffff16815260200190815260200160002081905550600160008473ffffffffffffffffffffffffffffffffffffffff1673ffffffffffffffffffffffffffffffffffffffff1681526020019081526020016000205473__SafeMathLibExt________________________6366098d4f9091846040518363ffffffff167c0100000000000000000000000000000000000000000000000000000000028152600401808381526020018281526020019250505060206040518083038186803b1580156113f057600080fd5b505af4158015611404573d6000803e3d6000fd5b505050506040513d602081101561141a57600080fd5b8101908080519060200190929190505050600160008573ffffffffffffffffffffffffffffffffffffffff1673ffffffffffffffffffffffffffffffffffffffff168152602001908152602001600020819055508273ffffffffffffffffffffffffffffffffffffffff163373ffffffffffffffffffffffffffffffffffffffff167fddf252ad1be2c89b69c2b068fc378daa952ba7f163c4a11628f55a4df523b3ef846040518082815260200191505060405180910390a36001905092915050565b60055481565b6114eb6111ff565b15156114f657600080fd5b60008173ffffffffffffffffffffffffffffffffffffffff16141561151a57600080fd5b600360009054906101000a900473ffffffffffffffffffffffffffffffffffffffff1673ffffffffffffffffffffffffffffffffffffffff163373ffffffffffffffffffffffffffffffffffffffff1614151561157657600080fd5b60048081111561158257fe5b61158a611180565b600481111561159557fe5b14156115a057600080fd5b80600460006101000a81548173ffffffffffffffffffffffffffffffffffffffff021916908373ffffffffffffffffffffffffffffffffffffffff160217905550600460009054906101000a900473ffffffffffffffffffffffffffffffffffffffff1673ffffffffffffffffffffffffffffffffffffffff166361d3d7a66040518163ffffffff167c0100000000000000000000000000000000000000000000000000000000028152600401602060405180830381600087803b15801561166757600080fd5b505af115801561167b573d6000803e3d6000fd5b505050506040513d602081101561169157600080fd5b810190808051906020019092919050505015156116ad57600080fd5b7f7845d5aa74cc410e35571258d954f23b82276e160fe8c188fa80566580f279cc600460009054906101000a900473ffffffffffffffffffffffffffffffffffffffff16604051808273ffffffffffffffffffffffffffffffffffffffff1673ffffffffffffffffffffffffffffffffffffffff16815260200191505060405180910390a150565b6000600260008473ffffffffffffffffffffffffffffffffffffffff1673ffffffffffffffffffffffffffffffffffffffff16815260200190815260200160002060008373ffffffffffffffffffffffffffffffffffffffff1673ffffffffffffffffffffffffffffffffffffffff16815260200190815260200160002054905092915050565b60006001905090565b60008173ffffffffffffffffffffffffffffffffffffffff1614156117e957600080fd5b600360009054906101000a900473ffffffffffffffffffffffffffffffffffffffff1673ffffffffffffffffffffffffffffffffffffffff163373ffffffffffffffffffffffffffffffffffffffff1614151561184557600080fd5b80600360006101000a81548173ffffffffffffffffffffffffffffffffffffffff021916908373ffffffffffffffffffffffffffffffffffffffff160217905550505600a165627a7a72305820bbab01c14894ddc7a9fb61b62d2d5b52501fe0f5debf5e3587fcd862a7bc5b2e0029",
  "source": "/**\r\n * This smart contract code is Copyright 2017 TokenMarket Ltd. For more information see https://tokenmarket.net\r\n *\r\n * Licensed under the Apache License, version 2.0: https://github.com/TokenMarketNet/ico/blob/master/LICENSE.txt\r\n */\r\n\r\npragma solidity 0.4.24;\r\n\r\nimport \"./ERC20.sol\";\r\nimport \"./StandardToken.sol\";\r\nimport \"./UpgradeAgent.sol\";\r\n\r\n\r\n/**\r\n * A token upgrade mechanism where users can opt-in amount of tokens to the next smart contract revision.\r\n *\r\n * First envisioned by Golem and Lunyr projects.\r\n */\r\ncontract UpgradeableToken is StandardToken {\r\n\r\n    /** Contract / person who can set the upgrade path. \r\n        This can be the same as team multisig wallet, as what it is with its default value. */\r\n    address public upgradeMaster;\r\n\r\n    /** The next contract where the tokens will be migrated. */\r\n    UpgradeAgent public upgradeAgent;\r\n\r\n    /** How many tokens we have upgraded by now. */\r\n    uint256 public totalUpgraded;\r\n\r\n    /**\r\n    * Upgrade states.\r\n    *\r\n    * - NotAllowed: The child contract has not reached a condition where the upgrade can bgun\r\n    * - WaitingForAgent: Token allows upgrade, but we don't have a new agent yet\r\n    * - ReadyToUpgrade: The agent is set, but not a single token has been upgraded yet\r\n    * - Upgrading: Upgrade agent is set and the balance holders can upgrade their tokens\r\n    *\r\n    */\r\n    enum UpgradeState {Unknown, NotAllowed, WaitingForAgent, ReadyToUpgrade, Upgrading}\r\n\r\n    /**\r\n    * Somebody has upgraded some of his tokens.\r\n    */\r\n    event Upgrade(address indexed _from, address indexed _to, uint256 _value);\r\n\r\n    /**\r\n    * New upgrade agent available.\r\n    */\r\n    event UpgradeAgentSet(address agent);\r\n\r\n    /**\r\n    * Do not allow construction without upgrade master set.\r\n    */\r\n    constructor(address _upgradeMaster) public {\r\n        upgradeMaster = _upgradeMaster;\r\n    }\r\n\r\n    /**\r\n    * Allow the token holder to upgrade some of their tokens to a new contract.\r\n    */\r\n    function upgrade(uint256 value) public {\r\n\r\n        UpgradeState state = getUpgradeState();\r\n        if (!(state == UpgradeState.ReadyToUpgrade || state == UpgradeState.Upgrading)) {\r\n            // Called in a bad state\r\n            revert();\r\n        }\r\n\r\n        // Validate input value.\r\n        if (value == 0) revert();\r\n\r\n        balances[msg.sender] = balances[msg.sender].minus(value);\r\n\r\n        // Take tokens out from circulation\r\n        totalSupply = totalSupply.minus(value);\r\n        totalUpgraded = totalUpgraded.plus(value);\r\n\r\n        // Upgrade agent reissues the tokens\r\n        upgradeAgent.upgradeFrom(msg.sender, value);\r\n        emit Upgrade(msg.sender, upgradeAgent, value);\r\n    }\r\n\r\n    /**\r\n    * Child contract can enable to provide the condition when the upgrade can begun.\r\n    */\r\n    function canUpgrade() public view returns(bool) {\r\n        return true;\r\n    }\r\n\r\n    /**\r\n    * Set an upgrade agent that handles\r\n    */\r\n    function setUpgradeAgent(address agent) external {\r\n        if (!canUpgrade()) {\r\n            // The token is not yet in a state that we could think upgrading\r\n            revert();\r\n        }\r\n\r\n        if (agent == 0x0) revert();\r\n        // Only a master can designate the next agent\r\n        if (msg.sender != upgradeMaster) revert();\r\n        // Upgrade has already begun for an agent\r\n        if (getUpgradeState() == UpgradeState.Upgrading) revert();\r\n\r\n        upgradeAgent = UpgradeAgent(agent);\r\n\r\n        // Bad interface\r\n        if (!upgradeAgent.isUpgradeAgent()) revert();      \r\n\r\n        emit UpgradeAgentSet(upgradeAgent);\r\n    }\r\n\r\n    /**\r\n    * Get the state of the token upgrade.\r\n    */\r\n    function getUpgradeState() public view returns(UpgradeState) {\r\n        if (!canUpgrade()) return UpgradeState.NotAllowed;\r\n        else if (address(upgradeAgent) == 0x00) return UpgradeState.WaitingForAgent;\r\n        else if (totalUpgraded == 0) return UpgradeState.ReadyToUpgrade;\r\n        else return UpgradeState.Upgrading;\r\n    }\r\n\r\n    /**\r\n    * Change the upgrade master.\r\n    *\r\n    * This allows us to set a new owner for the upgrade mechanism.\r\n    */\r\n    function setUpgradeMaster(address master) public {\r\n        if (master == 0x0) revert();\r\n        if (msg.sender != upgradeMaster) revert();\r\n        upgradeMaster = master;\r\n    }\r\n}\r\n",
  "sourcePath": "D:\\Utix Workspace\\UtixTokenSmartContract\\contracts\\UpgradeableToken.sol",
  "compiler": {
    "name": "solc",
    "version": "0.4.24+commit.e67f0147.Emscripten.clang"
  },
  "schemaVersion": "2.0.1",
  "updatedAt": "2018-09-18T13:44:26.861Z"
}